{
  "_format": "hh-sol-artifact-1",
  "contractName": "Poker",
  "sourceName": "contracts/PokerContract.sol",
  "abi": [
    {
      "anonymous": false,
      "inputs": [
        {
          "indexed": true,
          "internalType": "uint256",
          "name": "gameId",
          "type": "uint256"
        },
        {
          "indexed": true,
          "internalType": "address",
          "name": "dealer",
          "type": "address"
        },
        {
          "indexed": false,
          "internalType": "uint256",
          "name": "buyIn",
          "type": "uint256"
        }
      ],
      "name": "GameCreated",
      "type": "event"
    },
    {
      "anonymous": false,
      "inputs": [
        {
          "indexed": true,
          "internalType": "uint256",
          "name": "gameId",
          "type": "uint256"
        },
        {
          "indexed": false,
          "internalType": "address",
          "name": "winner",
          "type": "address"
        }
      ],
      "name": "GameEnded",
      "type": "event"
    },
    {
      "anonymous": false,
      "inputs": [
        {
          "indexed": true,
          "internalType": "uint256",
          "name": "gameId",
          "type": "uint256"
        }
      ],
      "name": "GameStarted",
      "type": "event"
    },
    {
      "anonymous": false,
      "inputs": [
        {
          "indexed": true,
          "internalType": "uint256",
          "name": "gameId",
          "type": "uint256"
        },
        {
          "indexed": true,
          "internalType": "address",
          "name": "player",
          "type": "address"
        }
      ],
      "name": "PlayerJoined",
      "type": "event"
    },
    {
      "inputs": [
        {
          "internalType": "uint256",
          "name": "_buyIn",
          "type": "uint256"
        }
      ],
      "name": "createGame",
      "outputs": [],
      "stateMutability": "nonpayable",
      "type": "function"
    },
    {
      "inputs": [
        {
          "internalType": "uint256",
          "name": "_gameId",
          "type": "uint256"
        },
        {
          "internalType": "address payable",
          "name": "_winner",
          "type": "address"
        }
      ],
      "name": "endGame",
      "outputs": [],
      "stateMutability": "nonpayable",
      "type": "function"
    },
    {
      "inputs": [],
      "name": "gameCount",
      "outputs": [
        {
          "internalType": "uint256",
          "name": "",
          "type": "uint256"
        }
      ],
      "stateMutability": "view",
      "type": "function"
    },
    {
      "inputs": [
        {
          "internalType": "uint256",
          "name": "",
          "type": "uint256"
        }
      ],
      "name": "games",
      "outputs": [
        {
          "internalType": "uint256",
          "name": "gameId",
          "type": "uint256"
        },
        {
          "internalType": "address",
          "name": "dealer",
          "type": "address"
        },
        {
          "internalType": "uint256",
          "name": "pot",
          "type": "uint256"
        },
        {
          "internalType": "uint256",
          "name": "buyIn",
          "type": "uint256"
        },
        {
          "internalType": "bool",
          "name": "isActive",
          "type": "bool"
        }
      ],
      "stateMutability": "view",
      "type": "function"
    },
    {
      "inputs": [
        {
          "internalType": "uint256",
          "name": "_gameId",
          "type": "uint256"
        }
      ],
      "name": "joinGame",
      "outputs": [],
      "stateMutability": "payable",
      "type": "function"
    },
    {
      "inputs": [
        {
          "internalType": "uint256",
          "name": "_gameId",
          "type": "uint256"
        }
      ],
      "name": "startGame",
      "outputs": [],
      "stateMutability": "nonpayable",
      "type": "function"
    }
  ],
  "bytecode": "0x6080604052348015600f57600080fd5b50610c228061001f6000396000f3fe6080604052600436106100555760003560e01c8063117a5b901461005a57806348e837b91461009b5780634d1975b4146100c457806386514131146100ef578063e5ed1d5914610118578063efaa55a014610141575b600080fd5b34801561006657600080fd5b50610081600480360381019061007c91906107ee565b61015d565b604051610092959493929190610886565b60405180910390f35b3480156100a757600080fd5b506100c260048036038101906100bd91906107ee565b6101c0565b005b3480156100d057600080fd5b506100d96102b9565b6040516100e691906108d9565b60405180910390f35b3480156100fb57600080fd5b5061011660048036038101906101119190610932565b6102bf565b005b34801561012457600080fd5b5061013f600480360381019061013a91906107ee565b610483565b005b61015b600480360381019061015691906107ee565b6105bc565b005b60006020528060005260406000206000915090508060000154908060010160009054906101000a900473ffffffffffffffffffffffffffffffffffffffff16908060020154908060030154908060050160009054906101000a900460ff16905085565b600160008154809291906101d3906109a1565b91905055506000806000600154815260200190815260200160002090506001548160000181905550338160010160006101000a81548173ffffffffffffffffffffffffffffffffffffffff021916908373ffffffffffffffffffffffffffffffffffffffff16021790555081816003018190555060018160050160006101000a81548160ff0219169083151502179055503373ffffffffffffffffffffffffffffffffffffffff166001547f7dfb67e9ff596fca4da65c7eedb128cd1aac553af54b3c0cb733625a2480d8bd846040516102ad91906108d9565b60405180910390a35050565b60015481565b8160008082815260200190815260200160002060010160009054906101000a900473ffffffffffffffffffffffffffffffffffffffff1673ffffffffffffffffffffffffffffffffffffffff163373ffffffffffffffffffffffffffffffffffffffff1614610363576040517f08c379a000000000000000000000000000000000000000000000000000000000815260040161035a90610a46565b60405180910390fd5b8260008082815260200190815260200160002060050160009054906101000a900460ff166103c6576040517f08c379a00000000000000000000000000000000000000000000000000000000081526004016103bd90610ab2565b60405180910390fd5b6000806000868152602001908152602001600020905060008160050160006101000a81548160ff0219169083151502179055508373ffffffffffffffffffffffffffffffffffffffff166108fc82600201549081150290604051600060405180830381858888f19350505050158015610443573d6000803e3d6000fd5b50847f3d5fcd8fa3235aeb3897f25c8ea49989174981afcb01b9d03189d1056a16775b856040516104749190610b31565b60405180910390a25050505050565b8060008082815260200190815260200160002060010160009054906101000a900473ffffffffffffffffffffffffffffffffffffffff1673ffffffffffffffffffffffffffffffffffffffff163373ffffffffffffffffffffffffffffffffffffffff1614610527576040517f08c379a000000000000000000000000000000000000000000000000000000000815260040161051e90610a46565b60405180910390fd5b8160008082815260200190815260200160002060050160009054906101000a900460ff1661058a576040517f08c379a000000000000000000000000000000000000000000000000000000000815260040161058190610ab2565b60405180910390fd5b827f50ad08f58a27f2851d7e3a1b3a6a46b290f2ce677e99642d30ff639721e7779060405160405180910390a2505050565b8060008082815260200190815260200160002060050160009054906101000a900460ff1661061f576040517f08c379a000000000000000000000000000000000000000000000000000000000815260040161061690610ab2565b60405180910390fd5b600080600084815260200190815260200160002090508060030154341461067b576040517f08c379a000000000000000000000000000000000000000000000000000000000815260040161067290610b98565b60405180910390fd5b8060040160405180606001604052803373ffffffffffffffffffffffffffffffffffffffff16815260200160011515815260200134815250908060018154018082558091505060019003906000526020600020906002020160009091909190915060008201518160000160006101000a81548173ffffffffffffffffffffffffffffffffffffffff021916908373ffffffffffffffffffffffffffffffffffffffff16021790555060208201518160000160146101000a81548160ff021916908315150217905550604082015181600101555050348160020160008282546107639190610bb8565b925050819055503373ffffffffffffffffffffffffffffffffffffffff16837f87969bc7faf902221a147b95ceba76e011c5efb0339a0a8ee7a2bb82d9cfbbd660405160405180910390a3505050565b600080fd5b6000819050919050565b6107cb816107b8565b81146107d657600080fd5b50565b6000813590506107e8816107c2565b92915050565b600060208284031215610804576108036107b3565b5b6000610812848285016107d9565b91505092915050565b610824816107b8565b82525050565b600073ffffffffffffffffffffffffffffffffffffffff82169050919050565b60006108558261082a565b9050919050565b6108658161084a565b82525050565b60008115159050919050565b6108808161086b565b82525050565b600060a08201905061089b600083018861081b565b6108a8602083018761085c565b6108b5604083018661081b565b6108c2606083018561081b565b6108cf6080830184610877565b9695505050505050565b60006020820190506108ee600083018461081b565b92915050565b60006108ff8261082a565b9050919050565b61090f816108f4565b811461091a57600080fd5b50565b60008135905061092c81610906565b92915050565b60008060408385031215610949576109486107b3565b5b6000610957858286016107d9565b92505060206109688582860161091d565b9150509250929050565b7f4e487b7100000000000000000000000000000000000000000000000000000000600052601160045260246000fd5b60006109ac826107b8565b91507fffffffffffffffffffffffffffffffffffffffffffffffffffffffffffffffff82036109de576109dd610972565b5b600182019050919050565b600082825260208201905092915050565b7f4e6f7420746865206465616c6572000000000000000000000000000000000000600082015250565b6000610a30600e836109e9565b9150610a3b826109fa565b602082019050919050565b60006020820190508181036000830152610a5f81610a23565b9050919050565b7f47616d65206973206e6f74206163746976650000000000000000000000000000600082015250565b6000610a9c6012836109e9565b9150610aa782610a66565b602082019050919050565b60006020820190508181036000830152610acb81610a8f565b9050919050565b6000819050919050565b6000610af7610af2610aed8461082a565b610ad2565b61082a565b9050919050565b6000610b0982610adc565b9050919050565b6000610b1b82610afe565b9050919050565b610b2b81610b10565b82525050565b6000602082019050610b466000830184610b22565b92915050565b7f496e636f7272656374206275792d696e20616d6f756e74000000000000000000600082015250565b6000610b826017836109e9565b9150610b8d82610b4c565b602082019050919050565b60006020820190508181036000830152610bb181610b75565b9050919050565b6000610bc3826107b8565b9150610bce836107b8565b9250828201905080821115610be657610be5610972565b5b9291505056fea2646970667358221220087fdc87cf72af0f250f718fc3f89816a8a86cf62142dfa129d77c827aea06ac64736f6c634300081b0033",
  "linkReferences": {},
  "deployedLinkReferences": {}
}