{
  "_format": "hh-sol-artifact-1",
  "contractName": "Poker",
  "sourceName": "contracts/PokerContract.sol",
  "abi": [
    {
      "inputs": [],
      "stateMutability": "nonpayable",
      "type": "constructor"
    },
    {
      "anonymous": false,
      "inputs": [
        {
          "indexed": true,
          "internalType": "uint256",
          "name": "gameId",
          "type": "uint256"
        }
      ],
      "name": "CardsDealt",
      "type": "event"
    },
    {
      "anonymous": false,
      "inputs": [
        {
          "indexed": true,
          "internalType": "uint256",
          "name": "gameId",
          "type": "uint256"
        },
        {
          "indexed": false,
          "internalType": "uint8[]",
          "name": "cards",
          "type": "uint8[]"
        }
      ],
      "name": "CommunityCardsRevealed",
      "type": "event"
    },
    {
      "anonymous": false,
      "inputs": [
        {
          "indexed": true,
          "internalType": "uint256",
          "name": "gameId",
          "type": "uint256"
        },
        {
          "indexed": true,
          "internalType": "address",
          "name": "dealer",
          "type": "address"
        },
        {
          "indexed": false,
          "internalType": "uint256",
          "name": "buyIn",
          "type": "uint256"
        }
      ],
      "name": "GameCreated",
      "type": "event"
    },
    {
      "anonymous": false,
      "inputs": [
        {
          "indexed": true,
          "internalType": "uint256",
          "name": "gameId",
          "type": "uint256"
        },
        {
          "indexed": false,
          "internalType": "address",
          "name": "winner",
          "type": "address"
        }
      ],
      "name": "GameEnded",
      "type": "event"
    },
    {
      "anonymous": false,
      "inputs": [
        {
          "indexed": true,
          "internalType": "uint256",
          "name": "gameId",
          "type": "uint256"
        }
      ],
      "name": "GameStarted",
      "type": "event"
    },
    {
      "anonymous": false,
      "inputs": [
        {
          "indexed": true,
          "internalType": "uint256",
          "name": "gameId",
          "type": "uint256"
        },
        {
          "indexed": false,
          "internalType": "enum Poker.GameState",
          "name": "newState",
          "type": "uint8"
        }
      ],
      "name": "GameStateChanged",
      "type": "event"
    },
    {
      "anonymous": false,
      "inputs": [
        {
          "indexed": true,
          "internalType": "uint256",
          "name": "gameId",
          "type": "uint256"
        },
        {
          "indexed": true,
          "internalType": "address",
          "name": "player",
          "type": "address"
        },
        {
          "indexed": false,
          "internalType": "string",
          "name": "action",
          "type": "string"
        },
        {
          "indexed": false,
          "internalType": "uint256",
          "name": "amount",
          "type": "uint256"
        }
      ],
      "name": "PlayerAction",
      "type": "event"
    },
    {
      "anonymous": false,
      "inputs": [
        {
          "indexed": true,
          "internalType": "uint256",
          "name": "gameId",
          "type": "uint256"
        },
        {
          "indexed": true,
          "internalType": "address",
          "name": "player",
          "type": "address"
        },
        {
          "indexed": false,
          "internalType": "uint8[]",
          "name": "hand",
          "type": "uint8[]"
        }
      ],
      "name": "PlayerHandRevealed",
      "type": "event"
    },
    {
      "anonymous": false,
      "inputs": [
        {
          "indexed": true,
          "internalType": "uint256",
          "name": "gameId",
          "type": "uint256"
        },
        {
          "indexed": true,
          "internalType": "address",
          "name": "player",
          "type": "address"
        }
      ],
      "name": "PlayerJoined",
      "type": "event"
    },
    {
      "anonymous": false,
      "inputs": [
        {
          "indexed": true,
          "internalType": "uint256",
          "name": "gameId",
          "type": "uint256"
        },
        {
          "indexed": false,
          "internalType": "enum Poker.GameState",
          "name": "newState",
          "type": "uint8"
        }
      ],
      "name": "RoundEnded",
      "type": "event"
    },
    {
      "inputs": [
        {
          "internalType": "uint256",
          "name": "_gameId",
          "type": "uint256"
        },
        {
          "internalType": "uint256",
          "name": "_amount",
          "type": "uint256"
        }
      ],
      "name": "bet",
      "outputs": [],
      "stateMutability": "nonpayable",
      "type": "function"
    },
    {
      "inputs": [
        {
          "internalType": "uint256",
          "name": "_gameId",
          "type": "uint256"
        }
      ],
      "name": "call",
      "outputs": [],
      "stateMutability": "nonpayable",
      "type": "function"
    },
    {
      "inputs": [
        {
          "internalType": "uint256",
          "name": "_buyIn",
          "type": "uint256"
        }
      ],
      "name": "createGame",
      "outputs": [],
      "stateMutability": "nonpayable",
      "type": "function"
    },
    {
      "inputs": [
        {
          "internalType": "uint256",
          "name": "_gameId",
          "type": "uint256"
        }
      ],
      "name": "fold",
      "outputs": [],
      "stateMutability": "nonpayable",
      "type": "function"
    },
    {
      "inputs": [],
      "name": "gameCount",
      "outputs": [
        {
          "internalType": "uint256",
          "name": "",
          "type": "uint256"
        }
      ],
      "stateMutability": "view",
      "type": "function"
    },
    {
      "inputs": [
        {
          "internalType": "uint256",
          "name": "",
          "type": "uint256"
        }
      ],
      "name": "games",
      "outputs": [
        {
          "internalType": "uint256",
          "name": "gameId",
          "type": "uint256"
        },
        {
          "internalType": "address",
          "name": "dealer",
          "type": "address"
        },
        {
          "internalType": "uint256",
          "name": "pot",
          "type": "uint256"
        },
        {
          "internalType": "uint256",
          "name": "buyIn",
          "type": "uint256"
        },
        {
          "internalType": "bool",
          "name": "isActive",
          "type": "bool"
        },
        {
          "internalType": "uint256",
          "name": "currentBet",
          "type": "uint256"
        },
        {
          "internalType": "enum Poker.GameState",
          "name": "currentState",
          "type": "uint8"
        },
        {
          "internalType": "uint256",
          "name": "lastActionTimestamp",
          "type": "uint256"
        },
        {
          "internalType": "uint256",
          "name": "currentPlayerIndex",
          "type": "uint256"
        },
        {
          "internalType": "uint256",
          "name": "roundStartPlayerIndex",
          "type": "uint256"
        },
        {
          "internalType": "uint256",
          "name": "gameStartTime",
          "type": "uint256"
        },
        {
          "internalType": "uint256",
          "name": "roundEndTime",
          "type": "uint256"
        }
      ],
      "stateMutability": "view",
      "type": "function"
    },
    {
      "inputs": [
        {
          "internalType": "uint256",
          "name": "_gameId",
          "type": "uint256"
        }
      ],
      "name": "getCurrentState",
      "outputs": [
        {
          "internalType": "enum Poker.GameState",
          "name": "currentState",
          "type": "uint8"
        }
      ],
      "stateMutability": "view",
      "type": "function"
    },
    {
      "inputs": [
        {
          "internalType": "uint256",
          "name": "_gameId",
          "type": "uint256"
        }
      ],
      "name": "joinGame",
      "outputs": [],
      "stateMutability": "payable",
      "type": "function"
    },
    {
      "inputs": [
        {
          "internalType": "uint256",
          "name": "",
          "type": "uint256"
        },
        {
          "internalType": "address",
          "name": "",
          "type": "address"
        }
      ],
      "name": "players",
      "outputs": [
        {
          "internalType": "address payable",
          "name": "playerAddress",
          "type": "address"
        },
        {
          "internalType": "bool",
          "name": "isParticipating",
          "type": "bool"
        },
        {
          "internalType": "uint256",
          "name": "chips",
          "type": "uint256"
        },
        {
          "internalType": "bool",
          "name": "hasActed",
          "type": "bool"
        },
        {
          "internalType": "bool",
          "name": "showCards",
          "type": "bool"
        }
      ],
      "stateMutability": "view",
      "type": "function"
    },
    {
      "inputs": [
        {
          "internalType": "uint256",
          "name": "_gameId",
          "type": "uint256"
        },
        {
          "internalType": "uint256",
          "name": "_amount",
          "type": "uint256"
        }
      ],
      "name": "raise_",
      "outputs": [],
      "stateMutability": "nonpayable",
      "type": "function"
    },
    {
      "inputs": [
        {
          "internalType": "uint256",
          "name": "_gameId",
          "type": "uint256"
        }
      ],
      "name": "startGame",
      "outputs": [],
      "stateMutability": "nonpayable",
      "type": "function"
    }
  ],
  "bytecode": "0x6080604052348015600f57600080fd5b5060006002819055506000600360006101000a81548160ff021916908315150217905550614edf806100426000396000f3fe60806040526004361061009c5760003560e01c80635748c130116100645780635748c1301461018f5780636ffcc719146101cc578063bff7a00b146101f5578063c0f809211461021e578063e5ed1d591461025f578063efaa55a0146102885761009c565b8063117a5b90146100a15780632b096926146100e957806348e837b9146101125780634d1975b41461013b5780634ed66a0114610166575b600080fd5b3480156100ad57600080fd5b506100c860048036038101906100c39190612872565b6102a4565b6040516100e09c9b9a99989796959493929190612981565b60405180910390f35b3480156100f557600080fd5b50610110600480360381019061010b9190612872565b61033e565b005b34801561011e57600080fd5b5061013960048036038101906101349190612872565b610565565b005b34801561014757600080fd5b506101506106e3565b60405161015d9190612a3b565b60405180910390f35b34801561017257600080fd5b5061018d60048036038101906101889190612a56565b6106e9565b005b34801561019b57600080fd5b506101b660048036038101906101b19190612872565b610952565b6040516101c39190612a96565b60405180910390f35b3480156101d857600080fd5b506101f360048036038101906101ee9190612a56565b61097e565b005b34801561020157600080fd5b5061021c60048036038101906102179190612872565b610be7565b005b34801561022a57600080fd5b5061024560048036038101906102409190612add565b610da1565b604051610256959493929190612b3e565b60405180910390f35b34801561026b57600080fd5b5061028660048036038101906102819190612872565b610e2b565b005b6102a2600480360381019061029d9190612872565b61103b565b005b60006020528060005260406000206000915090508060000154908060010160009054906101000a900473ffffffffffffffffffffffffffffffffffffffff16908060020154908060030154908060050160009054906101000a900460ff16908060060154908060090160009054906101000a900460ff169080600a01549080600b01549080600c01549080600d01549080600e015490508c565b8060008082815260200190815260200160002060050160009054906101000a900460ff166103a1576040517f08c379a000000000000000000000000000000000000000000000000000000000815260040161039890612bee565b60405180910390fd5b816103ac81336112d6565b6103eb576040517f08c379a00000000000000000000000000000000000000000000000000000000081526004016103e290612c5a565b60405180910390fd5b6000806000858152602001908152602001600020905080600e01544210610447576040517f08c379a000000000000000000000000000000000000000000000000000000000815260040161043e90612cc6565b60405180910390fd5b600061045385336113dc565b90508160060154816001015410156104a0576040517f08c379a000000000000000000000000000000000000000000000000000000000815260040161049790612d32565b60405180910390fd5b600082600601549050808260010160008282546104bd9190612d81565b92505081905550808360020160008282546104d89190612db5565b925050819055504283600a018190555060018260030160006101000a81548160ff0219169083151502179055503373ffffffffffffffffffffffffffffffffffffffff16867ff3d4f57e05aae06b4017c0b2ed81f62aa6f19deef046d6a78ad2a4223858c4f08360405161054c9190612e35565b60405180910390a361055d866114fb565b505050505050565b600081116105a8576040517f08c379a000000000000000000000000000000000000000000000000000000000815260040161059f90612eaf565b60405180910390fd5b6001600260008282546105bb9190612db5565b925050819055506000806000600254815260200190815260200160002090506002548160000181905550338160010160006101000a81548173ffffffffffffffffffffffffffffffffffffffff021916908373ffffffffffffffffffffffffffffffffffffffff16021790555081816003018190555060018160050160006101000a81548160ff0219169083151502179055506000816006018190555060008160090160006101000a81548160ff021916908360048111156106805761067f61290a565b5b02179055504281600a01819055503373ffffffffffffffffffffffffffffffffffffffff166002547f7dfb67e9ff596fca4da65c7eedb128cd1aac553af54b3c0cb733625a2480d8bd846040516106d79190612a3b565b60405180910390a35050565b60025481565b8160008082815260200190815260200160002060050160009054906101000a900460ff1661074c576040517f08c379a000000000000000000000000000000000000000000000000000000000815260040161074390612bee565b60405180910390fd5b8261075781336112d6565b610796576040517f08c379a000000000000000000000000000000000000000000000000000000000815260040161078d90612c5a565b60405180910390fd5b6000806000868152602001908152602001600020905080600e015442106107f2576040517f08c379a00000000000000000000000000000000000000000000000000000000081526004016107e990612cc6565b60405180910390fd5b80600601548411610838576040517f08c379a000000000000000000000000000000000000000000000000000000000815260040161082f90612f41565b60405180910390fd5b600061084486336113dc565b9050848160010154101561088d576040517f08c379a000000000000000000000000000000000000000000000000000000000815260040161088490612fad565b60405180910390fd5b848260020160008282546108a19190612db5565b92505081905550848160010160008282546108bc9190612d81565b925050819055508482600601819055504282600a018190555060018160030160006101000a81548160ff0219169083151502179055503373ffffffffffffffffffffffffffffffffffffffff16867ff3d4f57e05aae06b4017c0b2ed81f62aa6f19deef046d6a78ad2a4223858c4f0876040516109399190613019565b60405180910390a361094a866114fb565b505050505050565b600080600083815260200190815260200160002060090160009054906101000a900460ff169050919050565b8160008082815260200190815260200160002060050160009054906101000a900460ff166109e1576040517f08c379a00000000000000000000000000000000000000000000000000000000081526004016109d890612bee565b60405180910390fd5b826109ec81336112d6565b610a2b576040517f08c379a0000000000000000000000000000000000000000000000000000000008152600401610a2290612c5a565b60405180910390fd5b6000806000868152602001908152602001600020905080600e01544210610a87576040517f08c379a0000000000000000000000000000000000000000000000000000000008152600401610a7e90612cc6565b60405180910390fd5b80600601548411610acd576040517f08c379a0000000000000000000000000000000000000000000000000000000008152600401610ac4906130b9565b60405180910390fd5b6000610ad986336113dc565b90508481600101541015610b22576040517f08c379a0000000000000000000000000000000000000000000000000000000008152600401610b1990613125565b60405180910390fd5b84826002016000828254610b369190612db5565b9250508190555084816001016000828254610b519190612d81565b925050819055508482600601819055504282600a018190555060018160030160006101000a81548160ff0219169083151502179055503373ffffffffffffffffffffffffffffffffffffffff16867ff3d4f57e05aae06b4017c0b2ed81f62aa6f19deef046d6a78ad2a4223858c4f087604051610bce9190613191565b60405180910390a3610bdf866114fb565b505050505050565b8060008082815260200190815260200160002060050160009054906101000a900460ff16610c4a576040517f08c379a0000000000000000000000000000000000000000000000000000000008152600401610c4190612bee565b60405180910390fd5b81610c5581336112d6565b610c94576040517f08c379a0000000000000000000000000000000000000000000000000000000008152600401610c8b90612c5a565b60405180910390fd5b6000806000858152602001908152602001600020905080600e01544210610cf0576040517f08c379a0000000000000000000000000000000000000000000000000000000008152600401610ce790612cc6565b60405180910390fd5b6000610cfc85336113dc565b905060008160000160146101000a81548160ff0219169083151502179055504282600a018190555060018160030160006101000a81548160ff0219169083151502179055503373ffffffffffffffffffffffffffffffffffffffff16857ff3d4f57e05aae06b4017c0b2ed81f62aa6f19deef046d6a78ad2a4223858c4f06000604051610d899190613250565b60405180910390a3610d9a856114fb565b5050505050565b6001602052816000526040600020602052806000526040600020600091509150508060000160009054906101000a900473ffffffffffffffffffffffffffffffffffffffff16908060000160149054906101000a900460ff16908060010154908060030160009054906101000a900460ff16908060030160019054906101000a900460ff16905085565b8060008082815260200190815260200160002060010160009054906101000a900473ffffffffffffffffffffffffffffffffffffffff1673ffffffffffffffffffffffffffffffffffffffff163373ffffffffffffffffffffffffffffffffffffffff1614610ecf576040517f08c379a0000000000000000000000000000000000000000000000000000000008152600401610ec6906132ca565b60405180910390fd5b8160008082815260200190815260200160002060050160009054906101000a900460ff16610f32576040517f08c379a0000000000000000000000000000000000000000000000000000000008152600401610f2990612bee565b60405180910390fd5b60008060008581526020019081526020016000209050600281600401805490501015610f93576040517f08c379a0000000000000000000000000000000000000000000000000000000008152600401610f8a9061335c565b60405180910390fd5b610f9c846115e0565b600081600b0181905550600081600c01819055504281600d018190555061025842610fc79190612db5565b81600e0181905550837f50ad08f58a27f2851d7e3a1b3a6a46b290f2ce677e99642d30ff639721e7779060405160405180910390a2837fb92fff70f4ba958693033f3e4e0baea37ae26d410410dcb011bb2f0ee7ba5bd1600060405161102d9190612a96565b60405180910390a250505050565b6000806000838152602001908152602001600020905080600301543414611097576040517f08c379a000000000000000000000000000000000000000000000000000000000815260040161108e906133c8565b60405180910390fd5b60038160040180549050106110e1576040517f08c379a00000000000000000000000000000000000000000000000000000000081526004016110d890613434565b60405180910390fd5b806004016040518060c001604052803373ffffffffffffffffffffffffffffffffffffffff168152602001600115158152602001348152602001600067ffffffffffffffff81111561113657611135613454565b5b6040519080825280602002602001820160405280156111645781602001602082028036833780820191505090505b50815260200160001515815260200160001515815250908060018154018082558091505060019003906000526020600020906004020160009091909190915060008201518160000160006101000a81548173ffffffffffffffffffffffffffffffffffffffff021916908373ffffffffffffffffffffffffffffffffffffffff16021790555060208201518160000160146101000a81548160ff021916908315150217905550604082015181600101556060820151816002019080519060200190611230929190612773565b5060808201518160030160006101000a81548160ff02191690831515021790555060a08201518160030160016101000a81548160ff0219169083151502179055505050348160020160008282546112879190612db5565b925050819055503373ffffffffffffffffffffffffffffffffffffffff16827f87969bc7faf902221a147b95ceba76e011c5efb0339a0a8ee7a2bb82d9cfbbd660405160405180910390a35050565b600080600080858152602001908152602001600020905060005b81600401805490508110156113cf578373ffffffffffffffffffffffffffffffffffffffff1682600401828154811061132c5761132b613483565b5b906000526020600020906004020160000160009054906101000a900473ffffffffffffffffffffffffffffffffffffffff1673ffffffffffffffffffffffffffffffffffffffff161480156113b2575081600401818154811061139257611391613483565b5b906000526020600020906004020160000160149054906101000a900460ff165b156113c2576001925050506113d6565b80806001019150506112f0565b5060009150505b92915050565b600080600080858152602001908152602001600020905060005b81600401805490508110156114b9578373ffffffffffffffffffffffffffffffffffffffff1682600401828154811061143257611431613483565b5b906000526020600020906004020160000160009054906101000a900473ffffffffffffffffffffffffffffffffffffffff1673ffffffffffffffffffffffffffffffffffffffff16036114ac5781600401818154811061149557611494613483565b5b9060005260206000209060040201925050506114f5565b80806001019150506113f6565b506040517f08c379a00000000000000000000000000000000000000000000000000000000081526004016114ec906134fe565b60405180910390fd5b92915050565b6000806000838152602001908152602001600020905060008160040180549050600183600b015461152c9190612db5565b611536919061354d565b90505b81600401818154811061154f5761154e613483565b5b906000526020600020906004020160000160149054906101000a900460ff166115985781600401805490506001826115879190612db5565b611591919061354d565b9050611539565b81600c01548114806115af57506115ae8361180d565b5b806115be575081600e01544210155b156115d1576115cc836118d2565b6115db565b8082600b01819055505b505050565b600080600083815260200190815260200160002090506115fe611b9c565b816007019080519060200190611615929190612773565b5061162281600701611c3b565b60005b81600401805490508110156117db5781600401818154811061164a57611649613483565b5b906000526020600020906004020160000160149054906101000a900460ff16156117ce57600267ffffffffffffffff81111561168957611688613454565b5b6040519080825280602002602001820160405280156116b75781602001602082028036833780820191505090505b508260040182815481106116ce576116cd613483565b5b906000526020600020906004020160020190805190602001906116f2929190612773565b506116fc82611da9565b82600401828154811061171257611711613483565b5b906000526020600020906004020160020160008154811061173657611735613483565b5b90600052602060002090602091828204019190066101000a81548160ff021916908360ff16021790555061176982611da9565b82600401828154811061177f5761177e613483565b5b90600052602060002090600402016002016001815481106117a3576117a2613483565b5b90600052602060002090602091828204019190066101000a81548160ff021916908360ff1602179055505b8080600101915050611625565b50817f3b54117fc881ff244eef1480d834bc0a1cc974076b145521c0c86e0c7851f7b860405160405180910390a25050565b600080600080848152602001908152602001600020905060005b81600401805490508110156118c65781600401818154811061184c5761184b613483565b5b906000526020600020906004020160000160149054906101000a900460ff1680156118a9575081600401818154811061188857611887613483565b5b906000526020600020906004020160030160009054906101000a900460ff16155b156118b9576000925050506118cd565b8080600101915050611827565b5060019150505b919050565b60008060008381526020019081526020016000209050600060048111156118fc576118fb61290a565b5b8160090160009054906101000a900460ff1660048111156119205761191f61290a565b5b0361196d5760018160090160006101000a81548160ff0219169083600481111561194d5761194c61290a565b5b021790555061195d816003611e88565b611968826003611efa565b611afc565b600160048111156119815761198061290a565b5b8160090160009054906101000a900460ff1660048111156119a5576119a461290a565b5b036119f25760028160090160006101000a81548160ff021916908360048111156119d2576119d161290a565b5b02179055506119e2816001611e88565b6119ed826004611efa565b611afb565b60026004811115611a0657611a0561290a565b5b8160090160009054906101000a900460ff166004811115611a2a57611a2961290a565b5b03611a775760038160090160006101000a81548160ff02191690836004811115611a5757611a5661290a565b5b0217905550611a67816001611e88565b611a72826005611efa565b611afa565b60036004811115611a8b57611a8a61290a565b5b8160090160009054906101000a900460ff166004811115611aaf57611aae61290a565b5b03611af95760048160090160006101000a81548160ff02191690836004811115611adc57611adb61290a565b5b0217905550611aea8261206d565b611af38261217b565b50611b99565b5b5b5b817fb92fff70f4ba958693033f3e4e0baea37ae26d410410dcb011bb2f0ee7ba5bd18260090160009054906101000a900460ff16604051611b3d9190612a96565b60405180910390a2817f3502d30ceab9ef8edf9d697a529b00029efc90f8f0e5876067615e91f30a655c8260090160009054906101000a900460ff16604051611b869190612a96565b60405180910390a2611b97826122d9565b505b50565b60606000603467ffffffffffffffff811115611bbb57611bba613454565b5b604051908082528060200260200182016040528015611be95781602001602082028036833780820191505090505b50905060005b60348160ff161015611c335780828260ff1681518110611c1257611c11613483565b5b602002602001019060ff16908160ff16815250508080600101915050611bef565b508091505090565b6000818054905090506000600182611c539190612d81565b90505b6000811115611da4576000600182611c6e9190612db5565b444286604051602001611c8393929190614319565b6040516020818303038152906040528051906020012060001c611ca6919061354d565b9050838181548110611cbb57611cba613483565b5b90600052602060002090602091828204019190069054906101000a900460ff16848381548110611cee57611ced613483565b5b90600052602060002090602091828204019190069054906101000a900460ff16858481548110611d2157611d20613483565b5b9060005260206000209060209182820401919006878581548110611d4857611d47613483565b5b90600052602060002090602091828204019190068491906101000a81548160ff021916908360ff1602179055508391906101000a81548160ff021916908360ff1602179055505050508080611d9c90614352565b915050611c56565b505050565b600080826007018054905011611df4576040517f08c379a0000000000000000000000000000000000000000000000000000000008152600401611deb906143c7565b60405180910390fd5b60008260070160018460070180549050611e0e9190612d81565b81548110611e1f57611e1e613483565b5b90600052602060002090602091828204019190069054906101000a900460ff16905082600701805480611e5557611e546143e7565b5b60019003818190600052602060002090602091828204019190066101000a81549060ff0219169055905580915050919050565b60005b8160ff168160ff161015611ef55782600801611ea684611da9565b90806001815401808255809150506001900390600052602060002090602091828204019190069091909190916101000a81548160ff021916908360ff1602179055508080600101915050611e8b565b505050565b6000806000848152602001908152602001600020905080600801805490508260ff161115611f5d576040517f08c379a0000000000000000000000000000000000000000000000000000000008152600401611f5490614488565b60405180910390fd5b60008260ff1667ffffffffffffffff811115611f7c57611f7b613454565b5b604051908082528060200260200182016040528015611faa5781602001602082028036833780820191505090505b50905060005b8360ff168160ff16101561202e57826008018160ff1681548110611fd757611fd6613483565b5b90600052602060002090602091828204019190069054906101000a900460ff16828260ff168151811061200d5761200c613483565b5b602002602001019060ff16908160ff16815250508080600101915050611fb0565b50837f0a2b20519fcbbefa5c61f08c1e4ce977e58f4a76fb58bdf792c7932b52f4c6ef8260405161205f9190614566565b60405180910390a250505050565b6000806000838152602001908152602001600020905060005b81600401805490508110156121765760008260040182815481106120ad576120ac613483565b5b906000526020600020906004020190508060000160149054906101000a900460ff16156121685760018160030160016101000a81548160ff0219169083151502179055508060000160009054906101000a900473ffffffffffffffffffffffffffffffffffffffff1673ffffffffffffffffffffffffffffffffffffffff16847ff86b89950822a93362fe357442a81cc48eacaff3abb2292da3e0ac3a6b6233a68360020160405161215f9190614dee565b60405180910390a35b508080600101915050612086565b505050565b600080600083815260200190815260200160002090508060050160009054906101000a900460ff166121e2576040517f08c379a00000000000000000000000000000000000000000000000000000000081526004016121d990612bee565b60405180910390fd5b60008160050160006101000a81548160ff021916908315150217905550600061220a836123e6565b9050600073ffffffffffffffffffffffffffffffffffffffff168173ffffffffffffffffffffffffffffffffffffffff161461229c57600082600201549050600083600201819055508173ffffffffffffffffffffffffffffffffffffffff166108fc829081150290604051600060405180830381858888f19350505050158015612299573d6000803e3d6000fd5b50505b827f3d5fcd8fa3235aeb3897f25c8ea49989174981afcb01b9d03189d1056a16775b826040516122cc9190614e65565b60405180910390a2505050565b60008060008381526020019081526020016000209050600081600601819055508060040180549050600182600c01546123129190612db5565b61231c919061354d565b81600c018190555080600c015481600b01819055506102584261233f9190612db5565b81600e018190555060005b81600401805490508110156123e15781600401818154811061236f5761236e613483565b5b906000526020600020906004020160000160149054906101000a900460ff16156123d45760008260040182815481106123ab576123aa613483565b5b906000526020600020906004020160030160006101000a81548160ff0219169083151502179055505b808060010191505061234a565b505050565b60008060008084815260200190815260200160002090506000806000905060005b836004018054905081101561259657600084600401828154811061242e5761242d613483565b5b906000526020600020906004020190508060000160149054906101000a900460ff1615612588576000612551826002018054806020026020016040519081016040528092919081815260200182805480156124ce57602002820191906000526020600020906000905b82829054906101000a900460ff1660ff16815260200190600101906020826000010492830192600103820291508084116124975790505b50505050508760080180548060200260200160405190810160405280929190818152602001828054801561254757602002820191906000526020600020906000905b82829054906101000a900460ff1660ff16815260200190600101906020826000010492830192600103820291508084116125105790505b50505050506125a2565b905083811115612586578093508160000160009054906101000a900473ffffffffffffffffffffffffffffffffffffffff1694505b505b508080600101915050612407565b50819350505050919050565b600080825184516125b39190612db5565b67ffffffffffffffff8111156125cc576125cb613454565b5b6040519080825280602002602001820160405280156125fa5781602001602082028036833780820191505090505b50905060005b84518160ff16101561266757848160ff168151811061262257612621613483565b5b6020026020010151828260ff16815181106126405761263f613483565b5b602002602001019060ff16908160ff1681525050808061265f90614e80565b915050612600565b5060005b83518160ff1610156126de57838160ff168151811061268d5761268c613483565b5b6020026020010151828260ff1687516126a69190612db5565b815181106126b7576126b6613483565b5b602002602001019060ff16908160ff168152505080806126d690614e80565b91505061266b565b506126e8816126f1565b91505092915050565b6000806000905060005b83518160ff161015612766578160ff16848260ff168151811061272157612720613483565b5b602002602001015160ff16111561275357838160ff168151811061274857612747613483565b5b602002602001015191505b808061275e90614e80565b9150506126fb565b508060ff16915050919050565b82805482825590600052602060002090601f016020900481019282156128095791602002820160005b838211156127da57835183826101000a81548160ff021916908360ff160217905550926020019260010160208160000104928301926001030261279c565b80156128075782816101000a81549060ff02191690556001016020816000010492830192600103026127da565b505b509050612816919061281a565b5090565b5b8082111561283357600081600090555060010161281b565b5090565b600080fd5b6000819050919050565b61284f8161283c565b811461285a57600080fd5b50565b60008135905061286c81612846565b92915050565b60006020828403121561288857612887612837565b5b60006128968482850161285d565b91505092915050565b6128a88161283c565b82525050565b600073ffffffffffffffffffffffffffffffffffffffff82169050919050565b60006128d9826128ae565b9050919050565b6128e9816128ce565b82525050565b60008115159050919050565b612904816128ef565b82525050565b7f4e487b7100000000000000000000000000000000000000000000000000000000600052602160045260246000fd5b6005811061294a5761294961290a565b5b50565b600081905061295b82612939565b919050565b600061296b8261294d565b9050919050565b61297b81612960565b82525050565b600061018082019050612997600083018f61289f565b6129a4602083018e6128e0565b6129b1604083018d61289f565b6129be606083018c61289f565b6129cb608083018b6128fb565b6129d860a083018a61289f565b6129e560c0830189612972565b6129f260e083018861289f565b612a0061010083018761289f565b612a0e61012083018661289f565b612a1c61014083018561289f565b612a2a61016083018461289f565b9d9c50505050505050505050505050565b6000602082019050612a50600083018461289f565b92915050565b60008060408385031215612a6d57612a6c612837565b5b6000612a7b8582860161285d565b9250506020612a8c8582860161285d565b9150509250929050565b6000602082019050612aab6000830184612972565b92915050565b612aba816128ce565b8114612ac557600080fd5b50565b600081359050612ad781612ab1565b92915050565b60008060408385031215612af457612af3612837565b5b6000612b028582860161285d565b9250506020612b1385828601612ac8565b9150509250929050565b6000612b28826128ae565b9050919050565b612b3881612b1d565b82525050565b600060a082019050612b536000830188612b2f565b612b6060208301876128fb565b612b6d604083018661289f565b612b7a60608301856128fb565b612b8760808301846128fb565b9695505050505050565b600082825260208201905092915050565b7f47616d65206973206e6f74206163746976650000000000000000000000000000600082015250565b6000612bd8601283612b91565b9150612be382612ba2565b602082019050919050565b60006020820190508181036000830152612c0781612bcb565b9050919050565b7f4e6f7420612070617274696369706174696e6720706c61796572000000000000600082015250565b6000612c44601a83612b91565b9150612c4f82612c0e565b602082019050919050565b60006020820190508181036000830152612c7381612c37565b9050919050565b7f526f756e642068617320656e6465640000000000000000000000000000000000600082015250565b6000612cb0600f83612b91565b9150612cbb82612c7a565b602082019050919050565b60006020820190508181036000830152612cdf81612ca3565b9050919050565b7f4e6f7420656e6f75676820636869707320746f2063616c6c0000000000000000600082015250565b6000612d1c601883612b91565b9150612d2782612ce6565b602082019050919050565b60006020820190508181036000830152612d4b81612d0f565b9050919050565b7f4e487b7100000000000000000000000000000000000000000000000000000000600052601160045260246000fd5b6000612d8c8261283c565b9150612d978361283c565b9250828203905081811115612daf57612dae612d52565b5b92915050565b6000612dc08261283c565b9150612dcb8361283c565b9250828201905080821115612de357612de2612d52565b5b92915050565b7f43616c6c00000000000000000000000000000000000000000000000000000000600082015250565b6000612e1f600483612b91565b9150612e2a82612de9565b602082019050919050565b60006040820190508181036000830152612e4e81612e12565b9050612e5d602083018461289f565b92915050565b7f4275792d696e206d7573742062652067726561746572207468616e207a65726f600082015250565b6000612e99602083612b91565b9150612ea482612e63565b602082019050919050565b60006020820190508181036000830152612ec881612e8c565b9050919050565b7f5261697365206d75737420626520686967686572207468616e2063757272656e60008201527f7420626574000000000000000000000000000000000000000000000000000000602082015250565b6000612f2b602583612b91565b9150612f3682612ecf565b604082019050919050565b60006020820190508181036000830152612f5a81612f1e565b9050919050565b7f4e6f7420656e6f75676820636869707320746f20726169736500000000000000600082015250565b6000612f97601983612b91565b9150612fa282612f61565b602082019050919050565b60006020820190508181036000830152612fc681612f8a565b9050919050565b7f5261697365000000000000000000000000000000000000000000000000000000600082015250565b6000613003600583612b91565b915061300e82612fcd565b602082019050919050565b6000604082019050818103600083015261303281612ff6565b9050613041602083018461289f565b92915050565b7f426574206d75737420626520686967686572207468616e2063757272656e742060008201527f6265740000000000000000000000000000000000000000000000000000000000602082015250565b60006130a3602383612b91565b91506130ae82613047565b604082019050919050565b600060208201905081810360008301526130d281613096565b9050919050565b7f4e6f7420656e6f75676820636869707300000000000000000000000000000000600082015250565b600061310f601083612b91565b915061311a826130d9565b602082019050919050565b6000602082019050818103600083015261313e81613102565b9050919050565b7f4265740000000000000000000000000000000000000000000000000000000000600082015250565b600061317b600383612b91565b915061318682613145565b602082019050919050565b600060408201905081810360008301526131aa8161316e565b90506131b9602083018461289f565b92915050565b7f466f6c6400000000000000000000000000000000000000000000000000000000600082015250565b60006131f5600483612b91565b9150613200826131bf565b602082019050919050565b6000819050919050565b6000819050919050565b600061323a6132356132308461320b565b613215565b61283c565b9050919050565b61324a8161321f565b82525050565b60006040820190508181036000830152613269816131e8565b90506132786020830184613241565b92915050565b7f4e6f7420746865206465616c6572000000000000000000000000000000000000600082015250565b60006132b4600e83612b91565b91506132bf8261327e565b602082019050919050565b600060208201905081810360008301526132e3816132a7565b9050919050565b7f4e6f7420656e6f75676820706c617965727320746f207374617274207468652060008201527f67616d6500000000000000000000000000000000000000000000000000000000602082015250565b6000613346602483612b91565b9150613351826132ea565b604082019050919050565b6000602082019050818103600083015261337581613339565b9050919050565b7f496e636f7272656374206275792d696e20616d6f756e74000000000000000000600082015250565b60006133b2601783612b91565b91506133bd8261337c565b602082019050919050565b600060208201905081810360008301526133e1816133a5565b9050919050565b7f47616d652069732066756c6c0000000000000000000000000000000000000000600082015250565b600061341e600c83612b91565b9150613429826133e8565b602082019050919050565b6000602082019050818103600083015261344d81613411565b9050919050565b7f4e487b7100000000000000000000000000000000000000000000000000000000600052604160045260246000fd5b7f4e487b7100000000000000000000000000000000000000000000000000000000600052603260045260246000fd5b7f506c61796572206e6f7420666f756e6400000000000000000000000000000000600082015250565b60006134e8601083612b91565b91506134f3826134b2565b602082019050919050565b60006020820190508181036000830152613517816134db565b9050919050565b7f4e487b7100000000000000000000000000000000000000000000000000000000600052601260045260246000fd5b60006135588261283c565b91506135638361283c565b9250826135735761357261351e565b5b828206905092915050565b6000819050919050565b6135996135948261283c565b61357e565b82525050565b600081549050919050565b600081905092915050565b60008190508160005260206000209050919050565b600060ff82169050919050565b6135e0816135ca565b82525050565b60008160001c9050919050565b600060ff82169050919050565b600061361361360e836135e6565b6135f3565b9050919050565b60008160081c9050919050565b600061363a6136358361361a565b6135f3565b9050919050565b60008160101c9050919050565b600061366161365c83613641565b6135f3565b9050919050565b60008160181c9050919050565b600061368861368383613668565b6135f3565b9050919050565b60008160201c9050919050565b60006136af6136aa8361368f565b6135f3565b9050919050565b60008160281c9050919050565b60006136d66136d1836136b6565b6135f3565b9050919050565b60008160301c9050919050565b60006136fd6136f8836136dd565b6135f3565b9050919050565b60008160381c9050919050565b600061372461371f83613704565b6135f3565b9050919050565b60008160401c9050919050565b600061374b6137468361372b565b6135f3565b9050919050565b60008160481c9050919050565b600061377261376d83613752565b6135f3565b9050919050565b60008160501c9050919050565b600061379961379483613779565b6135f3565b9050919050565b60008160581c9050919050565b60006137c06137bb836137a0565b6135f3565b9050919050565b60008160601c9050919050565b60006137e76137e2836137c7565b6135f3565b9050919050565b60008160681c9050919050565b600061380e613809836137ee565b6135f3565b9050919050565b60008160701c9050919050565b600061383561383083613815565b6135f3565b9050919050565b60008160781c9050919050565b600061385c6138578361383c565b6135f3565b9050919050565b60008160801c9050919050565b600061388361387e83613863565b6135f3565b9050919050565b60008160881c9050919050565b60006138aa6138a58361388a565b6135f3565b9050919050565b60008160901c9050919050565b60006138d16138cc836138b1565b6135f3565b9050919050565b60008160981c9050919050565b60006138f86138f3836138d8565b6135f3565b9050919050565b60008160a01c9050919050565b600061391f61391a836138ff565b6135f3565b9050919050565b60008160a81c9050919050565b600061394661394183613926565b6135f3565b9050919050565b60008160b01c9050919050565b600061396d6139688361394d565b6135f3565b9050919050565b60008160b81c9050919050565b600061399461398f83613974565b6135f3565b9050919050565b60008160c01c9050919050565b60006139bb6139b68361399b565b6135f3565b9050919050565b60008160c81c9050919050565b60006139e26139dd836139c2565b6135f3565b9050919050565b60008160d01c9050919050565b6000613a09613a04836139e9565b6135f3565b9050919050565b60008160d81c9050919050565b6000613a30613a2b83613a10565b6135f3565b9050919050565b60008160e01c9050919050565b6000613a57613a5283613a37565b6135f3565b9050919050565b60008160e81c9050919050565b6000613a7e613a7983613a5e565b6135f3565b9050919050565b60008160f01c9050919050565b6000613aa5613aa083613a85565b6135f3565b9050919050565b60008160f81c9050919050565b6000613acc613ac783613aac565b6135f3565b9050919050565b6000613ade8261359f565b613ae881856135aa565b935083613af4846135b5565b6000600115613e21575b83600160200382011015613e20578154613b2088613b1b83613600565b6135d7565b602088019750613b3888613b3383613627565b6135d7565b602088019750613b5088613b4b8361364e565b6135d7565b602088019750613b6888613b6383613675565b6135d7565b602088019750613b8088613b7b8361369c565b6135d7565b602088019750613b9888613b93836136c3565b6135d7565b602088019750613bb088613bab836136ea565b6135d7565b602088019750613bc888613bc383613711565b6135d7565b602088019750613be088613bdb83613738565b6135d7565b602088019750613bf888613bf38361375f565b6135d7565b602088019750613c1088613c0b83613786565b6135d7565b602088019750613c2888613c23836137ad565b6135d7565b602088019750613c4088613c3b836137d4565b6135d7565b602088019750613c5888613c53836137fb565b6135d7565b602088019750613c7088613c6b83613822565b6135d7565b602088019750613c8888613c8383613849565b6135d7565b602088019750613ca088613c9b83613870565b6135d7565b602088019750613cb888613cb383613897565b6135d7565b602088019750613cd088613ccb836138be565b6135d7565b602088019750613ce888613ce3836138e5565b6135d7565b602088019750613d0088613cfb8361390c565b6135d7565b602088019750613d1888613d1383613933565b6135d7565b602088019750613d3088613d2b8361395a565b6135d7565b602088019750613d4888613d4383613981565b6135d7565b602088019750613d6088613d5b836139a8565b6135d7565b602088019750613d7888613d73836139cf565b6135d7565b602088019750613d9088613d8b836139f6565b6135d7565b602088019750613da888613da383613a1d565b6135d7565b602088019750613dc088613dbb83613a44565b6135d7565b602088019750613dd888613dd383613a6b565b6135d7565b602088019750613df088613deb83613a92565b6135d7565b602088019750613e0888613e0383613ab9565b6135d7565b60208801975060018301925050602081019050613afe565b5b60011561430c57815484821015613e5157613e4488613e3f83613600565b6135d7565b6020880197506001820191505b84821015613e7857613e6b88613e6683613627565b6135d7565b6020880197506001820191505b84821015613e9f57613e9288613e8d8361364e565b6135d7565b6020880197506001820191505b84821015613ec657613eb988613eb483613675565b6135d7565b6020880197506001820191505b84821015613eed57613ee088613edb8361369c565b6135d7565b6020880197506001820191505b84821015613f1457613f0788613f02836136c3565b6135d7565b6020880197506001820191505b84821015613f3b57613f2e88613f29836136ea565b6135d7565b6020880197506001820191505b84821015613f6257613f5588613f5083613711565b6135d7565b6020880197506001820191505b84821015613f8957613f7c88613f7783613738565b6135d7565b6020880197506001820191505b84821015613fb057613fa388613f9e8361375f565b6135d7565b6020880197506001820191505b84821015613fd757613fca88613fc583613786565b6135d7565b6020880197506001820191505b84821015613ffe57613ff188613fec836137ad565b6135d7565b6020880197506001820191505b848210156140255761401888614013836137d4565b6135d7565b6020880197506001820191505b8482101561404c5761403f8861403a836137fb565b6135d7565b6020880197506001820191505b84821015614073576140668861406183613822565b6135d7565b6020880197506001820191505b8482101561409a5761408d8861408883613849565b6135d7565b6020880197506001820191505b848210156140c1576140b4886140af83613870565b6135d7565b6020880197506001820191505b848210156140e8576140db886140d683613897565b6135d7565b6020880197506001820191505b8482101561410f57614102886140fd836138be565b6135d7565b6020880197506001820191505b848210156141365761412988614124836138e5565b6135d7565b6020880197506001820191505b8482101561415d576141508861414b8361390c565b6135d7565b6020880197506001820191505b84821015614184576141778861417283613933565b6135d7565b6020880197506001820191505b848210156141ab5761419e886141998361395a565b6135d7565b6020880197506001820191505b848210156141d2576141c5886141c083613981565b6135d7565b6020880197506001820191505b848210156141f9576141ec886141e7836139a8565b6135d7565b6020880197506001820191505b84821015614220576142138861420e836139cf565b6135d7565b6020880197506001820191505b848210156142475761423a88614235836139f6565b6135d7565b6020880197506001820191505b8482101561426e576142618861425c83613a1d565b6135d7565b6020880197506001820191505b84821015614295576142888861428383613a44565b6135d7565b6020880197506001820191505b848210156142bc576142af886142aa83613a6b565b6135d7565b6020880197506001820191505b848210156142e3576142d6886142d183613a92565b6135d7565b6020880197506001820191505b8482101561430a576142fd886142f883613ab9565b6135d7565b6020880197506001820191505b505b8694505050505092915050565b60006143258286613588565b6020820191506143358285613588565b6020820191506143458284613ad3565b9150819050949350505050565b600061435d8261283c565b9150600082036143705761436f612d52565b5b600182039050919050565b7f4e6f206361726473206c65667420746f206465616c0000000000000000000000600082015250565b60006143b1601583612b91565b91506143bc8261437b565b602082019050919050565b600060208201905081810360008301526143e0816143a4565b9050919050565b7f4e487b7100000000000000000000000000000000000000000000000000000000600052603160045260246000fd5b7f4e6f7420656e6f75676820636f6d6d756e69747920636172647320746f20726560008201527f7665616c00000000000000000000000000000000000000000000000000000000602082015250565b6000614472602483612b91565b915061447d82614416565b604082019050919050565b600060208201905081810360008301526144a181614465565b9050919050565b600081519050919050565b600082825260208201905092915050565b6000819050602082019050919050565b6144dd816135ca565b82525050565b60006144ef83836144d4565b60208301905092915050565b6000602082019050919050565b6000614513826144a8565b61451d81856144b3565b9350614528836144c4565b8060005b8381101561455957815161454088826144e3565b975061454b836144fb565b92505060018101905061452c565b5085935050505092915050565b600060208201905081810360008301526145808184614508565b905092915050565b600081549050919050565b60008190508160005260206000209050919050565b60006145b382614588565b6145bd81856144b3565b9350836145c984614593565b60006001156148f6575b836001602003820110156148f55781546145f5886145f083613600565b6144d4565b60208801975061460d8861460883613627565b6144d4565b602088019750614625886146208361364e565b6144d4565b60208801975061463d8861463883613675565b6144d4565b602088019750614655886146508361369c565b6144d4565b60208801975061466d88614668836136c3565b6144d4565b60208801975061468588614680836136ea565b6144d4565b60208801975061469d8861469883613711565b6144d4565b6020880197506146b5886146b083613738565b6144d4565b6020880197506146cd886146c88361375f565b6144d4565b6020880197506146e5886146e083613786565b6144d4565b6020880197506146fd886146f8836137ad565b6144d4565b60208801975061471588614710836137d4565b6144d4565b60208801975061472d88614728836137fb565b6144d4565b6020880197506147458861474083613822565b6144d4565b60208801975061475d8861475883613849565b6144d4565b6020880197506147758861477083613870565b6144d4565b60208801975061478d8861478883613897565b6144d4565b6020880197506147a5886147a0836138be565b6144d4565b6020880197506147bd886147b8836138e5565b6144d4565b6020880197506147d5886147d08361390c565b6144d4565b6020880197506147ed886147e883613933565b6144d4565b602088019750614805886148008361395a565b6144d4565b60208801975061481d8861481883613981565b6144d4565b60208801975061483588614830836139a8565b6144d4565b60208801975061484d88614848836139cf565b6144d4565b60208801975061486588614860836139f6565b6144d4565b60208801975061487d8861487883613a1d565b6144d4565b6020880197506148958861489083613a44565b6144d4565b6020880197506148ad886148a883613a6b565b6144d4565b6020880197506148c5886148c083613a92565b6144d4565b6020880197506148dd886148d883613ab9565b6144d4565b602088019750600183019250506020810190506145d3565b5b600115614de157815484821015614926576149198861491483613600565b6144d4565b6020880197506001820191505b8482101561494d576149408861493b83613627565b6144d4565b6020880197506001820191505b8482101561497457614967886149628361364e565b6144d4565b6020880197506001820191505b8482101561499b5761498e8861498983613675565b6144d4565b6020880197506001820191505b848210156149c2576149b5886149b08361369c565b6144d4565b6020880197506001820191505b848210156149e9576149dc886149d7836136c3565b6144d4565b6020880197506001820191505b84821015614a1057614a03886149fe836136ea565b6144d4565b6020880197506001820191505b84821015614a3757614a2a88614a2583613711565b6144d4565b6020880197506001820191505b84821015614a5e57614a5188614a4c83613738565b6144d4565b6020880197506001820191505b84821015614a8557614a7888614a738361375f565b6144d4565b6020880197506001820191505b84821015614aac57614a9f88614a9a83613786565b6144d4565b6020880197506001820191505b84821015614ad357614ac688614ac1836137ad565b6144d4565b6020880197506001820191505b84821015614afa57614aed88614ae8836137d4565b6144d4565b6020880197506001820191505b84821015614b2157614b1488614b0f836137fb565b6144d4565b6020880197506001820191505b84821015614b4857614b3b88614b3683613822565b6144d4565b6020880197506001820191505b84821015614b6f57614b6288614b5d83613849565b6144d4565b6020880197506001820191505b84821015614b9657614b8988614b8483613870565b6144d4565b6020880197506001820191505b84821015614bbd57614bb088614bab83613897565b6144d4565b6020880197506001820191505b84821015614be457614bd788614bd2836138be565b6144d4565b6020880197506001820191505b84821015614c0b57614bfe88614bf9836138e5565b6144d4565b6020880197506001820191505b84821015614c3257614c2588614c208361390c565b6144d4565b6020880197506001820191505b84821015614c5957614c4c88614c4783613933565b6144d4565b6020880197506001820191505b84821015614c8057614c7388614c6e8361395a565b6144d4565b6020880197506001820191505b84821015614ca757614c9a88614c9583613981565b6144d4565b6020880197506001820191505b84821015614cce57614cc188614cbc836139a8565b6144d4565b6020880197506001820191505b84821015614cf557614ce888614ce3836139cf565b6144d4565b6020880197506001820191505b84821015614d1c57614d0f88614d0a836139f6565b6144d4565b6020880197506001820191505b84821015614d4357614d3688614d3183613a1d565b6144d4565b6020880197506001820191505b84821015614d6a57614d5d88614d5883613a44565b6144d4565b6020880197506001820191505b84821015614d9157614d8488614d7f83613a6b565b6144d4565b6020880197506001820191505b84821015614db857614dab88614da683613a92565b6144d4565b6020880197506001820191505b84821015614ddf57614dd288614dcd83613ab9565b6144d4565b6020880197506001820191505b505b8694505050505092915050565b60006020820190508181036000830152614e0881846145a8565b905092915050565b6000614e2b614e26614e21846128ae565b613215565b6128ae565b9050919050565b6000614e3d82614e10565b9050919050565b6000614e4f82614e32565b9050919050565b614e5f81614e44565b82525050565b6000602082019050614e7a6000830184614e56565b92915050565b6000614e8b826135ca565b915060ff8203614e9e57614e9d612d52565b5b60018201905091905056fea2646970667358221220cfd269ff4e31ee2bd63221c2e8d7819d4a282b61202844554fc0b2ca5aa29c2464736f6c634300081b0033",
  "linkReferences": {},
  "deployedLinkReferences": {}
}