{
  "_format": "hh-sol-artifact-1",
  "contractName": "Poker",
  "sourceName": "contracts/PokerContract.sol",
  "abi": [
    {
      "inputs": [],
      "stateMutability": "nonpayable",
      "type": "constructor"
    },
    {
      "anonymous": false,
      "inputs": [
        {
          "indexed": true,
          "internalType": "uint256",
          "name": "gameId",
          "type": "uint256"
        }
      ],
      "name": "CardsDealt",
      "type": "event"
    },
    {
      "anonymous": false,
      "inputs": [
        {
          "indexed": true,
          "internalType": "uint256",
          "name": "gameId",
          "type": "uint256"
        },
        {
          "indexed": false,
          "internalType": "uint8[]",
          "name": "cards",
          "type": "uint8[]"
        }
      ],
      "name": "CommunityCardsRevealed",
      "type": "event"
    },
    {
      "anonymous": false,
      "inputs": [
        {
          "indexed": true,
          "internalType": "uint256",
          "name": "gameId",
          "type": "uint256"
        },
        {
          "indexed": true,
          "internalType": "address",
          "name": "dealer",
          "type": "address"
        },
        {
          "indexed": false,
          "internalType": "uint256",
          "name": "buyIn",
          "type": "uint256"
        }
      ],
      "name": "GameCreated",
      "type": "event"
    },
    {
      "anonymous": false,
      "inputs": [
        {
          "indexed": true,
          "internalType": "uint256",
          "name": "gameId",
          "type": "uint256"
        },
        {
          "indexed": false,
          "internalType": "address",
          "name": "winner",
          "type": "address"
        },
        {
          "indexed": false,
          "internalType": "uint256",
          "name": "winningAmount",
          "type": "uint256"
        }
      ],
      "name": "GameEnded",
      "type": "event"
    },
    {
      "anonymous": false,
      "inputs": [
        {
          "indexed": true,
          "internalType": "uint256",
          "name": "gameId",
          "type": "uint256"
        }
      ],
      "name": "GameStarted",
      "type": "event"
    },
    {
      "anonymous": false,
      "inputs": [
        {
          "indexed": true,
          "internalType": "uint256",
          "name": "gameId",
          "type": "uint256"
        },
        {
          "indexed": false,
          "internalType": "enum Poker.GameState",
          "name": "newState",
          "type": "uint8"
        }
      ],
      "name": "GameStateChanged",
      "type": "event"
    },
    {
      "anonymous": false,
      "inputs": [
        {
          "indexed": true,
          "internalType": "uint256",
          "name": "gameId",
          "type": "uint256"
        },
        {
          "indexed": true,
          "internalType": "address",
          "name": "player",
          "type": "address"
        },
        {
          "indexed": false,
          "internalType": "string",
          "name": "action",
          "type": "string"
        },
        {
          "indexed": false,
          "internalType": "uint256",
          "name": "amount",
          "type": "uint256"
        }
      ],
      "name": "PlayerAction",
      "type": "event"
    },
    {
      "anonymous": false,
      "inputs": [
        {
          "indexed": true,
          "internalType": "uint256",
          "name": "gameId",
          "type": "uint256"
        },
        {
          "indexed": true,
          "internalType": "address",
          "name": "player",
          "type": "address"
        },
        {
          "indexed": false,
          "internalType": "uint8[]",
          "name": "hand",
          "type": "uint8[]"
        }
      ],
      "name": "PlayerHandRevealed",
      "type": "event"
    },
    {
      "anonymous": false,
      "inputs": [
        {
          "indexed": true,
          "internalType": "uint256",
          "name": "gameId",
          "type": "uint256"
        },
        {
          "indexed": true,
          "internalType": "address",
          "name": "player",
          "type": "address"
        }
      ],
      "name": "PlayerJoined",
      "type": "event"
    },
    {
      "anonymous": false,
      "inputs": [
        {
          "indexed": true,
          "internalType": "uint256",
          "name": "gameId",
          "type": "uint256"
        },
        {
          "indexed": false,
          "internalType": "enum Poker.GameState",
          "name": "newState",
          "type": "uint8"
        }
      ],
      "name": "RoundEnded",
      "type": "event"
    },
    {
      "inputs": [
        {
          "internalType": "uint256",
          "name": "_gameId",
          "type": "uint256"
        },
        {
          "internalType": "uint256",
          "name": "_amount",
          "type": "uint256"
        }
      ],
      "name": "bet",
      "outputs": [],
      "stateMutability": "nonpayable",
      "type": "function"
    },
    {
      "inputs": [
        {
          "internalType": "uint256",
          "name": "_gameId",
          "type": "uint256"
        }
      ],
      "name": "call",
      "outputs": [],
      "stateMutability": "nonpayable",
      "type": "function"
    },
    {
      "inputs": [
        {
          "internalType": "uint256",
          "name": "_buyIn",
          "type": "uint256"
        }
      ],
      "name": "createGame",
      "outputs": [],
      "stateMutability": "nonpayable",
      "type": "function"
    },
    {
      "inputs": [
        {
          "internalType": "uint256",
          "name": "_gameId",
          "type": "uint256"
        }
      ],
      "name": "fold",
      "outputs": [],
      "stateMutability": "nonpayable",
      "type": "function"
    },
    {
      "inputs": [],
      "name": "gameCount",
      "outputs": [
        {
          "internalType": "uint256",
          "name": "",
          "type": "uint256"
        }
      ],
      "stateMutability": "view",
      "type": "function"
    },
    {
      "inputs": [
        {
          "internalType": "uint256",
          "name": "",
          "type": "uint256"
        }
      ],
      "name": "games",
      "outputs": [
        {
          "internalType": "uint256",
          "name": "gameId",
          "type": "uint256"
        },
        {
          "internalType": "address",
          "name": "dealer",
          "type": "address"
        },
        {
          "internalType": "uint256",
          "name": "pot",
          "type": "uint256"
        },
        {
          "internalType": "uint256",
          "name": "buyIn",
          "type": "uint256"
        },
        {
          "internalType": "bool",
          "name": "isActive",
          "type": "bool"
        },
        {
          "internalType": "uint256",
          "name": "currentBet",
          "type": "uint256"
        },
        {
          "internalType": "enum Poker.GameState",
          "name": "currentState",
          "type": "uint8"
        },
        {
          "internalType": "uint256",
          "name": "lastActionTimestamp",
          "type": "uint256"
        },
        {
          "internalType": "uint256",
          "name": "currentPlayerIndex",
          "type": "uint256"
        },
        {
          "internalType": "uint256",
          "name": "roundStartPlayerIndex",
          "type": "uint256"
        },
        {
          "internalType": "uint256",
          "name": "gameStartTime",
          "type": "uint256"
        },
        {
          "internalType": "uint256",
          "name": "roundEndTime",
          "type": "uint256"
        }
      ],
      "stateMutability": "view",
      "type": "function"
    },
    {
      "inputs": [
        {
          "internalType": "uint256",
          "name": "_gameId",
          "type": "uint256"
        }
      ],
      "name": "getCommunityCards",
      "outputs": [
        {
          "internalType": "uint8[]",
          "name": "",
          "type": "uint8[]"
        }
      ],
      "stateMutability": "view",
      "type": "function"
    },
    {
      "inputs": [
        {
          "internalType": "uint256",
          "name": "_gameId",
          "type": "uint256"
        },
        {
          "internalType": "address",
          "name": "_playerAddress",
          "type": "address"
        }
      ],
      "name": "getPlayerCards",
      "outputs": [
        {
          "internalType": "uint8[]",
          "name": "",
          "type": "uint8[]"
        }
      ],
      "stateMutability": "view",
      "type": "function"
    },
    {
      "inputs": [
        {
          "internalType": "uint256",
          "name": "_gameId",
          "type": "uint256"
        }
      ],
      "name": "joinGame",
      "outputs": [],
      "stateMutability": "payable",
      "type": "function"
    },
    {
      "inputs": [
        {
          "internalType": "uint256",
          "name": "",
          "type": "uint256"
        },
        {
          "internalType": "address",
          "name": "",
          "type": "address"
        }
      ],
      "name": "players",
      "outputs": [
        {
          "internalType": "address payable",
          "name": "playerAddress",
          "type": "address"
        },
        {
          "internalType": "bool",
          "name": "isParticipating",
          "type": "bool"
        },
        {
          "internalType": "uint256",
          "name": "chips",
          "type": "uint256"
        },
        {
          "internalType": "bool",
          "name": "hasActed",
          "type": "bool"
        },
        {
          "internalType": "bool",
          "name": "showCards",
          "type": "bool"
        }
      ],
      "stateMutability": "view",
      "type": "function"
    },
    {
      "inputs": [
        {
          "internalType": "uint256",
          "name": "_gameId",
          "type": "uint256"
        }
      ],
      "name": "startGame",
      "outputs": [],
      "stateMutability": "nonpayable",
      "type": "function"
    }
  ],
  "bytecode": "0x6080604052348015600f57600080fd5b5060006002819055506000600360006101000a81548160ff021916908315150217905550615cff806100426000396000f3fe60806040526004361061009c5760003560e01c80636ffcc719116100645780636ffcc719146101a3578063bff7a00b146101cc578063c0f80921146101f5578063c653c9a114610236578063e5ed1d5914610273578063efaa55a01461029c5761009c565b8063100e0035146100a1578063117a5b90146100de5780632b0969261461012657806348e837b91461014f5780634d1975b414610178575b600080fd5b3480156100ad57600080fd5b506100c860048036038101906100c391906136a0565b6102b8565b6040516100d59190613798565b60405180910390f35b3480156100ea57600080fd5b50610105600480360381019061010091906136a0565b61034b565b60405161011d9c9b9a9998979695949392919061389c565b60405180910390f35b34801561013257600080fd5b5061014d600480360381019061014891906136a0565b6103e5565b005b34801561015b57600080fd5b50610176600480360381019061017191906136a0565b6106de565b005b34801561018457600080fd5b5061018d61085c565b60405161019a9190613956565b60405180910390f35b3480156101af57600080fd5b506101ca60048036038101906101c59190613971565b610862565b005b3480156101d857600080fd5b506101f360048036038101906101ee91906136a0565b610b9d565b005b34801561020157600080fd5b5061021c600480360381019061021791906139dd565b610e29565b60405161022d959493929190613a3e565b60405180910390f35b34801561024257600080fd5b5061025d600480360381019061025891906139dd565b610eb3565b60405161026a9190613798565b60405180910390f35b34801561027f57600080fd5b5061029a600480360381019061029591906136a0565b6110bf565b005b6102b660048036038101906102b191906136a0565b6111c6565b005b606060008083815260200190815260200160002060080180548060200260200160405190810160405280929190818152602001828054801561033f57602002820191906000526020600020906000905b82829054906101000a900460ff1660ff16815260200190600101906020826000010492830192600103820291508084116103085790505b50505050509050919050565b60006020528060005260406000206000915090508060000154908060010160009054906101000a900473ffffffffffffffffffffffffffffffffffffffff16908060020154908060030154908060050160009054906101000a900460ff16908060060154908060090160009054906101000a900460ff169080600a01549080600b01549080600c01549080600d01549080600e015490508c565b80600080600083815260200190815260200160002090508060040181600b01548154811061041657610415613a91565b5b906000526020600020906004020160000160009054906101000a900473ffffffffffffffffffffffffffffffffffffffff1673ffffffffffffffffffffffffffffffffffffffff163373ffffffffffffffffffffffffffffffffffffffff16146104b5576040517f08c379a00000000000000000000000000000000000000000000000000000000081526004016104ac90613b1d565b60405180910390fd5b8260008082815260200190815260200160002060050160009054906101000a900460ff16610518576040517f08c379a000000000000000000000000000000000000000000000000000000000815260040161050f90613b89565b60405180910390fd5b836105238133611462565b610562576040517f08c379a000000000000000000000000000000000000000000000000000000000815260040161055990613bf5565b60405180910390fd5b6000806000878152602001908152602001600020905080600e015442106105be576040517f08c379a00000000000000000000000000000000000000000000000000000000081526004016105b590613c61565b60405180910390fd5b60006105ca8733611568565b9050816006015481600101541015610617576040517f08c379a000000000000000000000000000000000000000000000000000000000815260040161060e90613ccd565b60405180910390fd5b600082600601549050808260010160008282546106349190613d1c565b925050819055508083600201600082825461064f9190613d50565b925050819055504283600a018190555060018260030160006101000a81548160ff0219169083151502179055503373ffffffffffffffffffffffffffffffffffffffff16887ff3d4f57e05aae06b4017c0b2ed81f62aa6f19deef046d6a78ad2a4223858c4f0836040516106c39190613dd0565b60405180910390a36106d488611687565b5050505050505050565b60008111610721576040517f08c379a000000000000000000000000000000000000000000000000000000000815260040161071890613e4a565b60405180910390fd5b6001600260008282546107349190613d50565b925050819055506000806000600254815260200190815260200160002090506002548160000181905550338160010160006101000a81548173ffffffffffffffffffffffffffffffffffffffff021916908373ffffffffffffffffffffffffffffffffffffffff16021790555081816003018190555060018160050160006101000a81548160ff0219169083151502179055506000816006018190555060008160090160006101000a81548160ff021916908360048111156107f9576107f8613825565b5b02179055504281600a01819055503373ffffffffffffffffffffffffffffffffffffffff166002547f7dfb67e9ff596fca4da65c7eedb128cd1aac553af54b3c0cb733625a2480d8bd846040516108509190613956565b60405180910390a35050565b60025481565b81600080600083815260200190815260200160002090508060040181600b01548154811061089357610892613a91565b5b906000526020600020906004020160000160009054906101000a900473ffffffffffffffffffffffffffffffffffffffff1673ffffffffffffffffffffffffffffffffffffffff163373ffffffffffffffffffffffffffffffffffffffff1614610932576040517f08c379a000000000000000000000000000000000000000000000000000000000815260040161092990613b1d565b60405180910390fd5b8360008082815260200190815260200160002060050160009054906101000a900460ff16610995576040517f08c379a000000000000000000000000000000000000000000000000000000000815260040161098c90613b89565b60405180910390fd5b846109a08133611462565b6109df576040517f08c379a00000000000000000000000000000000000000000000000000000000081526004016109d690613bf5565b60405180910390fd5b6000806000888152602001908152602001600020905080600e01544210610a3b576040517f08c379a0000000000000000000000000000000000000000000000000000000008152600401610a3290613c61565b60405180910390fd5b80600601548611610a81576040517f08c379a0000000000000000000000000000000000000000000000000000000008152600401610a7890613edc565b60405180910390fd5b6000610a8d8833611568565b90508681600101541015610ad6576040517f08c379a0000000000000000000000000000000000000000000000000000000008152600401610acd90613f48565b60405180910390fd5b86826002016000828254610aea9190613d50565b9250508190555086816001016000828254610b059190613d1c565b925050819055508682600601819055504282600a018190555060018160030160006101000a81548160ff0219169083151502179055503373ffffffffffffffffffffffffffffffffffffffff16887ff3d4f57e05aae06b4017c0b2ed81f62aa6f19deef046d6a78ad2a4223858c4f089604051610b829190613fb4565b60405180910390a3610b9388611687565b5050505050505050565b80600080600083815260200190815260200160002090508060040181600b015481548110610bce57610bcd613a91565b5b906000526020600020906004020160000160009054906101000a900473ffffffffffffffffffffffffffffffffffffffff1673ffffffffffffffffffffffffffffffffffffffff163373ffffffffffffffffffffffffffffffffffffffff1614610c6d576040517f08c379a0000000000000000000000000000000000000000000000000000000008152600401610c6490613b1d565b60405180910390fd5b8260008082815260200190815260200160002060050160009054906101000a900460ff16610cd0576040517f08c379a0000000000000000000000000000000000000000000000000000000008152600401610cc790613b89565b60405180910390fd5b83610cdb8133611462565b610d1a576040517f08c379a0000000000000000000000000000000000000000000000000000000008152600401610d1190613bf5565b60405180910390fd5b6000806000878152602001908152602001600020905080600e01544210610d76576040517f08c379a0000000000000000000000000000000000000000000000000000000008152600401610d6d90613c61565b60405180910390fd5b6000610d828733611568565b905060008160000160146101000a81548160ff0219169083151502179055504282600a018190555060018160030160006101000a81548160ff0219169083151502179055503373ffffffffffffffffffffffffffffffffffffffff16877ff3d4f57e05aae06b4017c0b2ed81f62aa6f19deef046d6a78ad2a4223858c4f06000604051610e0f9190614073565b60405180910390a3610e2087611687565b50505050505050565b6001602052816000526040600020602052806000526040600020600091509150508060000160009054906101000a900473ffffffffffffffffffffffffffffffffffffffff16908060000160149054906101000a900460ff16908060010154908060030160009054906101000a900460ff16908060030160019054906101000a900460ff16905085565b60606000806000858152602001908152602001600020905060005b816004018054905081101561107d578373ffffffffffffffffffffffffffffffffffffffff16826004018281548110610f0a57610f09613a91565b5b906000526020600020906004020160000160009054906101000a900473ffffffffffffffffffffffffffffffffffffffff1673ffffffffffffffffffffffffffffffffffffffff160361107057816004018181548110610f6d57610f6c613a91565b5b906000526020600020906004020160000160149054906101000a900460ff16610fcb576040517f08c379a0000000000000000000000000000000000000000000000000000000008152600401610fc290614113565b60405180910390fd5b816004018181548110610fe157610fe0613a91565b5b906000526020600020906004020160020180548060200260200160405190810160405280929190818152602001828054801561106257602002820191906000526020600020906000905b82829054906101000a900460ff1660ff168152602001906001019060208260000104928301926001038202915080841161102b5790505b5050505050925050506110b9565b8080600101915050610ece565b506040517f08c379a00000000000000000000000000000000000000000000000000000000081526004016110b09061417f565b60405180910390fd5b92915050565b60008060008381526020019081526020016000209050600281600401805490501015611120576040517f08c379a000000000000000000000000000000000000000000000000000000000815260040161111790614211565b60405180910390fd5b6111298261176c565b600081600b0181905550600081600c01819055504281600d0181905550610258426111549190613d50565b81600e0181905550817f50ad08f58a27f2851d7e3a1b3a6a46b290f2ce677e99642d30ff639721e7779060405160405180910390a2817fb92fff70f4ba958693033f3e4e0baea37ae26d410410dcb011bb2f0ee7ba5bd160006040516111ba9190614231565b60405180910390a25050565b600080600083815260200190815260200160002090508060030154341015611223576040517f08c379a000000000000000000000000000000000000000000000000000000000815260040161121a90614298565b60405180910390fd5b600381600401805490501061126d576040517f08c379a000000000000000000000000000000000000000000000000000000000815260040161126490614304565b60405180910390fd5b806004016040518060c001604052803373ffffffffffffffffffffffffffffffffffffffff168152602001600115158152602001348152602001600067ffffffffffffffff8111156112c2576112c1614324565b5b6040519080825280602002602001820160405280156112f05781602001602082028036833780820191505090505b50815260200160001515815260200160001515815250908060018154018082558091505060019003906000526020600020906004020160009091909190915060008201518160000160006101000a81548173ffffffffffffffffffffffffffffffffffffffff021916908373ffffffffffffffffffffffffffffffffffffffff16021790555060208201518160000160146101000a81548160ff0219169083151502179055506040820151816001015560608201518160020190805190602001906113bc9291906135a1565b5060808201518160030160006101000a81548160ff02191690831515021790555060a08201518160030160016101000a81548160ff0219169083151502179055505050348160020160008282546114139190613d50565b925050819055503373ffffffffffffffffffffffffffffffffffffffff16827f87969bc7faf902221a147b95ceba76e011c5efb0339a0a8ee7a2bb82d9cfbbd660405160405180910390a35050565b600080600080858152602001908152602001600020905060005b816004018054905081101561155b578373ffffffffffffffffffffffffffffffffffffffff168260040182815481106114b8576114b7613a91565b5b906000526020600020906004020160000160009054906101000a900473ffffffffffffffffffffffffffffffffffffffff1673ffffffffffffffffffffffffffffffffffffffff1614801561153e575081600401818154811061151e5761151d613a91565b5b906000526020600020906004020160000160149054906101000a900460ff165b1561154e57600192505050611562565b808060010191505061147c565b5060009150505b92915050565b600080600080858152602001908152602001600020905060005b8160040180549050811015611645578373ffffffffffffffffffffffffffffffffffffffff168260040182815481106115be576115bd613a91565b5b906000526020600020906004020160000160009054906101000a900473ffffffffffffffffffffffffffffffffffffffff1673ffffffffffffffffffffffffffffffffffffffff16036116385781600401818154811061162157611620613a91565b5b906000526020600020906004020192505050611681565b8080600101915050611582565b506040517f08c379a00000000000000000000000000000000000000000000000000000000081526004016116789061439f565b60405180910390fd5b92915050565b6000806000838152602001908152602001600020905060008160040180549050600183600b01546116b89190613d50565b6116c291906143ee565b90505b8160040181815481106116db576116da613a91565b5b906000526020600020906004020160000160149054906101000a900460ff166117245781600401805490506001826117139190613d50565b61171d91906143ee565b90506116c5565b81600c015481148061173b575061173a83611999565b5b8061174a575081600e01544210155b1561175d5761175883611a5e565b611767565b8082600b01819055505b505050565b6000806000838152602001908152602001600020905061178a611d28565b8160070190805190602001906117a19291906135a1565b506117ae81600701611dc7565b60005b8160040180549050811015611967578160040181815481106117d6576117d5613a91565b5b906000526020600020906004020160000160149054906101000a900460ff161561195a57600267ffffffffffffffff81111561181557611814614324565b5b6040519080825280602002602001820160405280156118435781602001602082028036833780820191505090505b5082600401828154811061185a57611859613a91565b5b9060005260206000209060040201600201908051906020019061187e9291906135a1565b5061188882611f35565b82600401828154811061189e5761189d613a91565b5b90600052602060002090600402016002016000815481106118c2576118c1613a91565b5b90600052602060002090602091828204019190066101000a81548160ff021916908360ff1602179055506118f582611f35565b82600401828154811061190b5761190a613a91565b5b906000526020600020906004020160020160018154811061192f5761192e613a91565b5b90600052602060002090602091828204019190066101000a81548160ff021916908360ff1602179055505b80806001019150506117b1565b50817f3b54117fc881ff244eef1480d834bc0a1cc974076b145521c0c86e0c7851f7b860405160405180910390a25050565b600080600080848152602001908152602001600020905060005b8160040180549050811015611a52578160040181815481106119d8576119d7613a91565b5b906000526020600020906004020160000160149054906101000a900460ff168015611a355750816004018181548110611a1457611a13613a91565b5b906000526020600020906004020160030160009054906101000a900460ff16155b15611a4557600092505050611a59565b80806001019150506119b3565b5060019150505b919050565b6000806000838152602001908152602001600020905060006004811115611a8857611a87613825565b5b8160090160009054906101000a900460ff166004811115611aac57611aab613825565b5b03611af95760018160090160006101000a81548160ff02191690836004811115611ad957611ad8613825565b5b0217905550611ae9816003612014565b611af4826003612086565b611c88565b60016004811115611b0d57611b0c613825565b5b8160090160009054906101000a900460ff166004811115611b3157611b30613825565b5b03611b7e5760028160090160006101000a81548160ff02191690836004811115611b5e57611b5d613825565b5b0217905550611b6e816001612014565b611b79826004612086565b611c87565b60026004811115611b9257611b91613825565b5b8160090160009054906101000a900460ff166004811115611bb657611bb5613825565b5b03611c035760038160090160006101000a81548160ff02191690836004811115611be357611be2613825565b5b0217905550611bf3816001612014565b611bfe826005612086565b611c86565b60036004811115611c1757611c16613825565b5b8160090160009054906101000a900460ff166004811115611c3b57611c3a613825565b5b03611c855760048160090160006101000a81548160ff02191690836004811115611c6857611c67613825565b5b0217905550611c76826121f9565b611c7f82612307565b50611d25565b5b5b5b817fb92fff70f4ba958693033f3e4e0baea37ae26d410410dcb011bb2f0ee7ba5bd18260090160009054906101000a900460ff16604051611cc99190614231565b60405180910390a2817f3502d30ceab9ef8edf9d697a529b00029efc90f8f0e5876067615e91f30a655c8260090160009054906101000a900460ff16604051611d129190614231565b60405180910390a2611d23826124a7565b505b50565b60606000603467ffffffffffffffff811115611d4757611d46614324565b5b604051908082528060200260200182016040528015611d755781602001602082028036833780820191505090505b50905060005b60348160ff161015611dbf5780828260ff1681518110611d9e57611d9d613a91565b5b602002602001019060ff16908160ff16815250508080600101915050611d7b565b508091505090565b6000818054905090506000600182611ddf9190613d1c565b90505b6000811115611f30576000600182611dfa9190613d50565b444286604051602001611e0f939291906151ad565b6040516020818303038152906040528051906020012060001c611e3291906143ee565b9050838181548110611e4757611e46613a91565b5b90600052602060002090602091828204019190069054906101000a900460ff16848381548110611e7a57611e79613a91565b5b90600052602060002090602091828204019190069054906101000a900460ff16858481548110611ead57611eac613a91565b5b9060005260206000209060209182820401919006878581548110611ed457611ed3613a91565b5b90600052602060002090602091828204019190068491906101000a81548160ff021916908360ff1602179055508391906101000a81548160ff021916908360ff1602179055505050508080611f28906151e6565b915050611de2565b505050565b600080826007018054905011611f80576040517f08c379a0000000000000000000000000000000000000000000000000000000008152600401611f779061525b565b60405180910390fd5b60008260070160018460070180549050611f9a9190613d1c565b81548110611fab57611faa613a91565b5b90600052602060002090602091828204019190069054906101000a900460ff16905082600701805480611fe157611fe061527b565b5b60019003818190600052602060002090602091828204019190066101000a81549060ff0219169055905580915050919050565b60005b8160ff168160ff161015612081578260080161203284611f35565b90806001815401808255809150506001900390600052602060002090602091828204019190069091909190916101000a81548160ff021916908360ff1602179055508080600101915050612017565b505050565b6000806000848152602001908152602001600020905080600801805490508260ff1611156120e9576040517f08c379a00000000000000000000000000000000000000000000000000000000081526004016120e09061531c565b60405180910390fd5b60008260ff1667ffffffffffffffff81111561210857612107614324565b5b6040519080825280602002602001820160405280156121365781602001602082028036833780820191505090505b50905060005b8360ff168160ff1610156121ba57826008018160ff168154811061216357612162613a91565b5b90600052602060002090602091828204019190069054906101000a900460ff16828260ff168151811061219957612198613a91565b5b602002602001019060ff16908160ff1681525050808060010191505061213c565b50837f0a2b20519fcbbefa5c61f08c1e4ce977e58f4a76fb58bdf792c7932b52f4c6ef826040516121eb9190613798565b60405180910390a250505050565b6000806000838152602001908152602001600020905060005b816004018054905081101561230257600082600401828154811061223957612238613a91565b5b906000526020600020906004020190508060000160149054906101000a900460ff16156122f45760018160030160016101000a81548160ff0219169083151502179055508060000160009054906101000a900473ffffffffffffffffffffffffffffffffffffffff1673ffffffffffffffffffffffffffffffffffffffff16847ff86b89950822a93362fe357442a81cc48eacaff3abb2292da3e0ac3a6b6233a6836002016040516122eb9190615ba2565b60405180910390a35b508080600101915050612212565b505050565b600080600083815260200190815260200160002090508060050160009054906101000a900460ff1661236e576040517f08c379a000000000000000000000000000000000000000000000000000000000815260040161236590613b89565b60405180910390fd5b60008160050160006101000a81548160ff0219169083151502179055506000612396836125b4565b9050600073ffffffffffffffffffffffffffffffffffffffff168173ffffffffffffffffffffffffffffffffffffffff161461246657600082600201549050600083600201819055508173ffffffffffffffffffffffffffffffffffffffff166108fc829081150290604051600060405180830381858888f19350505050158015612425573d6000803e3d6000fd5b50837ff1898de79c348962fab7695532341027e5bceb0ea2a8785790fa7d7efeeee1298383604051612458929190615c19565b60405180910390a2506124a2565b827ff1898de79c348962fab7695532341027e5bceb0ea2a8785790fa7d7efeeee129600080604051612499929190615c42565b60405180910390a25b505050565b60008060008381526020019081526020016000209050600081600601819055508060040180549050600182600c01546124e09190613d50565b6124ea91906143ee565b81600c018190555080600c015481600b01819055506102584261250d9190613d50565b81600e018190555060005b81600401805490508110156125af5781600401818154811061253d5761253c613a91565b5b906000526020600020906004020160000160149054906101000a900460ff16156125a257600082600401828154811061257957612578613a91565b5b906000526020600020906004020160030160006101000a81548160ff0219169083151502179055505b8080600101915050612518565b505050565b60008060008084815260200190815260200160002090506000806000905060005b83600401805490508110156127645760008460040182815481106125fc576125fb613a91565b5b906000526020600020906004020190508060000160149054906101000a900460ff161561275657600061271f8260020180548060200260200160405190810160405280929190818152602001828054801561269c57602002820191906000526020600020906000905b82829054906101000a900460ff1660ff16815260200190600101906020826000010492830192600103820291508084116126655790505b50505050508760080180548060200260200160405190810160405280929190818152602001828054801561271557602002820191906000526020600020906000905b82829054906101000a900460ff1660ff16815260200190600101906020826000010492830192600103820291508084116126de5790505b5050505050612770565b905083811115612754578093508160000160009054906101000a900473ffffffffffffffffffffffffffffffffffffffff1694505b505b5080806001019150506125d5565b50819350505050919050565b600080825184516127819190613d50565b67ffffffffffffffff81111561279a57612799614324565b5b6040519080825280602002602001820160405280156127c85781602001602082028036833780820191505090505b50905060005b84518160ff16101561283557848160ff16815181106127f0576127ef613a91565b5b6020026020010151828260ff168151811061280e5761280d613a91565b5b602002602001019060ff16908160ff1681525050808061282d90615c6b565b9150506127ce565b5060005b83518160ff1610156128ac57838160ff168151811061285b5761285a613a91565b5b6020026020010151828260ff1687516128749190613d50565b8151811061288557612884613a91565b5b602002602001019060ff16908160ff168152505080806128a490615c6b565b915050612839565b506128b6816128bf565b91505092915050565b600080600090505b600183516128d59190613d1c565b811015612a075760005b60018285516128ee9190613d1c565b6128f89190613d1c565b8110156129f957600f8460018361290f9190613d50565b815181106129205761291f613a91565b5b60200260200101511660ff16600f85838151811061294157612940613a91565b5b60200260200101511660ff1611156129ec57836001826129619190613d50565b8151811061297257612971613a91565b5b602002602001015184828151811061298d5761298c613a91565b5b60200260200101518583815181106129a8576129a7613a91565b5b60200260200101866001856129bd9190613d50565b815181106129ce576129cd613a91565b5b602002602001018260ff1660ff168152508260ff1660ff1681525050505b80806001019150506128df565b5080806001019150506128c7565b506000612a1383612f2f565b90506000612a2084612fb1565b9050818015612a2c5750805b15612a9c57600e600f85600481518110612a4957612a48613a91565b5b60200260200101511660ff1603612a675762a0000092505050612f2a565b600f84600481518110612a7d57612a7c613a91565b5b60200260200101511660ff16629000001762ffffff1692505050612f2a565b612aa58461309a565b15612b0957600f84600481518110612ac057612abf613a91565b5b60200260200101511660ff166004600f86600281518110612ae457612ae3613a91565b5b60200260200101511660ff16901b60ff1662800000171762ffffff1692505050612f2a565b612b1284613134565b15612b7657600f84600481518110612b2d57612b2c613a91565b5b60200260200101511660ff166004600f86600281518110612b5157612b50613a91565b5b60200260200101511660ff16901b60ff1662700000171762ffffff1692505050612f2a565b8115612bb157600f84600481518110612b9257612b91613a91565b5b60200260200101511660ff16626000001762ffffff1692505050612f2a565b8015612bec57600f84600481518110612bcd57612bcc613a91565b5b60200260200101511660ff16625000001762ffffff1692505050612f2a565b612bf584613268565b15612c8357600f84600381518110612c1057612c0f613a91565b5b60200260200101511660ff166004600f86600481518110612c3457612c33613a91565b5b60200260200101511660ff16901b60ff166008600f87600281518110612c5d57612c5c613a91565b5b60200260200101511660ff16901b60ff166240000017171762ffffff1692505050612f2a565b612c8c8461334e565b15612d1a57600f84600481518110612ca757612ca6613a91565b5b60200260200101511660ff166004600f86600181518110612ccb57612cca613a91565b5b60200260200101511660ff16901b60ff166008600f87600381518110612cf457612cf3613a91565b5b60200260200101511660ff16901b60ff166230000017171762ffffff1692505050612f2a565b612d238461351b565b15612e51576000805b6004811015612dba57600f86600183612d459190613d50565b81518110612d5657612d55613a91565b5b60200260200101511660ff16600f878381518110612d7757612d76613a91565b5b60200260200101511660ff1603612dad57600f868281518110612d9d57612d9c613a91565b5b6020026020010151169150612dba565b8080600101915050612d2c565b50600f85600281518110612dd157612dd0613a91565b5b60200260200101511660ff166004600f87600381518110612df557612df4613a91565b5b60200260200101511660ff16901b60ff166008600f88600481518110612e1e57612e1d613a91565b5b60200260200101511660ff16901b60ff1660108460ff16901b60ff16622000001717171762ffffff169350505050612f2a565b600f84600081518110612e6757612e66613a91565b5b60200260200101511660ff166004600f86600181518110612e8b57612e8a613a91565b5b60200260200101511660ff16901b60ff166008600f87600281518110612eb457612eb3613a91565b5b60200260200101511660ff16901b60ff16600c600f88600381518110612edd57612edc613a91565b5b60200260200101511660ff16901b60ff166010600f89600481518110612f0657612f05613a91565b5b60200260200101511660ff16901b60ff1662100000171717171762ffffff16925050505b919050565b60008060f083600081518110612f4857612f47613a91565b5b60200260200101511690506000600190505b6005811015612fa5578160ff1660f0858381518110612f7c57612f7b613a91565b5b60200260200101511660ff1614612f9857600092505050612fac565b8080600101915050612f5a565b5060019150505b919050565b600080600f83600081518110612fca57612fc9613a91565b5b60200260200101511690506000600190505b600581101561308e576000600f858381518110612ffc57612ffb613a91565b5b60200260200101511690506001836130149190615c94565b60ff168160ff161461307d57600482148015613033575060058360ff16145b80156130605750600e600f8660008151811061305257613051613a91565b5b60200260200101511660ff16145b156130715760019350505050613095565b60009350505050613095565b809250508080600101915050612fdc565b5060019150505b919050565b6000600f826003815181106130b2576130b1613a91565b5b60200260200101511660ff16600f836000815181106130d4576130d3613a91565b5b60200260200101511660ff16148061312d5750600f826004815181106130fd576130fc613a91565b5b60200260200101511660ff16600f8360018151811061311f5761311e613a91565b5b60200260200101511660ff16145b9050919050565b6000600f8260028151811061314c5761314b613a91565b5b60200260200101511660ff16600f8360008151811061316e5761316d613a91565b5b60200260200101511660ff161480156131c85750600f8260048151811061319857613197613a91565b5b60200260200101511660ff16600f836003815181106131ba576131b9613a91565b5b60200260200101511660ff16145b806132615750600f826001815181106131e4576131e3613a91565b5b60200260200101511660ff16600f8360008151811061320657613205613a91565b5b60200260200101511660ff161480156132605750600f826004815181106132305761322f613a91565b5b60200260200101511660ff16600f8360028151811061325257613251613a91565b5b60200260200101511660ff16145b5b9050919050565b6000600f826002815181106132805761327f613a91565b5b60200260200101511660ff16600f836000815181106132a2576132a1613a91565b5b60200260200101511660ff1614806132fb5750600f826003815181106132cb576132ca613a91565b5b60200260200101511660ff16600f836001815181106132ed576132ec613a91565b5b60200260200101511660ff16145b806133475750600f8260048151811061331757613316613a91565b5b60200260200101511660ff16600f8360028151811061333957613338613a91565b5b60200260200101511660ff16145b9050919050565b6000600f8260018151811061336657613365613a91565b5b60200260200101511660ff16600f8360008151811061338857613387613a91565b5b60200260200101511660ff161480156133e25750600f826003815181106133b2576133b1613a91565b5b60200260200101511660ff16600f836002815181106133d4576133d3613a91565b5b60200260200101511660ff16145b8061347b5750600f826001815181106133fe576133fd613a91565b5b60200260200101511660ff16600f836000815181106134205761341f613a91565b5b60200260200101511660ff1614801561347a5750600f8260048151811061344a57613449613a91565b5b60200260200101511660ff16600f8360038151811061346c5761346b613a91565b5b60200260200101511660ff16145b5b806135145750600f8260028151811061349757613496613a91565b5b60200260200101511660ff16600f836001815181106134b9576134b8613a91565b5b60200260200101511660ff161480156135135750600f826004815181106134e3576134e2613a91565b5b60200260200101511660ff16600f8360038151811061350557613504613a91565b5b60200260200101511660ff16145b5b9050919050565b600080600090505b600481101561359657600f8360018361353c9190613d50565b8151811061354d5761354c613a91565b5b60200260200101511660ff16600f84838151811061356e5761356d613a91565b5b60200260200101511660ff160361358957600191505061359c565b8080600101915050613523565b50600090505b919050565b82805482825590600052602060002090601f016020900481019282156136375791602002820160005b8382111561360857835183826101000a81548160ff021916908360ff16021790555092602001926001016020816000010492830192600103026135ca565b80156136355782816101000a81549060ff0219169055600101602081600001049283019260010302613608565b505b5090506136449190613648565b5090565b5b80821115613661576000816000905550600101613649565b5090565b600080fd5b6000819050919050565b61367d8161366a565b811461368857600080fd5b50565b60008135905061369a81613674565b92915050565b6000602082840312156136b6576136b5613665565b5b60006136c48482850161368b565b91505092915050565b600081519050919050565b600082825260208201905092915050565b6000819050602082019050919050565b600060ff82169050919050565b61370f816136f9565b82525050565b60006137218383613706565b60208301905092915050565b6000602082019050919050565b6000613745826136cd565b61374f81856136d8565b935061375a836136e9565b8060005b8381101561378b5781516137728882613715565b975061377d8361372d565b92505060018101905061375e565b5085935050505092915050565b600060208201905081810360008301526137b2818461373a565b905092915050565b6137c38161366a565b82525050565b600073ffffffffffffffffffffffffffffffffffffffff82169050919050565b60006137f4826137c9565b9050919050565b613804816137e9565b82525050565b60008115159050919050565b61381f8161380a565b82525050565b7f4e487b7100000000000000000000000000000000000000000000000000000000600052602160045260246000fd5b6005811061386557613864613825565b5b50565b600081905061387682613854565b919050565b600061388682613868565b9050919050565b6138968161387b565b82525050565b6000610180820190506138b2600083018f6137ba565b6138bf602083018e6137fb565b6138cc604083018d6137ba565b6138d9606083018c6137ba565b6138e6608083018b613816565b6138f360a083018a6137ba565b61390060c083018961388d565b61390d60e08301886137ba565b61391b6101008301876137ba565b6139296101208301866137ba565b6139376101408301856137ba565b6139456101608301846137ba565b9d9c50505050505050505050505050565b600060208201905061396b60008301846137ba565b92915050565b6000806040838503121561398857613987613665565b5b60006139968582860161368b565b92505060206139a78582860161368b565b9150509250929050565b6139ba816137e9565b81146139c557600080fd5b50565b6000813590506139d7816139b1565b92915050565b600080604083850312156139f4576139f3613665565b5b6000613a028582860161368b565b9250506020613a13858286016139c8565b9150509250929050565b6000613a28826137c9565b9050919050565b613a3881613a1d565b82525050565b600060a082019050613a536000830188613a2f565b613a606020830187613816565b613a6d60408301866137ba565b613a7a6060830185613816565b613a876080830184613816565b9695505050505050565b7f4e487b7100000000000000000000000000000000000000000000000000000000600052603260045260246000fd5b600082825260208201905092915050565b7f4e6f7420796f7572207475726e00000000000000000000000000000000000000600082015250565b6000613b07600d83613ac0565b9150613b1282613ad1565b602082019050919050565b60006020820190508181036000830152613b3681613afa565b9050919050565b7f47616d65206973206e6f74206163746976650000000000000000000000000000600082015250565b6000613b73601283613ac0565b9150613b7e82613b3d565b602082019050919050565b60006020820190508181036000830152613ba281613b66565b9050919050565b7f4e6f7420612070617274696369706174696e6720706c61796572000000000000600082015250565b6000613bdf601a83613ac0565b9150613bea82613ba9565b602082019050919050565b60006020820190508181036000830152613c0e81613bd2565b9050919050565b7f526f756e642068617320656e6465640000000000000000000000000000000000600082015250565b6000613c4b600f83613ac0565b9150613c5682613c15565b602082019050919050565b60006020820190508181036000830152613c7a81613c3e565b9050919050565b7f4e6f7420656e6f75676820636869707320746f2063616c6c0000000000000000600082015250565b6000613cb7601883613ac0565b9150613cc282613c81565b602082019050919050565b60006020820190508181036000830152613ce681613caa565b9050919050565b7f4e487b7100000000000000000000000000000000000000000000000000000000600052601160045260246000fd5b6000613d278261366a565b9150613d328361366a565b9250828203905081811115613d4a57613d49613ced565b5b92915050565b6000613d5b8261366a565b9150613d668361366a565b9250828201905080821115613d7e57613d7d613ced565b5b92915050565b7f43616c6c00000000000000000000000000000000000000000000000000000000600082015250565b6000613dba600483613ac0565b9150613dc582613d84565b602082019050919050565b60006040820190508181036000830152613de981613dad565b9050613df860208301846137ba565b92915050565b7f4275792d696e206d7573742062652067726561746572207468616e207a65726f600082015250565b6000613e34602083613ac0565b9150613e3f82613dfe565b602082019050919050565b60006020820190508181036000830152613e6381613e27565b9050919050565b7f426574206d75737420626520686967686572207468616e2063757272656e742060008201527f6265740000000000000000000000000000000000000000000000000000000000602082015250565b6000613ec6602383613ac0565b9150613ed182613e6a565b604082019050919050565b60006020820190508181036000830152613ef581613eb9565b9050919050565b7f4e6f7420656e6f75676820636869707300000000000000000000000000000000600082015250565b6000613f32601083613ac0565b9150613f3d82613efc565b602082019050919050565b60006020820190508181036000830152613f6181613f25565b9050919050565b7f4265740000000000000000000000000000000000000000000000000000000000600082015250565b6000613f9e600383613ac0565b9150613fa982613f68565b602082019050919050565b60006040820190508181036000830152613fcd81613f91565b9050613fdc60208301846137ba565b92915050565b7f466f6c6400000000000000000000000000000000000000000000000000000000600082015250565b6000614018600483613ac0565b915061402382613fe2565b602082019050919050565b6000819050919050565b6000819050919050565b600061405d6140586140538461402e565b614038565b61366a565b9050919050565b61406d81614042565b82525050565b6000604082019050818103600083015261408c8161400b565b905061409b6020830184614064565b92915050565b7f506c61796572206973206e6f742070617274696369706174696e6720696e207460008201527f68652067616d6500000000000000000000000000000000000000000000000000602082015250565b60006140fd602783613ac0565b9150614108826140a1565b604082019050919050565b6000602082019050818103600083015261412c816140f0565b9050919050565b7f506c61796572206e6f7420666f756e6420696e207468652067616d6500000000600082015250565b6000614169601c83613ac0565b915061417482614133565b602082019050919050565b600060208201905081810360008301526141988161415c565b9050919050565b7f4e6f7420656e6f75676820706c617965727320746f207374617274207468652060008201527f67616d6500000000000000000000000000000000000000000000000000000000602082015250565b60006141fb602483613ac0565b91506142068261419f565b604082019050919050565b6000602082019050818103600083015261422a816141ee565b9050919050565b6000602082019050614246600083018461388d565b92915050565b7f496e636f7272656374206275792d696e20616d6f756e74000000000000000000600082015250565b6000614282601783613ac0565b915061428d8261424c565b602082019050919050565b600060208201905081810360008301526142b181614275565b9050919050565b7f47616d652069732066756c6c0000000000000000000000000000000000000000600082015250565b60006142ee600c83613ac0565b91506142f9826142b8565b602082019050919050565b6000602082019050818103600083015261431d816142e1565b9050919050565b7f4e487b7100000000000000000000000000000000000000000000000000000000600052604160045260246000fd5b7f506c61796572206e6f7420666f756e6400000000000000000000000000000000600082015250565b6000614389601083613ac0565b915061439482614353565b602082019050919050565b600060208201905081810360008301526143b88161437c565b9050919050565b7f4e487b7100000000000000000000000000000000000000000000000000000000600052601260045260246000fd5b60006143f98261366a565b91506144048361366a565b925082614414576144136143bf565b5b828206905092915050565b6000819050919050565b61443a6144358261366a565b61441f565b82525050565b600081549050919050565b600081905092915050565b60008190508160005260206000209050919050565b614474816136f9565b82525050565b60008160001c9050919050565b600060ff82169050919050565b60006144a76144a28361447a565b614487565b9050919050565b60008160081c9050919050565b60006144ce6144c9836144ae565b614487565b9050919050565b60008160101c9050919050565b60006144f56144f0836144d5565b614487565b9050919050565b60008160181c9050919050565b600061451c614517836144fc565b614487565b9050919050565b60008160201c9050919050565b600061454361453e83614523565b614487565b9050919050565b60008160281c9050919050565b600061456a6145658361454a565b614487565b9050919050565b60008160301c9050919050565b600061459161458c83614571565b614487565b9050919050565b60008160381c9050919050565b60006145b86145b383614598565b614487565b9050919050565b60008160401c9050919050565b60006145df6145da836145bf565b614487565b9050919050565b60008160481c9050919050565b6000614606614601836145e6565b614487565b9050919050565b60008160501c9050919050565b600061462d6146288361460d565b614487565b9050919050565b60008160581c9050919050565b600061465461464f83614634565b614487565b9050919050565b60008160601c9050919050565b600061467b6146768361465b565b614487565b9050919050565b60008160681c9050919050565b60006146a261469d83614682565b614487565b9050919050565b60008160701c9050919050565b60006146c96146c4836146a9565b614487565b9050919050565b60008160781c9050919050565b60006146f06146eb836146d0565b614487565b9050919050565b60008160801c9050919050565b6000614717614712836146f7565b614487565b9050919050565b60008160881c9050919050565b600061473e6147398361471e565b614487565b9050919050565b60008160901c9050919050565b600061476561476083614745565b614487565b9050919050565b60008160981c9050919050565b600061478c6147878361476c565b614487565b9050919050565b60008160a01c9050919050565b60006147b36147ae83614793565b614487565b9050919050565b60008160a81c9050919050565b60006147da6147d5836147ba565b614487565b9050919050565b60008160b01c9050919050565b60006148016147fc836147e1565b614487565b9050919050565b60008160b81c9050919050565b600061482861482383614808565b614487565b9050919050565b60008160c01c9050919050565b600061484f61484a8361482f565b614487565b9050919050565b60008160c81c9050919050565b600061487661487183614856565b614487565b9050919050565b60008160d01c9050919050565b600061489d6148988361487d565b614487565b9050919050565b60008160d81c9050919050565b60006148c46148bf836148a4565b614487565b9050919050565b60008160e01c9050919050565b60006148eb6148e6836148cb565b614487565b9050919050565b60008160e81c9050919050565b600061491261490d836148f2565b614487565b9050919050565b60008160f01c9050919050565b600061493961493483614919565b614487565b9050919050565b60008160f81c9050919050565b600061496061495b83614940565b614487565b9050919050565b600061497282614440565b61497c818561444b565b93508361498884614456565b6000600115614cb5575b83600160200382011015614cb45781546149b4886149af83614494565b61446b565b6020880197506149cc886149c7836144bb565b61446b565b6020880197506149e4886149df836144e2565b61446b565b6020880197506149fc886149f783614509565b61446b565b602088019750614a1488614a0f83614530565b61446b565b602088019750614a2c88614a2783614557565b61446b565b602088019750614a4488614a3f8361457e565b61446b565b602088019750614a5c88614a57836145a5565b61446b565b602088019750614a7488614a6f836145cc565b61446b565b602088019750614a8c88614a87836145f3565b61446b565b602088019750614aa488614a9f8361461a565b61446b565b602088019750614abc88614ab783614641565b61446b565b602088019750614ad488614acf83614668565b61446b565b602088019750614aec88614ae78361468f565b61446b565b602088019750614b0488614aff836146b6565b61446b565b602088019750614b1c88614b17836146dd565b61446b565b602088019750614b3488614b2f83614704565b61446b565b602088019750614b4c88614b478361472b565b61446b565b602088019750614b6488614b5f83614752565b61446b565b602088019750614b7c88614b7783614779565b61446b565b602088019750614b9488614b8f836147a0565b61446b565b602088019750614bac88614ba7836147c7565b61446b565b602088019750614bc488614bbf836147ee565b61446b565b602088019750614bdc88614bd783614815565b61446b565b602088019750614bf488614bef8361483c565b61446b565b602088019750614c0c88614c0783614863565b61446b565b602088019750614c2488614c1f8361488a565b61446b565b602088019750614c3c88614c37836148b1565b61446b565b602088019750614c5488614c4f836148d8565b61446b565b602088019750614c6c88614c67836148ff565b61446b565b602088019750614c8488614c7f83614926565b61446b565b602088019750614c9c88614c978361494d565b61446b565b60208801975060018301925050602081019050614992565b5b6001156151a057815484821015614ce557614cd888614cd383614494565b61446b565b6020880197506001820191505b84821015614d0c57614cff88614cfa836144bb565b61446b565b6020880197506001820191505b84821015614d3357614d2688614d21836144e2565b61446b565b6020880197506001820191505b84821015614d5a57614d4d88614d4883614509565b61446b565b6020880197506001820191505b84821015614d8157614d7488614d6f83614530565b61446b565b6020880197506001820191505b84821015614da857614d9b88614d9683614557565b61446b565b6020880197506001820191505b84821015614dcf57614dc288614dbd8361457e565b61446b565b6020880197506001820191505b84821015614df657614de988614de4836145a5565b61446b565b6020880197506001820191505b84821015614e1d57614e1088614e0b836145cc565b61446b565b6020880197506001820191505b84821015614e4457614e3788614e32836145f3565b61446b565b6020880197506001820191505b84821015614e6b57614e5e88614e598361461a565b61446b565b6020880197506001820191505b84821015614e9257614e8588614e8083614641565b61446b565b6020880197506001820191505b84821015614eb957614eac88614ea783614668565b61446b565b6020880197506001820191505b84821015614ee057614ed388614ece8361468f565b61446b565b6020880197506001820191505b84821015614f0757614efa88614ef5836146b6565b61446b565b6020880197506001820191505b84821015614f2e57614f2188614f1c836146dd565b61446b565b6020880197506001820191505b84821015614f5557614f4888614f4383614704565b61446b565b6020880197506001820191505b84821015614f7c57614f6f88614f6a8361472b565b61446b565b6020880197506001820191505b84821015614fa357614f9688614f9183614752565b61446b565b6020880197506001820191505b84821015614fca57614fbd88614fb883614779565b61446b565b6020880197506001820191505b84821015614ff157614fe488614fdf836147a0565b61446b565b6020880197506001820191505b848210156150185761500b88615006836147c7565b61446b565b6020880197506001820191505b8482101561503f576150328861502d836147ee565b61446b565b6020880197506001820191505b84821015615066576150598861505483614815565b61446b565b6020880197506001820191505b8482101561508d576150808861507b8361483c565b61446b565b6020880197506001820191505b848210156150b4576150a7886150a283614863565b61446b565b6020880197506001820191505b848210156150db576150ce886150c98361488a565b61446b565b6020880197506001820191505b84821015615102576150f5886150f0836148b1565b61446b565b6020880197506001820191505b848210156151295761511c88615117836148d8565b61446b565b6020880197506001820191505b84821015615150576151438861513e836148ff565b61446b565b6020880197506001820191505b848210156151775761516a8861516583614926565b61446b565b6020880197506001820191505b8482101561519e576151918861518c8361494d565b61446b565b6020880197506001820191505b505b8694505050505092915050565b60006151b98286614429565b6020820191506151c98285614429565b6020820191506151d98284614967565b9150819050949350505050565b60006151f18261366a565b91506000820361520457615203613ced565b5b600182039050919050565b7f4e6f206361726473206c65667420746f206465616c0000000000000000000000600082015250565b6000615245601583613ac0565b91506152508261520f565b602082019050919050565b6000602082019050818103600083015261527481615238565b9050919050565b7f4e487b7100000000000000000000000000000000000000000000000000000000600052603160045260246000fd5b7f4e6f7420656e6f75676820636f6d6d756e69747920636172647320746f20726560008201527f7665616c00000000000000000000000000000000000000000000000000000000602082015250565b6000615306602483613ac0565b9150615311826152aa565b604082019050919050565b60006020820190508181036000830152615335816152f9565b9050919050565b600081549050919050565b60008190508160005260206000209050919050565b60006153678261533c565b61537181856136d8565b93508361537d84615347565b60006001156156aa575b836001602003820110156156a95781546153a9886153a483614494565b613706565b6020880197506153c1886153bc836144bb565b613706565b6020880197506153d9886153d4836144e2565b613706565b6020880197506153f1886153ec83614509565b613706565b6020880197506154098861540483614530565b613706565b6020880197506154218861541c83614557565b613706565b602088019750615439886154348361457e565b613706565b6020880197506154518861544c836145a5565b613706565b60208801975061546988615464836145cc565b613706565b6020880197506154818861547c836145f3565b613706565b602088019750615499886154948361461a565b613706565b6020880197506154b1886154ac83614641565b613706565b6020880197506154c9886154c483614668565b613706565b6020880197506154e1886154dc8361468f565b613706565b6020880197506154f9886154f4836146b6565b613706565b6020880197506155118861550c836146dd565b613706565b6020880197506155298861552483614704565b613706565b6020880197506155418861553c8361472b565b613706565b6020880197506155598861555483614752565b613706565b6020880197506155718861556c83614779565b613706565b60208801975061558988615584836147a0565b613706565b6020880197506155a18861559c836147c7565b613706565b6020880197506155b9886155b4836147ee565b613706565b6020880197506155d1886155cc83614815565b613706565b6020880197506155e9886155e48361483c565b613706565b602088019750615601886155fc83614863565b613706565b602088019750615619886156148361488a565b613706565b6020880197506156318861562c836148b1565b613706565b60208801975061564988615644836148d8565b613706565b6020880197506156618861565c836148ff565b613706565b6020880197506156798861567483614926565b613706565b6020880197506156918861568c8361494d565b613706565b60208801975060018301925050602081019050615387565b5b600115615b95578154848210156156da576156cd886156c883614494565b613706565b6020880197506001820191505b84821015615701576156f4886156ef836144bb565b613706565b6020880197506001820191505b848210156157285761571b88615716836144e2565b613706565b6020880197506001820191505b8482101561574f576157428861573d83614509565b613706565b6020880197506001820191505b84821015615776576157698861576483614530565b613706565b6020880197506001820191505b8482101561579d576157908861578b83614557565b613706565b6020880197506001820191505b848210156157c4576157b7886157b28361457e565b613706565b6020880197506001820191505b848210156157eb576157de886157d9836145a5565b613706565b6020880197506001820191505b848210156158125761580588615800836145cc565b613706565b6020880197506001820191505b848210156158395761582c88615827836145f3565b613706565b6020880197506001820191505b84821015615860576158538861584e8361461a565b613706565b6020880197506001820191505b848210156158875761587a8861587583614641565b613706565b6020880197506001820191505b848210156158ae576158a18861589c83614668565b613706565b6020880197506001820191505b848210156158d5576158c8886158c38361468f565b613706565b6020880197506001820191505b848210156158fc576158ef886158ea836146b6565b613706565b6020880197506001820191505b848210156159235761591688615911836146dd565b613706565b6020880197506001820191505b8482101561594a5761593d8861593883614704565b613706565b6020880197506001820191505b84821015615971576159648861595f8361472b565b613706565b6020880197506001820191505b848210156159985761598b8861598683614752565b613706565b6020880197506001820191505b848210156159bf576159b2886159ad83614779565b613706565b6020880197506001820191505b848210156159e6576159d9886159d4836147a0565b613706565b6020880197506001820191505b84821015615a0d57615a00886159fb836147c7565b613706565b6020880197506001820191505b84821015615a3457615a2788615a22836147ee565b613706565b6020880197506001820191505b84821015615a5b57615a4e88615a4983614815565b613706565b6020880197506001820191505b84821015615a8257615a7588615a708361483c565b613706565b6020880197506001820191505b84821015615aa957615a9c88615a9783614863565b613706565b6020880197506001820191505b84821015615ad057615ac388615abe8361488a565b613706565b6020880197506001820191505b84821015615af757615aea88615ae5836148b1565b613706565b6020880197506001820191505b84821015615b1e57615b1188615b0c836148d8565b613706565b6020880197506001820191505b84821015615b4557615b3888615b33836148ff565b613706565b6020880197506001820191505b84821015615b6c57615b5f88615b5a83614926565b613706565b6020880197506001820191505b84821015615b9357615b8688615b818361494d565b613706565b6020880197506001820191505b505b8694505050505092915050565b60006020820190508181036000830152615bbc818461535c565b905092915050565b6000615bdf615bda615bd5846137c9565b614038565b6137c9565b9050919050565b6000615bf182615bc4565b9050919050565b6000615c0382615be6565b9050919050565b615c1381615bf8565b82525050565b6000604082019050615c2e6000830185615c0a565b615c3b60208301846137ba565b9392505050565b6000604082019050615c5760008301856137fb565b615c646020830184614064565b9392505050565b6000615c76826136f9565b915060ff8203615c8957615c88613ced565b5b600182019050919050565b6000615c9f826136f9565b9150615caa836136f9565b9250828201905060ff811115615cc357615cc2613ced565b5b9291505056fea2646970667358221220731b28d4faa403a6ac642baceba9c6762908e4cce6ccd55bf336954a79e67b0064736f6c634300081b0033",
  "linkReferences": {},
  "deployedLinkReferences": {}
}