{
  "_format": "hh-sol-artifact-1",
  "contractName": "Poker",
  "sourceName": "contracts/PokerContract.sol",
  "abi": [
    {
      "inputs": [],
      "stateMutability": "nonpayable",
      "type": "constructor"
    },
    {
      "anonymous": false,
      "inputs": [
        {
          "indexed": true,
          "internalType": "uint256",
          "name": "gameId",
          "type": "uint256"
        }
      ],
      "name": "CardsDealt",
      "type": "event"
    },
    {
      "anonymous": false,
      "inputs": [
        {
          "indexed": true,
          "internalType": "uint256",
          "name": "gameId",
          "type": "uint256"
        },
        {
          "indexed": false,
          "internalType": "uint8[]",
          "name": "cards",
          "type": "uint8[]"
        }
      ],
      "name": "CommunityCardsRevealed",
      "type": "event"
    },
    {
      "anonymous": false,
      "inputs": [
        {
          "indexed": true,
          "internalType": "uint256",
          "name": "gameId",
          "type": "uint256"
        },
        {
          "indexed": true,
          "internalType": "address",
          "name": "dealer",
          "type": "address"
        },
        {
          "indexed": false,
          "internalType": "uint256",
          "name": "buyIn",
          "type": "uint256"
        }
      ],
      "name": "GameCreated",
      "type": "event"
    },
    {
      "anonymous": false,
      "inputs": [
        {
          "indexed": true,
          "internalType": "uint256",
          "name": "gameId",
          "type": "uint256"
        },
        {
          "indexed": false,
          "internalType": "address",
          "name": "winner",
          "type": "address"
        },
        {
          "indexed": false,
          "internalType": "uint256",
          "name": "winningAmount",
          "type": "uint256"
        }
      ],
      "name": "GameEnded",
      "type": "event"
    },
    {
      "anonymous": false,
      "inputs": [
        {
          "indexed": true,
          "internalType": "uint256",
          "name": "gameId",
          "type": "uint256"
        }
      ],
      "name": "GameStarted",
      "type": "event"
    },
    {
      "anonymous": false,
      "inputs": [
        {
          "indexed": true,
          "internalType": "uint256",
          "name": "gameId",
          "type": "uint256"
        },
        {
          "indexed": false,
          "internalType": "enum Poker.GameState",
          "name": "newState",
          "type": "uint8"
        }
      ],
      "name": "GameStateChanged",
      "type": "event"
    },
    {
      "anonymous": false,
      "inputs": [
        {
          "indexed": true,
          "internalType": "uint256",
          "name": "gameId",
          "type": "uint256"
        },
        {
          "indexed": true,
          "internalType": "address",
          "name": "player",
          "type": "address"
        },
        {
          "indexed": false,
          "internalType": "string",
          "name": "action",
          "type": "string"
        },
        {
          "indexed": false,
          "internalType": "uint256",
          "name": "amount",
          "type": "uint256"
        }
      ],
      "name": "PlayerAction",
      "type": "event"
    },
    {
      "anonymous": false,
      "inputs": [
        {
          "indexed": true,
          "internalType": "uint256",
          "name": "gameId",
          "type": "uint256"
        },
        {
          "indexed": true,
          "internalType": "address",
          "name": "player",
          "type": "address"
        },
        {
          "indexed": false,
          "internalType": "uint8[]",
          "name": "hand",
          "type": "uint8[]"
        }
      ],
      "name": "PlayerHandRevealed",
      "type": "event"
    },
    {
      "anonymous": false,
      "inputs": [
        {
          "indexed": true,
          "internalType": "uint256",
          "name": "gameId",
          "type": "uint256"
        },
        {
          "indexed": true,
          "internalType": "address",
          "name": "player",
          "type": "address"
        }
      ],
      "name": "PlayerJoined",
      "type": "event"
    },
    {
      "anonymous": false,
      "inputs": [
        {
          "indexed": true,
          "internalType": "uint256",
          "name": "gameId",
          "type": "uint256"
        },
        {
          "indexed": false,
          "internalType": "enum Poker.GameState",
          "name": "newState",
          "type": "uint8"
        }
      ],
      "name": "RoundEnded",
      "type": "event"
    },
    {
      "inputs": [
        {
          "internalType": "uint256",
          "name": "_gameId",
          "type": "uint256"
        },
        {
          "internalType": "uint256",
          "name": "_amount",
          "type": "uint256"
        }
      ],
      "name": "bet",
      "outputs": [],
      "stateMutability": "nonpayable",
      "type": "function"
    },
    {
      "inputs": [
        {
          "internalType": "uint256",
          "name": "_gameId",
          "type": "uint256"
        }
      ],
      "name": "call",
      "outputs": [],
      "stateMutability": "nonpayable",
      "type": "function"
    },
    {
      "inputs": [
        {
          "internalType": "uint256",
          "name": "_buyIn",
          "type": "uint256"
        }
      ],
      "name": "createGame",
      "outputs": [],
      "stateMutability": "nonpayable",
      "type": "function"
    },
    {
      "inputs": [
        {
          "internalType": "uint256",
          "name": "_gameId",
          "type": "uint256"
        }
      ],
      "name": "fold",
      "outputs": [],
      "stateMutability": "nonpayable",
      "type": "function"
    },
    {
      "inputs": [],
      "name": "gameCount",
      "outputs": [
        {
          "internalType": "uint256",
          "name": "",
          "type": "uint256"
        }
      ],
      "stateMutability": "view",
      "type": "function"
    },
    {
      "inputs": [
        {
          "internalType": "uint256",
          "name": "",
          "type": "uint256"
        }
      ],
      "name": "games",
      "outputs": [
        {
          "internalType": "uint256",
          "name": "gameId",
          "type": "uint256"
        },
        {
          "internalType": "address",
          "name": "dealer",
          "type": "address"
        },
        {
          "internalType": "uint256",
          "name": "pot",
          "type": "uint256"
        },
        {
          "internalType": "uint256",
          "name": "buyIn",
          "type": "uint256"
        },
        {
          "internalType": "bool",
          "name": "isActive",
          "type": "bool"
        },
        {
          "internalType": "uint256",
          "name": "currentBet",
          "type": "uint256"
        },
        {
          "internalType": "enum Poker.GameState",
          "name": "currentState",
          "type": "uint8"
        },
        {
          "internalType": "uint256",
          "name": "lastActionTimestamp",
          "type": "uint256"
        },
        {
          "internalType": "uint256",
          "name": "currentPlayerIndex",
          "type": "uint256"
        },
        {
          "internalType": "uint256",
          "name": "roundStartPlayerIndex",
          "type": "uint256"
        },
        {
          "internalType": "uint256",
          "name": "gameStartTime",
          "type": "uint256"
        },
        {
          "internalType": "uint256",
          "name": "roundEndTime",
          "type": "uint256"
        }
      ],
      "stateMutability": "view",
      "type": "function"
    },
    {
      "inputs": [
        {
          "internalType": "uint256",
          "name": "_gameId",
          "type": "uint256"
        }
      ],
      "name": "getCommunityCards",
      "outputs": [
        {
          "internalType": "uint8[]",
          "name": "",
          "type": "uint8[]"
        }
      ],
      "stateMutability": "view",
      "type": "function"
    },
    {
      "inputs": [],
      "name": "getLastID",
      "outputs": [
        {
          "internalType": "uint256",
          "name": "",
          "type": "uint256"
        }
      ],
      "stateMutability": "view",
      "type": "function"
    },
    {
      "inputs": [
        {
          "internalType": "uint256",
          "name": "_gameId",
          "type": "uint256"
        },
        {
          "internalType": "address",
          "name": "_playerAddress",
          "type": "address"
        }
      ],
      "name": "getPlayerCards",
      "outputs": [
        {
          "internalType": "uint8[]",
          "name": "",
          "type": "uint8[]"
        }
      ],
      "stateMutability": "view",
      "type": "function"
    },
    {
      "inputs": [
        {
          "internalType": "uint256",
          "name": "_gameId",
          "type": "uint256"
        }
      ],
      "name": "joinGame",
      "outputs": [],
      "stateMutability": "payable",
      "type": "function"
    },
    {
      "inputs": [
        {
          "internalType": "uint256",
          "name": "",
          "type": "uint256"
        },
        {
          "internalType": "address",
          "name": "",
          "type": "address"
        }
      ],
      "name": "players",
      "outputs": [
        {
          "internalType": "address payable",
          "name": "playerAddress",
          "type": "address"
        },
        {
          "internalType": "bool",
          "name": "isParticipating",
          "type": "bool"
        },
        {
          "internalType": "uint256",
          "name": "chips",
          "type": "uint256"
        },
        {
          "internalType": "bool",
          "name": "hasActed",
          "type": "bool"
        },
        {
          "internalType": "bool",
          "name": "showCards",
          "type": "bool"
        }
      ],
      "stateMutability": "view",
      "type": "function"
    },
    {
      "inputs": [
        {
          "internalType": "uint256",
          "name": "_gameId",
          "type": "uint256"
        }
      ],
      "name": "startGame",
      "outputs": [],
      "stateMutability": "nonpayable",
      "type": "function"
    }
  ],
  "bytecode": "0x6080604052348015600f57600080fd5b5060016002819055506000600360006101000a81548160ff021916908315150217905550615e4e806100426000396000f3fe6080604052600436106100a75760003560e01c80636ffcc719116100645780636ffcc719146101d9578063bff7a00b14610202578063c0f809211461022b578063c653c9a11461026c578063e5ed1d59146102a9578063efaa55a0146102d2576100a7565b8063100e0035146100ac578063117a5b90146100e957806312ba91ea146101315780632b0969261461015c57806348e837b9146101855780634d1975b4146101ae575b600080fd5b3480156100b857600080fd5b506100d360048036038101906100ce9190613783565b6102ee565b6040516100e0919061387b565b60405180910390f35b3480156100f557600080fd5b50610110600480360381019061010b9190613783565b610381565b6040516101289c9b9a9998979695949392919061397f565b60405180910390f35b34801561013d57600080fd5b5061014661041b565b6040516101539190613a39565b60405180910390f35b34801561016857600080fd5b50610183600480360381019061017e9190613783565b610425565b005b34801561019157600080fd5b506101ac60048036038101906101a79190613783565b61071e565b005b3480156101ba57600080fd5b506101c361089c565b6040516101d09190613a39565b60405180910390f35b3480156101e557600080fd5b5061020060048036038101906101fb9190613a54565b6108a2565b005b34801561020e57600080fd5b5061022960048036038101906102249190613783565b610bdd565b005b34801561023757600080fd5b50610252600480360381019061024d9190613ac0565b610e69565b604051610263959493929190613b21565b60405180910390f35b34801561027857600080fd5b50610293600480360381019061028e9190613ac0565b610ef3565b6040516102a0919061387b565b60405180910390f35b3480156102b557600080fd5b506102d060048036038101906102cb9190613783565b6110ff565b005b6102ec60048036038101906102e79190613783565b6112a9565b005b606060008083815260200190815260200160002060080180548060200260200160405190810160405280929190818152602001828054801561037557602002820191906000526020600020906000905b82829054906101000a900460ff1660ff168152602001906001019060208260000104928301926001038202915080841161033e5790505b50505050509050919050565b60006020528060005260406000206000915090508060000154908060010160009054906101000a900473ffffffffffffffffffffffffffffffffffffffff16908060020154908060030154908060050160009054906101000a900460ff16908060060154908060090160009054906101000a900460ff169080600a01549080600b01549080600c01549080600d01549080600e015490508c565b6000600254905090565b80600080600083815260200190815260200160002090508060040181600b01548154811061045657610455613b74565b5b906000526020600020906004020160000160009054906101000a900473ffffffffffffffffffffffffffffffffffffffff1673ffffffffffffffffffffffffffffffffffffffff163373ffffffffffffffffffffffffffffffffffffffff16146104f5576040517f08c379a00000000000000000000000000000000000000000000000000000000081526004016104ec90613c00565b60405180910390fd5b8260008082815260200190815260200160002060050160009054906101000a900460ff16610558576040517f08c379a000000000000000000000000000000000000000000000000000000000815260040161054f90613c6c565b60405180910390fd5b836105638133611545565b6105a2576040517f08c379a000000000000000000000000000000000000000000000000000000000815260040161059990613cd8565b60405180910390fd5b6000806000878152602001908152602001600020905080600e015442106105fe576040517f08c379a00000000000000000000000000000000000000000000000000000000081526004016105f590613d44565b60405180910390fd5b600061060a873361164b565b9050816006015481600101541015610657576040517f08c379a000000000000000000000000000000000000000000000000000000000815260040161064e90613db0565b60405180910390fd5b600082600601549050808260010160008282546106749190613dff565b925050819055508083600201600082825461068f9190613e33565b925050819055504283600a018190555060018260030160006101000a81548160ff0219169083151502179055503373ffffffffffffffffffffffffffffffffffffffff16887ff3d4f57e05aae06b4017c0b2ed81f62aa6f19deef046d6a78ad2a4223858c4f0836040516107039190613eb3565b60405180910390a36107148861176a565b5050505050505050565b60008111610761576040517f08c379a000000000000000000000000000000000000000000000000000000000815260040161075890613f2d565b60405180910390fd5b6001600260008282546107749190613e33565b925050819055506000806000600254815260200190815260200160002090506002548160000181905550338160010160006101000a81548173ffffffffffffffffffffffffffffffffffffffff021916908373ffffffffffffffffffffffffffffffffffffffff16021790555081816003018190555060018160050160006101000a81548160ff0219169083151502179055506000816006018190555060008160090160006101000a81548160ff0219169083600481111561083957610838613908565b5b02179055504281600a01819055503373ffffffffffffffffffffffffffffffffffffffff166002547f7dfb67e9ff596fca4da65c7eedb128cd1aac553af54b3c0cb733625a2480d8bd846040516108909190613a39565b60405180910390a35050565b60025481565b81600080600083815260200190815260200160002090508060040181600b0154815481106108d3576108d2613b74565b5b906000526020600020906004020160000160009054906101000a900473ffffffffffffffffffffffffffffffffffffffff1673ffffffffffffffffffffffffffffffffffffffff163373ffffffffffffffffffffffffffffffffffffffff1614610972576040517f08c379a000000000000000000000000000000000000000000000000000000000815260040161096990613c00565b60405180910390fd5b8360008082815260200190815260200160002060050160009054906101000a900460ff166109d5576040517f08c379a00000000000000000000000000000000000000000000000000000000081526004016109cc90613c6c565b60405180910390fd5b846109e08133611545565b610a1f576040517f08c379a0000000000000000000000000000000000000000000000000000000008152600401610a1690613cd8565b60405180910390fd5b6000806000888152602001908152602001600020905080600e01544210610a7b576040517f08c379a0000000000000000000000000000000000000000000000000000000008152600401610a7290613d44565b60405180910390fd5b80600601548611610ac1576040517f08c379a0000000000000000000000000000000000000000000000000000000008152600401610ab890613fbf565b60405180910390fd5b6000610acd883361164b565b90508681600101541015610b16576040517f08c379a0000000000000000000000000000000000000000000000000000000008152600401610b0d9061402b565b60405180910390fd5b86826002016000828254610b2a9190613e33565b9250508190555086816001016000828254610b459190613dff565b925050819055508682600601819055504282600a018190555060018160030160006101000a81548160ff0219169083151502179055503373ffffffffffffffffffffffffffffffffffffffff16887ff3d4f57e05aae06b4017c0b2ed81f62aa6f19deef046d6a78ad2a4223858c4f089604051610bc29190614097565b60405180910390a3610bd38861176a565b5050505050505050565b80600080600083815260200190815260200160002090508060040181600b015481548110610c0e57610c0d613b74565b5b906000526020600020906004020160000160009054906101000a900473ffffffffffffffffffffffffffffffffffffffff1673ffffffffffffffffffffffffffffffffffffffff163373ffffffffffffffffffffffffffffffffffffffff1614610cad576040517f08c379a0000000000000000000000000000000000000000000000000000000008152600401610ca490613c00565b60405180910390fd5b8260008082815260200190815260200160002060050160009054906101000a900460ff16610d10576040517f08c379a0000000000000000000000000000000000000000000000000000000008152600401610d0790613c6c565b60405180910390fd5b83610d1b8133611545565b610d5a576040517f08c379a0000000000000000000000000000000000000000000000000000000008152600401610d5190613cd8565b60405180910390fd5b6000806000878152602001908152602001600020905080600e01544210610db6576040517f08c379a0000000000000000000000000000000000000000000000000000000008152600401610dad90613d44565b60405180910390fd5b6000610dc2873361164b565b905060008160000160146101000a81548160ff0219169083151502179055504282600a018190555060018160030160006101000a81548160ff0219169083151502179055503373ffffffffffffffffffffffffffffffffffffffff16877ff3d4f57e05aae06b4017c0b2ed81f62aa6f19deef046d6a78ad2a4223858c4f06000604051610e4f9190614156565b60405180910390a3610e608761176a565b50505050505050565b6001602052816000526040600020602052806000526040600020600091509150508060000160009054906101000a900473ffffffffffffffffffffffffffffffffffffffff16908060000160149054906101000a900460ff16908060010154908060030160009054906101000a900460ff16908060030160019054906101000a900460ff16905085565b60606000806000858152602001908152602001600020905060005b81600401805490508110156110bd578373ffffffffffffffffffffffffffffffffffffffff16826004018281548110610f4a57610f49613b74565b5b906000526020600020906004020160000160009054906101000a900473ffffffffffffffffffffffffffffffffffffffff1673ffffffffffffffffffffffffffffffffffffffff16036110b057816004018181548110610fad57610fac613b74565b5b906000526020600020906004020160000160149054906101000a900460ff1661100b576040517f08c379a0000000000000000000000000000000000000000000000000000000008152600401611002906141f6565b60405180910390fd5b81600401818154811061102157611020613b74565b5b90600052602060002090600402016002018054806020026020016040519081016040528092919081815260200182805480156110a257602002820191906000526020600020906000905b82829054906101000a900460ff1660ff168152602001906001019060208260000104928301926001038202915080841161106b5790505b5050505050925050506110f9565b8080600101915050610f0e565b506040517f08c379a00000000000000000000000000000000000000000000000000000000081526004016110f090614262565b60405180910390fd5b92915050565b60008082815260200190815260200160002060010160009054906101000a900473ffffffffffffffffffffffffffffffffffffffff1673ffffffffffffffffffffffffffffffffffffffff163373ffffffffffffffffffffffffffffffffffffffff16146111a2576040517f08c379a0000000000000000000000000000000000000000000000000000000008152600401611199906142ce565b60405180910390fd5b60008060008381526020019081526020016000209050600281600401805490501015611203576040517f08c379a00000000000000000000000000000000000000000000000000000000081526004016111fa90614360565b60405180910390fd5b61120c8261184f565b600081600b0181905550600081600c01819055504281600d0181905550610258426112379190613e33565b81600e0181905550817f50ad08f58a27f2851d7e3a1b3a6a46b290f2ce677e99642d30ff639721e7779060405160405180910390a2817fb92fff70f4ba958693033f3e4e0baea37ae26d410410dcb011bb2f0ee7ba5bd1600060405161129d9190614380565b60405180910390a25050565b600080600083815260200190815260200160002090508060030154341015611306576040517f08c379a00000000000000000000000000000000000000000000000000000000081526004016112fd906143e7565b60405180910390fd5b6003816004018054905010611350576040517f08c379a000000000000000000000000000000000000000000000000000000000815260040161134790614453565b60405180910390fd5b806004016040518060c001604052803373ffffffffffffffffffffffffffffffffffffffff168152602001600115158152602001348152602001600067ffffffffffffffff8111156113a5576113a4614473565b5b6040519080825280602002602001820160405280156113d35781602001602082028036833780820191505090505b50815260200160001515815260200160001515815250908060018154018082558091505060019003906000526020600020906004020160009091909190915060008201518160000160006101000a81548173ffffffffffffffffffffffffffffffffffffffff021916908373ffffffffffffffffffffffffffffffffffffffff16021790555060208201518160000160146101000a81548160ff02191690831515021790555060408201518160010155606082015181600201908051906020019061149f929190613684565b5060808201518160030160006101000a81548160ff02191690831515021790555060a08201518160030160016101000a81548160ff0219169083151502179055505050348160020160008282546114f69190613e33565b925050819055503373ffffffffffffffffffffffffffffffffffffffff16827f87969bc7faf902221a147b95ceba76e011c5efb0339a0a8ee7a2bb82d9cfbbd660405160405180910390a35050565b600080600080858152602001908152602001600020905060005b816004018054905081101561163e578373ffffffffffffffffffffffffffffffffffffffff1682600401828154811061159b5761159a613b74565b5b906000526020600020906004020160000160009054906101000a900473ffffffffffffffffffffffffffffffffffffffff1673ffffffffffffffffffffffffffffffffffffffff16148015611621575081600401818154811061160157611600613b74565b5b906000526020600020906004020160000160149054906101000a900460ff165b1561163157600192505050611645565b808060010191505061155f565b5060009150505b92915050565b600080600080858152602001908152602001600020905060005b8160040180549050811015611728578373ffffffffffffffffffffffffffffffffffffffff168260040182815481106116a1576116a0613b74565b5b906000526020600020906004020160000160009054906101000a900473ffffffffffffffffffffffffffffffffffffffff1673ffffffffffffffffffffffffffffffffffffffff160361171b5781600401818154811061170457611703613b74565b5b906000526020600020906004020192505050611764565b8080600101915050611665565b506040517f08c379a000000000000000000000000000000000000000000000000000000000815260040161175b906144ee565b60405180910390fd5b92915050565b6000806000838152602001908152602001600020905060008160040180549050600183600b015461179b9190613e33565b6117a5919061453d565b90505b8160040181815481106117be576117bd613b74565b5b906000526020600020906004020160000160149054906101000a900460ff166118075781600401805490506001826117f69190613e33565b611800919061453d565b90506117a8565b81600c015481148061181e575061181d83611a7c565b5b8061182d575081600e01544210155b156118405761183b83611b41565b61184a565b8082600b01819055505b505050565b6000806000838152602001908152602001600020905061186d611e0b565b816007019080519060200190611884929190613684565b5061189181600701611eaa565b60005b8160040180549050811015611a4a578160040181815481106118b9576118b8613b74565b5b906000526020600020906004020160000160149054906101000a900460ff1615611a3d57600267ffffffffffffffff8111156118f8576118f7614473565b5b6040519080825280602002602001820160405280156119265781602001602082028036833780820191505090505b5082600401828154811061193d5761193c613b74565b5b90600052602060002090600402016002019080519060200190611961929190613684565b5061196b82612018565b82600401828154811061198157611980613b74565b5b90600052602060002090600402016002016000815481106119a5576119a4613b74565b5b90600052602060002090602091828204019190066101000a81548160ff021916908360ff1602179055506119d882612018565b8260040182815481106119ee576119ed613b74565b5b9060005260206000209060040201600201600181548110611a1257611a11613b74565b5b90600052602060002090602091828204019190066101000a81548160ff021916908360ff1602179055505b8080600101915050611894565b50817f3b54117fc881ff244eef1480d834bc0a1cc974076b145521c0c86e0c7851f7b860405160405180910390a25050565b600080600080848152602001908152602001600020905060005b8160040180549050811015611b3557816004018181548110611abb57611aba613b74565b5b906000526020600020906004020160000160149054906101000a900460ff168015611b185750816004018181548110611af757611af6613b74565b5b906000526020600020906004020160030160009054906101000a900460ff16155b15611b2857600092505050611b3c565b8080600101915050611a96565b5060019150505b919050565b6000806000838152602001908152602001600020905060006004811115611b6b57611b6a613908565b5b8160090160009054906101000a900460ff166004811115611b8f57611b8e613908565b5b03611bdc5760018160090160006101000a81548160ff02191690836004811115611bbc57611bbb613908565b5b0217905550611bcc8160036120f7565b611bd7826003612169565b611d6b565b60016004811115611bf057611bef613908565b5b8160090160009054906101000a900460ff166004811115611c1457611c13613908565b5b03611c615760028160090160006101000a81548160ff02191690836004811115611c4157611c40613908565b5b0217905550611c518160016120f7565b611c5c826004612169565b611d6a565b60026004811115611c7557611c74613908565b5b8160090160009054906101000a900460ff166004811115611c9957611c98613908565b5b03611ce65760038160090160006101000a81548160ff02191690836004811115611cc657611cc5613908565b5b0217905550611cd68160016120f7565b611ce1826005612169565b611d69565b60036004811115611cfa57611cf9613908565b5b8160090160009054906101000a900460ff166004811115611d1e57611d1d613908565b5b03611d685760048160090160006101000a81548160ff02191690836004811115611d4b57611d4a613908565b5b0217905550611d59826122dc565b611d62826123ea565b50611e08565b5b5b5b817fb92fff70f4ba958693033f3e4e0baea37ae26d410410dcb011bb2f0ee7ba5bd18260090160009054906101000a900460ff16604051611dac9190614380565b60405180910390a2817f3502d30ceab9ef8edf9d697a529b00029efc90f8f0e5876067615e91f30a655c8260090160009054906101000a900460ff16604051611df59190614380565b60405180910390a2611e068261258a565b505b50565b60606000603467ffffffffffffffff811115611e2a57611e29614473565b5b604051908082528060200260200182016040528015611e585781602001602082028036833780820191505090505b50905060005b60348160ff161015611ea25780828260ff1681518110611e8157611e80613b74565b5b602002602001019060ff16908160ff16815250508080600101915050611e5e565b508091505090565b6000818054905090506000600182611ec29190613dff565b90505b6000811115612013576000600182611edd9190613e33565b444286604051602001611ef2939291906152fc565b6040516020818303038152906040528051906020012060001c611f15919061453d565b9050838181548110611f2a57611f29613b74565b5b90600052602060002090602091828204019190069054906101000a900460ff16848381548110611f5d57611f5c613b74565b5b90600052602060002090602091828204019190069054906101000a900460ff16858481548110611f9057611f8f613b74565b5b9060005260206000209060209182820401919006878581548110611fb757611fb6613b74565b5b90600052602060002090602091828204019190068491906101000a81548160ff021916908360ff1602179055508391906101000a81548160ff021916908360ff160217905550505050808061200b90615335565b915050611ec5565b505050565b600080826007018054905011612063576040517f08c379a000000000000000000000000000000000000000000000000000000000815260040161205a906153aa565b60405180910390fd5b6000826007016001846007018054905061207d9190613dff565b8154811061208e5761208d613b74565b5b90600052602060002090602091828204019190069054906101000a900460ff169050826007018054806120c4576120c36153ca565b5b60019003818190600052602060002090602091828204019190066101000a81549060ff0219169055905580915050919050565b60005b8160ff168160ff161015612164578260080161211584612018565b90806001815401808255809150506001900390600052602060002090602091828204019190069091909190916101000a81548160ff021916908360ff16021790555080806001019150506120fa565b505050565b6000806000848152602001908152602001600020905080600801805490508260ff1611156121cc576040517f08c379a00000000000000000000000000000000000000000000000000000000081526004016121c39061546b565b60405180910390fd5b60008260ff1667ffffffffffffffff8111156121eb576121ea614473565b5b6040519080825280602002602001820160405280156122195781602001602082028036833780820191505090505b50905060005b8360ff168160ff16101561229d57826008018160ff168154811061224657612245613b74565b5b90600052602060002090602091828204019190069054906101000a900460ff16828260ff168151811061227c5761227b613b74565b5b602002602001019060ff16908160ff1681525050808060010191505061221f565b50837f0a2b20519fcbbefa5c61f08c1e4ce977e58f4a76fb58bdf792c7932b52f4c6ef826040516122ce919061387b565b60405180910390a250505050565b6000806000838152602001908152602001600020905060005b81600401805490508110156123e557600082600401828154811061231c5761231b613b74565b5b906000526020600020906004020190508060000160149054906101000a900460ff16156123d75760018160030160016101000a81548160ff0219169083151502179055508060000160009054906101000a900473ffffffffffffffffffffffffffffffffffffffff1673ffffffffffffffffffffffffffffffffffffffff16847ff86b89950822a93362fe357442a81cc48eacaff3abb2292da3e0ac3a6b6233a6836002016040516123ce9190615cf1565b60405180910390a35b5080806001019150506122f5565b505050565b600080600083815260200190815260200160002090508060050160009054906101000a900460ff16612451576040517f08c379a000000000000000000000000000000000000000000000000000000000815260040161244890613c6c565b60405180910390fd5b60008160050160006101000a81548160ff021916908315150217905550600061247983612697565b9050600073ffffffffffffffffffffffffffffffffffffffff168173ffffffffffffffffffffffffffffffffffffffff161461254957600082600201549050600083600201819055508173ffffffffffffffffffffffffffffffffffffffff166108fc829081150290604051600060405180830381858888f19350505050158015612508573d6000803e3d6000fd5b50837ff1898de79c348962fab7695532341027e5bceb0ea2a8785790fa7d7efeeee129838360405161253b929190615d68565b60405180910390a250612585565b827ff1898de79c348962fab7695532341027e5bceb0ea2a8785790fa7d7efeeee12960008060405161257c929190615d91565b60405180910390a25b505050565b60008060008381526020019081526020016000209050600081600601819055508060040180549050600182600c01546125c39190613e33565b6125cd919061453d565b81600c018190555080600c015481600b0181905550610258426125f09190613e33565b81600e018190555060005b8160040180549050811015612692578160040181815481106126205761261f613b74565b5b906000526020600020906004020160000160149054906101000a900460ff161561268557600082600401828154811061265c5761265b613b74565b5b906000526020600020906004020160030160006101000a81548160ff0219169083151502179055505b80806001019150506125fb565b505050565b60008060008084815260200190815260200160002090506000806000905060005b83600401805490508110156128475760008460040182815481106126df576126de613b74565b5b906000526020600020906004020190508060000160149054906101000a900460ff16156128395760006128028260020180548060200260200160405190810160405280929190818152602001828054801561277f57602002820191906000526020600020906000905b82829054906101000a900460ff1660ff16815260200190600101906020826000010492830192600103820291508084116127485790505b5050505050876008018054806020026020016040519081016040528092919081815260200182805480156127f857602002820191906000526020600020906000905b82829054906101000a900460ff1660ff16815260200190600101906020826000010492830192600103820291508084116127c15790505b5050505050612853565b905083811115612837578093508160000160009054906101000a900473ffffffffffffffffffffffffffffffffffffffff1694505b505b5080806001019150506126b8565b50819350505050919050565b600080825184516128649190613e33565b67ffffffffffffffff81111561287d5761287c614473565b5b6040519080825280602002602001820160405280156128ab5781602001602082028036833780820191505090505b50905060005b84518160ff16101561291857848160ff16815181106128d3576128d2613b74565b5b6020026020010151828260ff16815181106128f1576128f0613b74565b5b602002602001019060ff16908160ff1681525050808061291090615dba565b9150506128b1565b5060005b83518160ff16101561298f57838160ff168151811061293e5761293d613b74565b5b6020026020010151828260ff1687516129579190613e33565b8151811061296857612967613b74565b5b602002602001019060ff16908160ff1681525050808061298790615dba565b91505061291c565b50612999816129a2565b91505092915050565b600080600090505b600183516129b89190613dff565b811015612aea5760005b60018285516129d19190613dff565b6129db9190613dff565b811015612adc57600f846001836129f29190613e33565b81518110612a0357612a02613b74565b5b60200260200101511660ff16600f858381518110612a2457612a23613b74565b5b60200260200101511660ff161115612acf5783600182612a449190613e33565b81518110612a5557612a54613b74565b5b6020026020010151848281518110612a7057612a6f613b74565b5b6020026020010151858381518110612a8b57612a8a613b74565b5b6020026020010186600185612aa09190613e33565b81518110612ab157612ab0613b74565b5b602002602001018260ff1660ff168152508260ff1660ff1681525050505b80806001019150506129c2565b5080806001019150506129aa565b506000612af683613012565b90506000612b0384613094565b9050818015612b0f5750805b15612b7f57600e600f85600481518110612b2c57612b2b613b74565b5b60200260200101511660ff1603612b4a5762a000009250505061300d565b600f84600481518110612b6057612b5f613b74565b5b60200260200101511660ff16629000001762ffffff169250505061300d565b612b888461317d565b15612bec57600f84600481518110612ba357612ba2613b74565b5b60200260200101511660ff166004600f86600281518110612bc757612bc6613b74565b5b60200260200101511660ff16901b60ff1662800000171762ffffff169250505061300d565b612bf584613217565b15612c5957600f84600481518110612c1057612c0f613b74565b5b60200260200101511660ff166004600f86600281518110612c3457612c33613b74565b5b60200260200101511660ff16901b60ff1662700000171762ffffff169250505061300d565b8115612c9457600f84600481518110612c7557612c74613b74565b5b60200260200101511660ff16626000001762ffffff169250505061300d565b8015612ccf57600f84600481518110612cb057612caf613b74565b5b60200260200101511660ff16625000001762ffffff169250505061300d565b612cd88461334b565b15612d6657600f84600381518110612cf357612cf2613b74565b5b60200260200101511660ff166004600f86600481518110612d1757612d16613b74565b5b60200260200101511660ff16901b60ff166008600f87600281518110612d4057612d3f613b74565b5b60200260200101511660ff16901b60ff166240000017171762ffffff169250505061300d565b612d6f84613431565b15612dfd57600f84600481518110612d8a57612d89613b74565b5b60200260200101511660ff166004600f86600181518110612dae57612dad613b74565b5b60200260200101511660ff16901b60ff166008600f87600381518110612dd757612dd6613b74565b5b60200260200101511660ff16901b60ff166230000017171762ffffff169250505061300d565b612e06846135fe565b15612f34576000805b6004811015612e9d57600f86600183612e289190613e33565b81518110612e3957612e38613b74565b5b60200260200101511660ff16600f878381518110612e5a57612e59613b74565b5b60200260200101511660ff1603612e9057600f868281518110612e8057612e7f613b74565b5b6020026020010151169150612e9d565b8080600101915050612e0f565b50600f85600281518110612eb457612eb3613b74565b5b60200260200101511660ff166004600f87600381518110612ed857612ed7613b74565b5b60200260200101511660ff16901b60ff166008600f88600481518110612f0157612f00613b74565b5b60200260200101511660ff16901b60ff1660108460ff16901b60ff16622000001717171762ffffff16935050505061300d565b600f84600081518110612f4a57612f49613b74565b5b60200260200101511660ff166004600f86600181518110612f6e57612f6d613b74565b5b60200260200101511660ff16901b60ff166008600f87600281518110612f9757612f96613b74565b5b60200260200101511660ff16901b60ff16600c600f88600381518110612fc057612fbf613b74565b5b60200260200101511660ff16901b60ff166010600f89600481518110612fe957612fe8613b74565b5b60200260200101511660ff16901b60ff1662100000171717171762ffffff16925050505b919050565b60008060f08360008151811061302b5761302a613b74565b5b60200260200101511690506000600190505b6005811015613088578160ff1660f085838151811061305f5761305e613b74565b5b60200260200101511660ff161461307b5760009250505061308f565b808060010191505061303d565b5060019150505b919050565b600080600f836000815181106130ad576130ac613b74565b5b60200260200101511690506000600190505b6005811015613171576000600f8583815181106130df576130de613b74565b5b60200260200101511690506001836130f79190615de3565b60ff168160ff161461316057600482148015613116575060058360ff16145b80156131435750600e600f8660008151811061313557613134613b74565b5b60200260200101511660ff16145b156131545760019350505050613178565b60009350505050613178565b8092505080806001019150506130bf565b5060019150505b919050565b6000600f8260038151811061319557613194613b74565b5b60200260200101511660ff16600f836000815181106131b7576131b6613b74565b5b60200260200101511660ff1614806132105750600f826004815181106131e0576131df613b74565b5b60200260200101511660ff16600f8360018151811061320257613201613b74565b5b60200260200101511660ff16145b9050919050565b6000600f8260028151811061322f5761322e613b74565b5b60200260200101511660ff16600f8360008151811061325157613250613b74565b5b60200260200101511660ff161480156132ab5750600f8260048151811061327b5761327a613b74565b5b60200260200101511660ff16600f8360038151811061329d5761329c613b74565b5b60200260200101511660ff16145b806133445750600f826001815181106132c7576132c6613b74565b5b60200260200101511660ff16600f836000815181106132e9576132e8613b74565b5b60200260200101511660ff161480156133435750600f8260048151811061331357613312613b74565b5b60200260200101511660ff16600f8360028151811061333557613334613b74565b5b60200260200101511660ff16145b5b9050919050565b6000600f8260028151811061336357613362613b74565b5b60200260200101511660ff16600f8360008151811061338557613384613b74565b5b60200260200101511660ff1614806133de5750600f826003815181106133ae576133ad613b74565b5b60200260200101511660ff16600f836001815181106133d0576133cf613b74565b5b60200260200101511660ff16145b8061342a5750600f826004815181106133fa576133f9613b74565b5b60200260200101511660ff16600f8360028151811061341c5761341b613b74565b5b60200260200101511660ff16145b9050919050565b6000600f8260018151811061344957613448613b74565b5b60200260200101511660ff16600f8360008151811061346b5761346a613b74565b5b60200260200101511660ff161480156134c55750600f8260038151811061349557613494613b74565b5b60200260200101511660ff16600f836002815181106134b7576134b6613b74565b5b60200260200101511660ff16145b8061355e5750600f826001815181106134e1576134e0613b74565b5b60200260200101511660ff16600f8360008151811061350357613502613b74565b5b60200260200101511660ff1614801561355d5750600f8260048151811061352d5761352c613b74565b5b60200260200101511660ff16600f8360038151811061354f5761354e613b74565b5b60200260200101511660ff16145b5b806135f75750600f8260028151811061357a57613579613b74565b5b60200260200101511660ff16600f8360018151811061359c5761359b613b74565b5b60200260200101511660ff161480156135f65750600f826004815181106135c6576135c5613b74565b5b60200260200101511660ff16600f836003815181106135e8576135e7613b74565b5b60200260200101511660ff16145b5b9050919050565b600080600090505b600481101561367957600f8360018361361f9190613e33565b815181106136305761362f613b74565b5b60200260200101511660ff16600f84838151811061365157613650613b74565b5b60200260200101511660ff160361366c57600191505061367f565b8080600101915050613606565b50600090505b919050565b82805482825590600052602060002090601f0160209004810192821561371a5791602002820160005b838211156136eb57835183826101000a81548160ff021916908360ff16021790555092602001926001016020816000010492830192600103026136ad565b80156137185782816101000a81549060ff02191690556001016020816000010492830192600103026136eb565b505b509050613727919061372b565b5090565b5b8082111561374457600081600090555060010161372c565b5090565b600080fd5b6000819050919050565b6137608161374d565b811461376b57600080fd5b50565b60008135905061377d81613757565b92915050565b60006020828403121561379957613798613748565b5b60006137a78482850161376e565b91505092915050565b600081519050919050565b600082825260208201905092915050565b6000819050602082019050919050565b600060ff82169050919050565b6137f2816137dc565b82525050565b600061380483836137e9565b60208301905092915050565b6000602082019050919050565b6000613828826137b0565b61383281856137bb565b935061383d836137cc565b8060005b8381101561386e57815161385588826137f8565b975061386083613810565b925050600181019050613841565b5085935050505092915050565b60006020820190508181036000830152613895818461381d565b905092915050565b6138a68161374d565b82525050565b600073ffffffffffffffffffffffffffffffffffffffff82169050919050565b60006138d7826138ac565b9050919050565b6138e7816138cc565b82525050565b60008115159050919050565b613902816138ed565b82525050565b7f4e487b7100000000000000000000000000000000000000000000000000000000600052602160045260246000fd5b6005811061394857613947613908565b5b50565b600081905061395982613937565b919050565b60006139698261394b565b9050919050565b6139798161395e565b82525050565b600061018082019050613995600083018f61389d565b6139a2602083018e6138de565b6139af604083018d61389d565b6139bc606083018c61389d565b6139c9608083018b6138f9565b6139d660a083018a61389d565b6139e360c0830189613970565b6139f060e083018861389d565b6139fe61010083018761389d565b613a0c61012083018661389d565b613a1a61014083018561389d565b613a2861016083018461389d565b9d9c50505050505050505050505050565b6000602082019050613a4e600083018461389d565b92915050565b60008060408385031215613a6b57613a6a613748565b5b6000613a798582860161376e565b9250506020613a8a8582860161376e565b9150509250929050565b613a9d816138cc565b8114613aa857600080fd5b50565b600081359050613aba81613a94565b92915050565b60008060408385031215613ad757613ad6613748565b5b6000613ae58582860161376e565b9250506020613af685828601613aab565b9150509250929050565b6000613b0b826138ac565b9050919050565b613b1b81613b00565b82525050565b600060a082019050613b366000830188613b12565b613b4360208301876138f9565b613b50604083018661389d565b613b5d60608301856138f9565b613b6a60808301846138f9565b9695505050505050565b7f4e487b7100000000000000000000000000000000000000000000000000000000600052603260045260246000fd5b600082825260208201905092915050565b7f4e6f7420796f7572207475726e00000000000000000000000000000000000000600082015250565b6000613bea600d83613ba3565b9150613bf582613bb4565b602082019050919050565b60006020820190508181036000830152613c1981613bdd565b9050919050565b7f47616d65206973206e6f74206163746976650000000000000000000000000000600082015250565b6000613c56601283613ba3565b9150613c6182613c20565b602082019050919050565b60006020820190508181036000830152613c8581613c49565b9050919050565b7f4e6f7420612070617274696369706174696e6720706c61796572000000000000600082015250565b6000613cc2601a83613ba3565b9150613ccd82613c8c565b602082019050919050565b60006020820190508181036000830152613cf181613cb5565b9050919050565b7f526f756e642068617320656e6465640000000000000000000000000000000000600082015250565b6000613d2e600f83613ba3565b9150613d3982613cf8565b602082019050919050565b60006020820190508181036000830152613d5d81613d21565b9050919050565b7f4e6f7420656e6f75676820636869707320746f2063616c6c0000000000000000600082015250565b6000613d9a601883613ba3565b9150613da582613d64565b602082019050919050565b60006020820190508181036000830152613dc981613d8d565b9050919050565b7f4e487b7100000000000000000000000000000000000000000000000000000000600052601160045260246000fd5b6000613e0a8261374d565b9150613e158361374d565b9250828203905081811115613e2d57613e2c613dd0565b5b92915050565b6000613e3e8261374d565b9150613e498361374d565b9250828201905080821115613e6157613e60613dd0565b5b92915050565b7f43616c6c00000000000000000000000000000000000000000000000000000000600082015250565b6000613e9d600483613ba3565b9150613ea882613e67565b602082019050919050565b60006040820190508181036000830152613ecc81613e90565b9050613edb602083018461389d565b92915050565b7f4275792d696e206d7573742062652067726561746572207468616e207a65726f600082015250565b6000613f17602083613ba3565b9150613f2282613ee1565b602082019050919050565b60006020820190508181036000830152613f4681613f0a565b9050919050565b7f426574206d75737420626520686967686572207468616e2063757272656e742060008201527f6265740000000000000000000000000000000000000000000000000000000000602082015250565b6000613fa9602383613ba3565b9150613fb482613f4d565b604082019050919050565b60006020820190508181036000830152613fd881613f9c565b9050919050565b7f4e6f7420656e6f75676820636869707300000000000000000000000000000000600082015250565b6000614015601083613ba3565b915061402082613fdf565b602082019050919050565b6000602082019050818103600083015261404481614008565b9050919050565b7f4265740000000000000000000000000000000000000000000000000000000000600082015250565b6000614081600383613ba3565b915061408c8261404b565b602082019050919050565b600060408201905081810360008301526140b081614074565b90506140bf602083018461389d565b92915050565b7f466f6c6400000000000000000000000000000000000000000000000000000000600082015250565b60006140fb600483613ba3565b9150614106826140c5565b602082019050919050565b6000819050919050565b6000819050919050565b600061414061413b61413684614111565b61411b565b61374d565b9050919050565b61415081614125565b82525050565b6000604082019050818103600083015261416f816140ee565b905061417e6020830184614147565b92915050565b7f506c61796572206973206e6f742070617274696369706174696e6720696e207460008201527f68652067616d6500000000000000000000000000000000000000000000000000602082015250565b60006141e0602783613ba3565b91506141eb82614184565b604082019050919050565b6000602082019050818103600083015261420f816141d3565b9050919050565b7f506c61796572206e6f7420666f756e6420696e207468652067616d6500000000600082015250565b600061424c601c83613ba3565b915061425782614216565b602082019050919050565b6000602082019050818103600083015261427b8161423f565b9050919050565b7f4e6f7420746865206465616c6572000000000000000000000000000000000000600082015250565b60006142b8600e83613ba3565b91506142c382614282565b602082019050919050565b600060208201905081810360008301526142e7816142ab565b9050919050565b7f4e6f7420656e6f75676820706c617965727320746f207374617274207468652060008201527f67616d6500000000000000000000000000000000000000000000000000000000602082015250565b600061434a602483613ba3565b9150614355826142ee565b604082019050919050565b600060208201905081810360008301526143798161433d565b9050919050565b60006020820190506143956000830184613970565b92915050565b7f496e636f7272656374206275792d696e20616d6f756e74000000000000000000600082015250565b60006143d1601783613ba3565b91506143dc8261439b565b602082019050919050565b60006020820190508181036000830152614400816143c4565b9050919050565b7f47616d652069732066756c6c0000000000000000000000000000000000000000600082015250565b600061443d600c83613ba3565b915061444882614407565b602082019050919050565b6000602082019050818103600083015261446c81614430565b9050919050565b7f4e487b7100000000000000000000000000000000000000000000000000000000600052604160045260246000fd5b7f506c61796572206e6f7420666f756e6400000000000000000000000000000000600082015250565b60006144d8601083613ba3565b91506144e3826144a2565b602082019050919050565b60006020820190508181036000830152614507816144cb565b9050919050565b7f4e487b7100000000000000000000000000000000000000000000000000000000600052601260045260246000fd5b60006145488261374d565b91506145538361374d565b9250826145635761456261450e565b5b828206905092915050565b6000819050919050565b6145896145848261374d565b61456e565b82525050565b600081549050919050565b600081905092915050565b60008190508160005260206000209050919050565b6145c3816137dc565b82525050565b60008160001c9050919050565b600060ff82169050919050565b60006145f66145f1836145c9565b6145d6565b9050919050565b60008160081c9050919050565b600061461d614618836145fd565b6145d6565b9050919050565b60008160101c9050919050565b600061464461463f83614624565b6145d6565b9050919050565b60008160181c9050919050565b600061466b6146668361464b565b6145d6565b9050919050565b60008160201c9050919050565b600061469261468d83614672565b6145d6565b9050919050565b60008160281c9050919050565b60006146b96146b483614699565b6145d6565b9050919050565b60008160301c9050919050565b60006146e06146db836146c0565b6145d6565b9050919050565b60008160381c9050919050565b6000614707614702836146e7565b6145d6565b9050919050565b60008160401c9050919050565b600061472e6147298361470e565b6145d6565b9050919050565b60008160481c9050919050565b600061475561475083614735565b6145d6565b9050919050565b60008160501c9050919050565b600061477c6147778361475c565b6145d6565b9050919050565b60008160581c9050919050565b60006147a361479e83614783565b6145d6565b9050919050565b60008160601c9050919050565b60006147ca6147c5836147aa565b6145d6565b9050919050565b60008160681c9050919050565b60006147f16147ec836147d1565b6145d6565b9050919050565b60008160701c9050919050565b6000614818614813836147f8565b6145d6565b9050919050565b60008160781c9050919050565b600061483f61483a8361481f565b6145d6565b9050919050565b60008160801c9050919050565b600061486661486183614846565b6145d6565b9050919050565b60008160881c9050919050565b600061488d6148888361486d565b6145d6565b9050919050565b60008160901c9050919050565b60006148b46148af83614894565b6145d6565b9050919050565b60008160981c9050919050565b60006148db6148d6836148bb565b6145d6565b9050919050565b60008160a01c9050919050565b60006149026148fd836148e2565b6145d6565b9050919050565b60008160a81c9050919050565b600061492961492483614909565b6145d6565b9050919050565b60008160b01c9050919050565b600061495061494b83614930565b6145d6565b9050919050565b60008160b81c9050919050565b600061497761497283614957565b6145d6565b9050919050565b60008160c01c9050919050565b600061499e6149998361497e565b6145d6565b9050919050565b60008160c81c9050919050565b60006149c56149c0836149a5565b6145d6565b9050919050565b60008160d01c9050919050565b60006149ec6149e7836149cc565b6145d6565b9050919050565b60008160d81c9050919050565b6000614a13614a0e836149f3565b6145d6565b9050919050565b60008160e01c9050919050565b6000614a3a614a3583614a1a565b6145d6565b9050919050565b60008160e81c9050919050565b6000614a61614a5c83614a41565b6145d6565b9050919050565b60008160f01c9050919050565b6000614a88614a8383614a68565b6145d6565b9050919050565b60008160f81c9050919050565b6000614aaf614aaa83614a8f565b6145d6565b9050919050565b6000614ac18261458f565b614acb818561459a565b935083614ad7846145a5565b6000600115614e04575b83600160200382011015614e03578154614b0388614afe836145e3565b6145ba565b602088019750614b1b88614b168361460a565b6145ba565b602088019750614b3388614b2e83614631565b6145ba565b602088019750614b4b88614b4683614658565b6145ba565b602088019750614b6388614b5e8361467f565b6145ba565b602088019750614b7b88614b76836146a6565b6145ba565b602088019750614b9388614b8e836146cd565b6145ba565b602088019750614bab88614ba6836146f4565b6145ba565b602088019750614bc388614bbe8361471b565b6145ba565b602088019750614bdb88614bd683614742565b6145ba565b602088019750614bf388614bee83614769565b6145ba565b602088019750614c0b88614c0683614790565b6145ba565b602088019750614c2388614c1e836147b7565b6145ba565b602088019750614c3b88614c36836147de565b6145ba565b602088019750614c5388614c4e83614805565b6145ba565b602088019750614c6b88614c668361482c565b6145ba565b602088019750614c8388614c7e83614853565b6145ba565b602088019750614c9b88614c968361487a565b6145ba565b602088019750614cb388614cae836148a1565b6145ba565b602088019750614ccb88614cc6836148c8565b6145ba565b602088019750614ce388614cde836148ef565b6145ba565b602088019750614cfb88614cf683614916565b6145ba565b602088019750614d1388614d0e8361493d565b6145ba565b602088019750614d2b88614d2683614964565b6145ba565b602088019750614d4388614d3e8361498b565b6145ba565b602088019750614d5b88614d56836149b2565b6145ba565b602088019750614d7388614d6e836149d9565b6145ba565b602088019750614d8b88614d8683614a00565b6145ba565b602088019750614da388614d9e83614a27565b6145ba565b602088019750614dbb88614db683614a4e565b6145ba565b602088019750614dd388614dce83614a75565b6145ba565b602088019750614deb88614de683614a9c565b6145ba565b60208801975060018301925050602081019050614ae1565b5b6001156152ef57815484821015614e3457614e2788614e22836145e3565b6145ba565b6020880197506001820191505b84821015614e5b57614e4e88614e498361460a565b6145ba565b6020880197506001820191505b84821015614e8257614e7588614e7083614631565b6145ba565b6020880197506001820191505b84821015614ea957614e9c88614e9783614658565b6145ba565b6020880197506001820191505b84821015614ed057614ec388614ebe8361467f565b6145ba565b6020880197506001820191505b84821015614ef757614eea88614ee5836146a6565b6145ba565b6020880197506001820191505b84821015614f1e57614f1188614f0c836146cd565b6145ba565b6020880197506001820191505b84821015614f4557614f3888614f33836146f4565b6145ba565b6020880197506001820191505b84821015614f6c57614f5f88614f5a8361471b565b6145ba565b6020880197506001820191505b84821015614f9357614f8688614f8183614742565b6145ba565b6020880197506001820191505b84821015614fba57614fad88614fa883614769565b6145ba565b6020880197506001820191505b84821015614fe157614fd488614fcf83614790565b6145ba565b6020880197506001820191505b8482101561500857614ffb88614ff6836147b7565b6145ba565b6020880197506001820191505b8482101561502f576150228861501d836147de565b6145ba565b6020880197506001820191505b84821015615056576150498861504483614805565b6145ba565b6020880197506001820191505b8482101561507d576150708861506b8361482c565b6145ba565b6020880197506001820191505b848210156150a4576150978861509283614853565b6145ba565b6020880197506001820191505b848210156150cb576150be886150b98361487a565b6145ba565b6020880197506001820191505b848210156150f2576150e5886150e0836148a1565b6145ba565b6020880197506001820191505b848210156151195761510c88615107836148c8565b6145ba565b6020880197506001820191505b84821015615140576151338861512e836148ef565b6145ba565b6020880197506001820191505b848210156151675761515a8861515583614916565b6145ba565b6020880197506001820191505b8482101561518e576151818861517c8361493d565b6145ba565b6020880197506001820191505b848210156151b5576151a8886151a383614964565b6145ba565b6020880197506001820191505b848210156151dc576151cf886151ca8361498b565b6145ba565b6020880197506001820191505b84821015615203576151f6886151f1836149b2565b6145ba565b6020880197506001820191505b8482101561522a5761521d88615218836149d9565b6145ba565b6020880197506001820191505b84821015615251576152448861523f83614a00565b6145ba565b6020880197506001820191505b848210156152785761526b8861526683614a27565b6145ba565b6020880197506001820191505b8482101561529f576152928861528d83614a4e565b6145ba565b6020880197506001820191505b848210156152c6576152b9886152b483614a75565b6145ba565b6020880197506001820191505b848210156152ed576152e0886152db83614a9c565b6145ba565b6020880197506001820191505b505b8694505050505092915050565b60006153088286614578565b6020820191506153188285614578565b6020820191506153288284614ab6565b9150819050949350505050565b60006153408261374d565b91506000820361535357615352613dd0565b5b600182039050919050565b7f4e6f206361726473206c65667420746f206465616c0000000000000000000000600082015250565b6000615394601583613ba3565b915061539f8261535e565b602082019050919050565b600060208201905081810360008301526153c381615387565b9050919050565b7f4e487b7100000000000000000000000000000000000000000000000000000000600052603160045260246000fd5b7f4e6f7420656e6f75676820636f6d6d756e69747920636172647320746f20726560008201527f7665616c00000000000000000000000000000000000000000000000000000000602082015250565b6000615455602483613ba3565b9150615460826153f9565b604082019050919050565b6000602082019050818103600083015261548481615448565b9050919050565b600081549050919050565b60008190508160005260206000209050919050565b60006154b68261548b565b6154c081856137bb565b9350836154cc84615496565b60006001156157f9575b836001602003820110156157f85781546154f8886154f3836145e3565b6137e9565b6020880197506155108861550b8361460a565b6137e9565b6020880197506155288861552383614631565b6137e9565b6020880197506155408861553b83614658565b6137e9565b602088019750615558886155538361467f565b6137e9565b6020880197506155708861556b836146a6565b6137e9565b60208801975061558888615583836146cd565b6137e9565b6020880197506155a08861559b836146f4565b6137e9565b6020880197506155b8886155b38361471b565b6137e9565b6020880197506155d0886155cb83614742565b6137e9565b6020880197506155e8886155e383614769565b6137e9565b602088019750615600886155fb83614790565b6137e9565b60208801975061561888615613836147b7565b6137e9565b6020880197506156308861562b836147de565b6137e9565b6020880197506156488861564383614805565b6137e9565b6020880197506156608861565b8361482c565b6137e9565b6020880197506156788861567383614853565b6137e9565b6020880197506156908861568b8361487a565b6137e9565b6020880197506156a8886156a3836148a1565b6137e9565b6020880197506156c0886156bb836148c8565b6137e9565b6020880197506156d8886156d3836148ef565b6137e9565b6020880197506156f0886156eb83614916565b6137e9565b602088019750615708886157038361493d565b6137e9565b6020880197506157208861571b83614964565b6137e9565b602088019750615738886157338361498b565b6137e9565b6020880197506157508861574b836149b2565b6137e9565b60208801975061576888615763836149d9565b6137e9565b6020880197506157808861577b83614a00565b6137e9565b6020880197506157988861579383614a27565b6137e9565b6020880197506157b0886157ab83614a4e565b6137e9565b6020880197506157c8886157c383614a75565b6137e9565b6020880197506157e0886157db83614a9c565b6137e9565b602088019750600183019250506020810190506154d6565b5b600115615ce4578154848210156158295761581c88615817836145e3565b6137e9565b6020880197506001820191505b84821015615850576158438861583e8361460a565b6137e9565b6020880197506001820191505b848210156158775761586a8861586583614631565b6137e9565b6020880197506001820191505b8482101561589e576158918861588c83614658565b6137e9565b6020880197506001820191505b848210156158c5576158b8886158b38361467f565b6137e9565b6020880197506001820191505b848210156158ec576158df886158da836146a6565b6137e9565b6020880197506001820191505b848210156159135761590688615901836146cd565b6137e9565b6020880197506001820191505b8482101561593a5761592d88615928836146f4565b6137e9565b6020880197506001820191505b84821015615961576159548861594f8361471b565b6137e9565b6020880197506001820191505b848210156159885761597b8861597683614742565b6137e9565b6020880197506001820191505b848210156159af576159a28861599d83614769565b6137e9565b6020880197506001820191505b848210156159d6576159c9886159c483614790565b6137e9565b6020880197506001820191505b848210156159fd576159f0886159eb836147b7565b6137e9565b6020880197506001820191505b84821015615a2457615a1788615a12836147de565b6137e9565b6020880197506001820191505b84821015615a4b57615a3e88615a3983614805565b6137e9565b6020880197506001820191505b84821015615a7257615a6588615a608361482c565b6137e9565b6020880197506001820191505b84821015615a9957615a8c88615a8783614853565b6137e9565b6020880197506001820191505b84821015615ac057615ab388615aae8361487a565b6137e9565b6020880197506001820191505b84821015615ae757615ada88615ad5836148a1565b6137e9565b6020880197506001820191505b84821015615b0e57615b0188615afc836148c8565b6137e9565b6020880197506001820191505b84821015615b3557615b2888615b23836148ef565b6137e9565b6020880197506001820191505b84821015615b5c57615b4f88615b4a83614916565b6137e9565b6020880197506001820191505b84821015615b8357615b7688615b718361493d565b6137e9565b6020880197506001820191505b84821015615baa57615b9d88615b9883614964565b6137e9565b6020880197506001820191505b84821015615bd157615bc488615bbf8361498b565b6137e9565b6020880197506001820191505b84821015615bf857615beb88615be6836149b2565b6137e9565b6020880197506001820191505b84821015615c1f57615c1288615c0d836149d9565b6137e9565b6020880197506001820191505b84821015615c4657615c3988615c3483614a00565b6137e9565b6020880197506001820191505b84821015615c6d57615c6088615c5b83614a27565b6137e9565b6020880197506001820191505b84821015615c9457615c8788615c8283614a4e565b6137e9565b6020880197506001820191505b84821015615cbb57615cae88615ca983614a75565b6137e9565b6020880197506001820191505b84821015615ce257615cd588615cd083614a9c565b6137e9565b6020880197506001820191505b505b8694505050505092915050565b60006020820190508181036000830152615d0b81846154ab565b905092915050565b6000615d2e615d29615d24846138ac565b61411b565b6138ac565b9050919050565b6000615d4082615d13565b9050919050565b6000615d5282615d35565b9050919050565b615d6281615d47565b82525050565b6000604082019050615d7d6000830185615d59565b615d8a602083018461389d565b9392505050565b6000604082019050615da660008301856138de565b615db36020830184614147565b9392505050565b6000615dc5826137dc565b915060ff8203615dd857615dd7613dd0565b5b600182019050919050565b6000615dee826137dc565b9150615df9836137dc565b9250828201905060ff811115615e1257615e11613dd0565b5b9291505056fea2646970667358221220d641b38ad1076e42c80450d0df81964906924f02728e42ed591d7d2362ffa08b64736f6c634300081b0033",
  "linkReferences": {},
  "deployedLinkReferences": {}
}