{
  "_format": "hh-sol-artifact-1",
  "contractName": "Poker",
  "sourceName": "contracts/PokerContract.sol",
  "abi": [
    {
      "inputs": [],
      "stateMutability": "nonpayable",
      "type": "constructor"
    },
    {
      "anonymous": false,
      "inputs": [
        {
          "indexed": true,
          "internalType": "uint256",
          "name": "gameId",
          "type": "uint256"
        }
      ],
      "name": "CardsDealt",
      "type": "event"
    },
    {
      "anonymous": false,
      "inputs": [
        {
          "indexed": true,
          "internalType": "uint256",
          "name": "gameId",
          "type": "uint256"
        },
        {
          "indexed": false,
          "internalType": "uint8[]",
          "name": "cards",
          "type": "uint8[]"
        }
      ],
      "name": "CommunityCardsRevealed",
      "type": "event"
    },
    {
      "anonymous": false,
      "inputs": [
        {
          "indexed": true,
          "internalType": "uint256",
          "name": "gameId",
          "type": "uint256"
        },
        {
          "indexed": true,
          "internalType": "address",
          "name": "dealer",
          "type": "address"
        },
        {
          "indexed": false,
          "internalType": "uint256",
          "name": "buyIn",
          "type": "uint256"
        }
      ],
      "name": "GameCreated",
      "type": "event"
    },
    {
      "anonymous": false,
      "inputs": [
        {
          "indexed": true,
          "internalType": "uint256",
          "name": "gameId",
          "type": "uint256"
        },
        {
          "indexed": false,
          "internalType": "address",
          "name": "winner",
          "type": "address"
        },
        {
          "indexed": false,
          "internalType": "uint256",
          "name": "winningAmount",
          "type": "uint256"
        }
      ],
      "name": "GameEnded",
      "type": "event"
    },
    {
      "anonymous": false,
      "inputs": [
        {
          "indexed": true,
          "internalType": "uint256",
          "name": "gameId",
          "type": "uint256"
        }
      ],
      "name": "GameStarted",
      "type": "event"
    },
    {
      "anonymous": false,
      "inputs": [
        {
          "indexed": true,
          "internalType": "uint256",
          "name": "gameId",
          "type": "uint256"
        },
        {
          "indexed": false,
          "internalType": "enum Poker.GameState",
          "name": "newState",
          "type": "uint8"
        }
      ],
      "name": "GameStateChanged",
      "type": "event"
    },
    {
      "anonymous": false,
      "inputs": [
        {
          "indexed": true,
          "internalType": "uint256",
          "name": "gameId",
          "type": "uint256"
        },
        {
          "indexed": true,
          "internalType": "address",
          "name": "player",
          "type": "address"
        },
        {
          "indexed": false,
          "internalType": "string",
          "name": "action",
          "type": "string"
        },
        {
          "indexed": false,
          "internalType": "uint256",
          "name": "amount",
          "type": "uint256"
        }
      ],
      "name": "PlayerAction",
      "type": "event"
    },
    {
      "anonymous": false,
      "inputs": [
        {
          "indexed": true,
          "internalType": "uint256",
          "name": "gameId",
          "type": "uint256"
        },
        {
          "indexed": true,
          "internalType": "address",
          "name": "player",
          "type": "address"
        },
        {
          "indexed": false,
          "internalType": "uint8[]",
          "name": "hand",
          "type": "uint8[]"
        }
      ],
      "name": "PlayerHandRevealed",
      "type": "event"
    },
    {
      "anonymous": false,
      "inputs": [
        {
          "indexed": true,
          "internalType": "uint256",
          "name": "gameId",
          "type": "uint256"
        },
        {
          "indexed": true,
          "internalType": "address",
          "name": "player",
          "type": "address"
        }
      ],
      "name": "PlayerJoined",
      "type": "event"
    },
    {
      "anonymous": false,
      "inputs": [
        {
          "indexed": true,
          "internalType": "uint256",
          "name": "gameId",
          "type": "uint256"
        },
        {
          "indexed": false,
          "internalType": "enum Poker.GameState",
          "name": "newState",
          "type": "uint8"
        }
      ],
      "name": "RoundEnded",
      "type": "event"
    },
    {
      "inputs": [
        {
          "internalType": "uint256",
          "name": "_gameId",
          "type": "uint256"
        },
        {
          "internalType": "uint256",
          "name": "_amount",
          "type": "uint256"
        }
      ],
      "name": "bet",
      "outputs": [],
      "stateMutability": "nonpayable",
      "type": "function"
    },
    {
      "inputs": [
        {
          "internalType": "uint256",
          "name": "_gameId",
          "type": "uint256"
        }
      ],
      "name": "call",
      "outputs": [],
      "stateMutability": "nonpayable",
      "type": "function"
    },
    {
      "inputs": [
        {
          "internalType": "uint256",
          "name": "_buyIn",
          "type": "uint256"
        }
      ],
      "name": "createGame",
      "outputs": [],
      "stateMutability": "nonpayable",
      "type": "function"
    },
    {
      "inputs": [
        {
          "internalType": "uint256",
          "name": "_gameId",
          "type": "uint256"
        }
      ],
      "name": "fold",
      "outputs": [],
      "stateMutability": "nonpayable",
      "type": "function"
    },
    {
      "inputs": [],
      "name": "gameCount",
      "outputs": [
        {
          "internalType": "uint256",
          "name": "",
          "type": "uint256"
        }
      ],
      "stateMutability": "view",
      "type": "function"
    },
    {
      "inputs": [
        {
          "internalType": "uint256",
          "name": "",
          "type": "uint256"
        }
      ],
      "name": "games",
      "outputs": [
        {
          "internalType": "uint256",
          "name": "gameId",
          "type": "uint256"
        },
        {
          "internalType": "address",
          "name": "dealer",
          "type": "address"
        },
        {
          "internalType": "uint256",
          "name": "pot",
          "type": "uint256"
        },
        {
          "internalType": "uint256",
          "name": "buyIn",
          "type": "uint256"
        },
        {
          "internalType": "bool",
          "name": "isActive",
          "type": "bool"
        },
        {
          "internalType": "uint256",
          "name": "currentBet",
          "type": "uint256"
        },
        {
          "internalType": "enum Poker.GameState",
          "name": "currentState",
          "type": "uint8"
        },
        {
          "internalType": "uint256",
          "name": "lastActionTimestamp",
          "type": "uint256"
        },
        {
          "internalType": "uint256",
          "name": "currentPlayerIndex",
          "type": "uint256"
        },
        {
          "internalType": "uint256",
          "name": "roundStartPlayerIndex",
          "type": "uint256"
        },
        {
          "internalType": "uint256",
          "name": "gameStartTime",
          "type": "uint256"
        },
        {
          "internalType": "uint256",
          "name": "roundEndTime",
          "type": "uint256"
        }
      ],
      "stateMutability": "view",
      "type": "function"
    },
    {
      "inputs": [
        {
          "internalType": "uint256",
          "name": "_gameId",
          "type": "uint256"
        }
      ],
      "name": "getCommunityCards",
      "outputs": [
        {
          "internalType": "uint8[]",
          "name": "",
          "type": "uint8[]"
        }
      ],
      "stateMutability": "view",
      "type": "function"
    },
    {
      "inputs": [
        {
          "internalType": "uint256",
          "name": "_gameId",
          "type": "uint256"
        },
        {
          "internalType": "address",
          "name": "_playerAddress",
          "type": "address"
        }
      ],
      "name": "getPlayerCards",
      "outputs": [
        {
          "internalType": "uint8[]",
          "name": "",
          "type": "uint8[]"
        }
      ],
      "stateMutability": "view",
      "type": "function"
    },
    {
      "inputs": [
        {
          "internalType": "uint256",
          "name": "_gameId",
          "type": "uint256"
        }
      ],
      "name": "joinGame",
      "outputs": [],
      "stateMutability": "payable",
      "type": "function"
    },
    {
      "inputs": [
        {
          "internalType": "uint256",
          "name": "",
          "type": "uint256"
        },
        {
          "internalType": "address",
          "name": "",
          "type": "address"
        }
      ],
      "name": "players",
      "outputs": [
        {
          "internalType": "address payable",
          "name": "playerAddress",
          "type": "address"
        },
        {
          "internalType": "bool",
          "name": "isParticipating",
          "type": "bool"
        },
        {
          "internalType": "uint256",
          "name": "chips",
          "type": "uint256"
        },
        {
          "internalType": "bool",
          "name": "hasActed",
          "type": "bool"
        },
        {
          "internalType": "bool",
          "name": "showCards",
          "type": "bool"
        }
      ],
      "stateMutability": "view",
      "type": "function"
    },
    {
      "inputs": [
        {
          "internalType": "uint256",
          "name": "_gameId",
          "type": "uint256"
        },
        {
          "internalType": "uint256",
          "name": "_amount",
          "type": "uint256"
        }
      ],
      "name": "raise_",
      "outputs": [],
      "stateMutability": "nonpayable",
      "type": "function"
    },
    {
      "inputs": [
        {
          "internalType": "uint256",
          "name": "_gameId",
          "type": "uint256"
        }
      ],
      "name": "startGame",
      "outputs": [],
      "stateMutability": "nonpayable",
      "type": "function"
    }
  ],
  "bytecode": "0x6080604052348015600f57600080fd5b5060006002819055506000600360006101000a81548160ff021916908315150217905550615201806100426000396000f3fe6080604052600436106100a75760003560e01c80636ffcc719116100645780636ffcc719146101d7578063bff7a00b14610200578063c0f8092114610229578063c653c9a11461026a578063e5ed1d59146102a7578063efaa55a0146102d0576100a7565b8063100e0035146100ac578063117a5b90146100e95780632b0969261461013157806348e837b91461015a5780634d1975b4146101835780634ed66a01146101ae575b600080fd5b3480156100b857600080fd5b506100d360048036038101906100ce9190612acb565b6102ec565b6040516100e09190612bc3565b60405180910390f35b3480156100f557600080fd5b50610110600480360381019061010b9190612acb565b61037f565b6040516101289c9b9a99989796959493929190612cc7565b60405180910390f35b34801561013d57600080fd5b5061015860048036038101906101539190612acb565b610419565b005b34801561016657600080fd5b50610181600480360381019061017c9190612acb565b610640565b005b34801561018f57600080fd5b506101986107be565b6040516101a59190612d81565b60405180910390f35b3480156101ba57600080fd5b506101d560048036038101906101d09190612d9c565b6107c4565b005b3480156101e357600080fd5b506101fe60048036038101906101f99190612d9c565b610a2d565b005b34801561020c57600080fd5b5061022760048036038101906102229190612acb565b610c96565b005b34801561023557600080fd5b50610250600480360381019061024b9190612e08565b610e50565b604051610261959493929190612e69565b60405180910390f35b34801561027657600080fd5b50610291600480360381019061028c9190612e08565b610eda565b60405161029e9190612bc3565b60405180910390f35b3480156102b357600080fd5b506102ce60048036038101906102c99190612acb565b6110e6565b005b6102ea60048036038101906102e59190612acb565b611251565b005b606060008083815260200190815260200160002060080180548060200260200160405190810160405280929190818152602001828054801561037357602002820191906000526020600020906000905b82829054906101000a900460ff1660ff168152602001906001019060208260000104928301926001038202915080841161033c5790505b50505050509050919050565b60006020528060005260406000206000915090508060000154908060010160009054906101000a900473ffffffffffffffffffffffffffffffffffffffff16908060020154908060030154908060050160009054906101000a900460ff16908060060154908060090160009054906101000a900460ff169080600a01549080600b01549080600c01549080600d01549080600e015490508c565b8060008082815260200190815260200160002060050160009054906101000a900460ff1661047c576040517f08c379a000000000000000000000000000000000000000000000000000000000815260040161047390612f19565b60405180910390fd5b8161048781336114ed565b6104c6576040517f08c379a00000000000000000000000000000000000000000000000000000000081526004016104bd90612f85565b60405180910390fd5b6000806000858152602001908152602001600020905080600e01544210610522576040517f08c379a000000000000000000000000000000000000000000000000000000000815260040161051990612ff1565b60405180910390fd5b600061052e85336115f3565b905081600601548160010154101561057b576040517f08c379a00000000000000000000000000000000000000000000000000000000081526004016105729061305d565b60405180910390fd5b6000826006015490508082600101600082825461059891906130ac565b92505081905550808360020160008282546105b391906130e0565b925050819055504283600a018190555060018260030160006101000a81548160ff0219169083151502179055503373ffffffffffffffffffffffffffffffffffffffff16867ff3d4f57e05aae06b4017c0b2ed81f62aa6f19deef046d6a78ad2a4223858c4f0836040516106279190613160565b60405180910390a361063886611712565b505050505050565b60008111610683576040517f08c379a000000000000000000000000000000000000000000000000000000000815260040161067a906131da565b60405180910390fd5b60016002600082825461069691906130e0565b925050819055506000806000600254815260200190815260200160002090506002548160000181905550338160010160006101000a81548173ffffffffffffffffffffffffffffffffffffffff021916908373ffffffffffffffffffffffffffffffffffffffff16021790555081816003018190555060018160050160006101000a81548160ff0219169083151502179055506000816006018190555060008160090160006101000a81548160ff0219169083600481111561075b5761075a612c50565b5b02179055504281600a01819055503373ffffffffffffffffffffffffffffffffffffffff166002547f7dfb67e9ff596fca4da65c7eedb128cd1aac553af54b3c0cb733625a2480d8bd846040516107b29190612d81565b60405180910390a35050565b60025481565b8160008082815260200190815260200160002060050160009054906101000a900460ff16610827576040517f08c379a000000000000000000000000000000000000000000000000000000000815260040161081e90612f19565b60405180910390fd5b8261083281336114ed565b610871576040517f08c379a000000000000000000000000000000000000000000000000000000000815260040161086890612f85565b60405180910390fd5b6000806000868152602001908152602001600020905080600e015442106108cd576040517f08c379a00000000000000000000000000000000000000000000000000000000081526004016108c490612ff1565b60405180910390fd5b80600601548411610913576040517f08c379a000000000000000000000000000000000000000000000000000000000815260040161090a9061326c565b60405180910390fd5b600061091f86336115f3565b90508481600101541015610968576040517f08c379a000000000000000000000000000000000000000000000000000000000815260040161095f906132d8565b60405180910390fd5b8482600201600082825461097c91906130e0565b925050819055508481600101600082825461099791906130ac565b925050819055508482600601819055504282600a018190555060018160030160006101000a81548160ff0219169083151502179055503373ffffffffffffffffffffffffffffffffffffffff16867ff3d4f57e05aae06b4017c0b2ed81f62aa6f19deef046d6a78ad2a4223858c4f087604051610a149190613344565b60405180910390a3610a2586611712565b505050505050565b8160008082815260200190815260200160002060050160009054906101000a900460ff16610a90576040517f08c379a0000000000000000000000000000000000000000000000000000000008152600401610a8790612f19565b60405180910390fd5b82610a9b81336114ed565b610ada576040517f08c379a0000000000000000000000000000000000000000000000000000000008152600401610ad190612f85565b60405180910390fd5b6000806000868152602001908152602001600020905080600e01544210610b36576040517f08c379a0000000000000000000000000000000000000000000000000000000008152600401610b2d90612ff1565b60405180910390fd5b80600601548411610b7c576040517f08c379a0000000000000000000000000000000000000000000000000000000008152600401610b73906133e4565b60405180910390fd5b6000610b8886336115f3565b90508481600101541015610bd1576040517f08c379a0000000000000000000000000000000000000000000000000000000008152600401610bc890613450565b60405180910390fd5b84826002016000828254610be591906130e0565b9250508190555084816001016000828254610c0091906130ac565b925050819055508482600601819055504282600a018190555060018160030160006101000a81548160ff0219169083151502179055503373ffffffffffffffffffffffffffffffffffffffff16867ff3d4f57e05aae06b4017c0b2ed81f62aa6f19deef046d6a78ad2a4223858c4f087604051610c7d91906134bc565b60405180910390a3610c8e86611712565b505050505050565b8060008082815260200190815260200160002060050160009054906101000a900460ff16610cf9576040517f08c379a0000000000000000000000000000000000000000000000000000000008152600401610cf090612f19565b60405180910390fd5b81610d0481336114ed565b610d43576040517f08c379a0000000000000000000000000000000000000000000000000000000008152600401610d3a90612f85565b60405180910390fd5b6000806000858152602001908152602001600020905080600e01544210610d9f576040517f08c379a0000000000000000000000000000000000000000000000000000000008152600401610d9690612ff1565b60405180910390fd5b6000610dab85336115f3565b905060008160000160146101000a81548160ff0219169083151502179055504282600a018190555060018160030160006101000a81548160ff0219169083151502179055503373ffffffffffffffffffffffffffffffffffffffff16857ff3d4f57e05aae06b4017c0b2ed81f62aa6f19deef046d6a78ad2a4223858c4f06000604051610e38919061357b565b60405180910390a3610e4985611712565b5050505050565b6001602052816000526040600020602052806000526040600020600091509150508060000160009054906101000a900473ffffffffffffffffffffffffffffffffffffffff16908060000160149054906101000a900460ff16908060010154908060030160009054906101000a900460ff16908060030160019054906101000a900460ff16905085565b60606000806000858152602001908152602001600020905060005b81600401805490508110156110a4578373ffffffffffffffffffffffffffffffffffffffff16826004018281548110610f3157610f306135a9565b5b906000526020600020906004020160000160009054906101000a900473ffffffffffffffffffffffffffffffffffffffff1673ffffffffffffffffffffffffffffffffffffffff160361109757816004018181548110610f9457610f936135a9565b5b906000526020600020906004020160000160149054906101000a900460ff16610ff2576040517f08c379a0000000000000000000000000000000000000000000000000000000008152600401610fe99061364a565b60405180910390fd5b816004018181548110611008576110076135a9565b5b906000526020600020906004020160020180548060200260200160405190810160405280929190818152602001828054801561108957602002820191906000526020600020906000905b82829054906101000a900460ff1660ff16815260200190600101906020826000010492830192600103820291508084116110525790505b5050505050925050506110e0565b8080600101915050610ef5565b506040517f08c379a00000000000000000000000000000000000000000000000000000000081526004016110d7906136b6565b60405180910390fd5b92915050565b8060008082815260200190815260200160002060050160009054906101000a900460ff16611149576040517f08c379a000000000000000000000000000000000000000000000000000000000815260040161114090612f19565b60405180910390fd5b600080600084815260200190815260200160002090506002816004018054905010156111aa576040517f08c379a00000000000000000000000000000000000000000000000000000000081526004016111a190613748565b60405180910390fd5b6111b3836117f7565b600081600b0181905550600081600c01819055504281600d0181905550610258426111de91906130e0565b81600e0181905550827f50ad08f58a27f2851d7e3a1b3a6a46b290f2ce677e99642d30ff639721e7779060405160405180910390a2827fb92fff70f4ba958693033f3e4e0baea37ae26d410410dcb011bb2f0ee7ba5bd160006040516112449190613768565b60405180910390a2505050565b6000806000838152602001908152602001600020905080600301543410156112ae576040517f08c379a00000000000000000000000000000000000000000000000000000000081526004016112a5906137cf565b60405180910390fd5b60038160040180549050106112f8576040517f08c379a00000000000000000000000000000000000000000000000000000000081526004016112ef9061383b565b60405180910390fd5b806004016040518060c001604052803373ffffffffffffffffffffffffffffffffffffffff168152602001600115158152602001348152602001600067ffffffffffffffff81111561134d5761134c61385b565b5b60405190808252806020026020018201604052801561137b5781602001602082028036833780820191505090505b50815260200160001515815260200160001515815250908060018154018082558091505060019003906000526020600020906004020160009091909190915060008201518160000160006101000a81548173ffffffffffffffffffffffffffffffffffffffff021916908373ffffffffffffffffffffffffffffffffffffffff16021790555060208201518160000160146101000a81548160ff0219169083151502179055506040820151816001015560608201518160020190805190602001906114479291906129cc565b5060808201518160030160006101000a81548160ff02191690831515021790555060a08201518160030160016101000a81548160ff02191690831515021790555050503481600201600082825461149e91906130e0565b925050819055503373ffffffffffffffffffffffffffffffffffffffff16827f87969bc7faf902221a147b95ceba76e011c5efb0339a0a8ee7a2bb82d9cfbbd660405160405180910390a35050565b600080600080858152602001908152602001600020905060005b81600401805490508110156115e6578373ffffffffffffffffffffffffffffffffffffffff16826004018281548110611543576115426135a9565b5b906000526020600020906004020160000160009054906101000a900473ffffffffffffffffffffffffffffffffffffffff1673ffffffffffffffffffffffffffffffffffffffff161480156115c957508160040181815481106115a9576115a86135a9565b5b906000526020600020906004020160000160149054906101000a900460ff165b156115d9576001925050506115ed565b8080600101915050611507565b5060009150505b92915050565b600080600080858152602001908152602001600020905060005b81600401805490508110156116d0578373ffffffffffffffffffffffffffffffffffffffff16826004018281548110611649576116486135a9565b5b906000526020600020906004020160000160009054906101000a900473ffffffffffffffffffffffffffffffffffffffff1673ffffffffffffffffffffffffffffffffffffffff16036116c3578160040181815481106116ac576116ab6135a9565b5b90600052602060002090600402019250505061170c565b808060010191505061160d565b506040517f08c379a0000000000000000000000000000000000000000000000000000000008152600401611703906138d6565b60405180910390fd5b92915050565b6000806000838152602001908152602001600020905060008160040180549050600183600b015461174391906130e0565b61174d9190613925565b90505b816004018181548110611766576117656135a9565b5b906000526020600020906004020160000160149054906101000a900460ff166117af57816004018054905060018261179e91906130e0565b6117a89190613925565b9050611750565b81600c01548114806117c657506117c583611a24565b5b806117d5575081600e01544210155b156117e8576117e383611ae9565b6117f2565b8082600b01819055505b505050565b60008060008381526020019081526020016000209050611815611db3565b81600701908051906020019061182c9291906129cc565b5061183981600701611e52565b60005b81600401805490508110156119f257816004018181548110611861576118606135a9565b5b906000526020600020906004020160000160149054906101000a900460ff16156119e557600267ffffffffffffffff8111156118a05761189f61385b565b5b6040519080825280602002602001820160405280156118ce5781602001602082028036833780820191505090505b508260040182815481106118e5576118e46135a9565b5b906000526020600020906004020160020190805190602001906119099291906129cc565b5061191382611fc0565b826004018281548110611929576119286135a9565b5b906000526020600020906004020160020160008154811061194d5761194c6135a9565b5b90600052602060002090602091828204019190066101000a81548160ff021916908360ff16021790555061198082611fc0565b826004018281548110611996576119956135a9565b5b90600052602060002090600402016002016001815481106119ba576119b96135a9565b5b90600052602060002090602091828204019190066101000a81548160ff021916908360ff1602179055505b808060010191505061183c565b50817f3b54117fc881ff244eef1480d834bc0a1cc974076b145521c0c86e0c7851f7b860405160405180910390a25050565b600080600080848152602001908152602001600020905060005b8160040180549050811015611add57816004018181548110611a6357611a626135a9565b5b906000526020600020906004020160000160149054906101000a900460ff168015611ac05750816004018181548110611a9f57611a9e6135a9565b5b906000526020600020906004020160030160009054906101000a900460ff16155b15611ad057600092505050611ae4565b8080600101915050611a3e565b5060019150505b919050565b6000806000838152602001908152602001600020905060006004811115611b1357611b12612c50565b5b8160090160009054906101000a900460ff166004811115611b3757611b36612c50565b5b03611b845760018160090160006101000a81548160ff02191690836004811115611b6457611b63612c50565b5b0217905550611b7481600361209f565b611b7f826003612111565b611d13565b60016004811115611b9857611b97612c50565b5b8160090160009054906101000a900460ff166004811115611bbc57611bbb612c50565b5b03611c095760028160090160006101000a81548160ff02191690836004811115611be957611be8612c50565b5b0217905550611bf981600161209f565b611c04826004612111565b611d12565b60026004811115611c1d57611c1c612c50565b5b8160090160009054906101000a900460ff166004811115611c4157611c40612c50565b5b03611c8e5760038160090160006101000a81548160ff02191690836004811115611c6e57611c6d612c50565b5b0217905550611c7e81600161209f565b611c89826005612111565b611d11565b60036004811115611ca257611ca1612c50565b5b8160090160009054906101000a900460ff166004811115611cc657611cc5612c50565b5b03611d105760048160090160006101000a81548160ff02191690836004811115611cf357611cf2612c50565b5b0217905550611d0182612284565b611d0a82612392565b50611db0565b5b5b5b817fb92fff70f4ba958693033f3e4e0baea37ae26d410410dcb011bb2f0ee7ba5bd18260090160009054906101000a900460ff16604051611d549190613768565b60405180910390a2817f3502d30ceab9ef8edf9d697a529b00029efc90f8f0e5876067615e91f30a655c8260090160009054906101000a900460ff16604051611d9d9190613768565b60405180910390a2611dae82612532565b505b50565b60606000603467ffffffffffffffff811115611dd257611dd161385b565b5b604051908082528060200260200182016040528015611e005781602001602082028036833780820191505090505b50905060005b60348160ff161015611e4a5780828260ff1681518110611e2957611e286135a9565b5b602002602001019060ff16908160ff16815250508080600101915050611e06565b508091505090565b6000818054905090506000600182611e6a91906130ac565b90505b6000811115611fbb576000600182611e8591906130e0565b444286604051602001611e9a939291906146e4565b6040516020818303038152906040528051906020012060001c611ebd9190613925565b9050838181548110611ed257611ed16135a9565b5b90600052602060002090602091828204019190069054906101000a900460ff16848381548110611f0557611f046135a9565b5b90600052602060002090602091828204019190069054906101000a900460ff16858481548110611f3857611f376135a9565b5b9060005260206000209060209182820401919006878581548110611f5f57611f5e6135a9565b5b90600052602060002090602091828204019190068491906101000a81548160ff021916908360ff1602179055508391906101000a81548160ff021916908360ff1602179055505050508080611fb39061471d565b915050611e6d565b505050565b60008082600701805490501161200b576040517f08c379a000000000000000000000000000000000000000000000000000000000815260040161200290614792565b60405180910390fd5b6000826007016001846007018054905061202591906130ac565b81548110612036576120356135a9565b5b90600052602060002090602091828204019190069054906101000a900460ff1690508260070180548061206c5761206b6147b2565b5b60019003818190600052602060002090602091828204019190066101000a81549060ff0219169055905580915050919050565b60005b8160ff168160ff16101561210c57826008016120bd84611fc0565b90806001815401808255809150506001900390600052602060002090602091828204019190069091909190916101000a81548160ff021916908360ff16021790555080806001019150506120a2565b505050565b6000806000848152602001908152602001600020905080600801805490508260ff161115612174576040517f08c379a000000000000000000000000000000000000000000000000000000000815260040161216b90614853565b60405180910390fd5b60008260ff1667ffffffffffffffff8111156121935761219261385b565b5b6040519080825280602002602001820160405280156121c15781602001602082028036833780820191505090505b50905060005b8360ff168160ff16101561224557826008018160ff16815481106121ee576121ed6135a9565b5b90600052602060002090602091828204019190069054906101000a900460ff16828260ff1681518110612224576122236135a9565b5b602002602001019060ff16908160ff168152505080806001019150506121c7565b50837f0a2b20519fcbbefa5c61f08c1e4ce977e58f4a76fb58bdf792c7932b52f4c6ef826040516122769190612bc3565b60405180910390a250505050565b6000806000838152602001908152602001600020905060005b816004018054905081101561238d5760008260040182815481106122c4576122c36135a9565b5b906000526020600020906004020190508060000160149054906101000a900460ff161561237f5760018160030160016101000a81548160ff0219169083151502179055508060000160009054906101000a900473ffffffffffffffffffffffffffffffffffffffff1673ffffffffffffffffffffffffffffffffffffffff16847ff86b89950822a93362fe357442a81cc48eacaff3abb2292da3e0ac3a6b6233a68360020160405161237691906150d9565b60405180910390a35b50808060010191505061229d565b505050565b600080600083815260200190815260200160002090508060050160009054906101000a900460ff166123f9576040517f08c379a00000000000000000000000000000000000000000000000000000000081526004016123f090612f19565b60405180910390fd5b60008160050160006101000a81548160ff02191690831515021790555060006124218361263f565b9050600073ffffffffffffffffffffffffffffffffffffffff168173ffffffffffffffffffffffffffffffffffffffff16146124f157600082600201549050600083600201819055508173ffffffffffffffffffffffffffffffffffffffff166108fc829081150290604051600060405180830381858888f193505050501580156124b0573d6000803e3d6000fd5b50837ff1898de79c348962fab7695532341027e5bceb0ea2a8785790fa7d7efeeee12983836040516124e3929190615150565b60405180910390a25061252d565b827ff1898de79c348962fab7695532341027e5bceb0ea2a8785790fa7d7efeeee129600080604051612524929190615179565b60405180910390a25b505050565b60008060008381526020019081526020016000209050600081600601819055508060040180549050600182600c015461256b91906130e0565b6125759190613925565b81600c018190555080600c015481600b01819055506102584261259891906130e0565b81600e018190555060005b816004018054905081101561263a578160040181815481106125c8576125c76135a9565b5b906000526020600020906004020160000160149054906101000a900460ff161561262d576000826004018281548110612604576126036135a9565b5b906000526020600020906004020160030160006101000a81548160ff0219169083151502179055505b80806001019150506125a3565b505050565b60008060008084815260200190815260200160002090506000806000905060005b83600401805490508110156127ef576000846004018281548110612687576126866135a9565b5b906000526020600020906004020190508060000160149054906101000a900460ff16156127e15760006127aa8260020180548060200260200160405190810160405280929190818152602001828054801561272757602002820191906000526020600020906000905b82829054906101000a900460ff1660ff16815260200190600101906020826000010492830192600103820291508084116126f05790505b5050505050876008018054806020026020016040519081016040528092919081815260200182805480156127a057602002820191906000526020600020906000905b82829054906101000a900460ff1660ff16815260200190600101906020826000010492830192600103820291508084116127695790505b50505050506127fb565b9050838111156127df578093508160000160009054906101000a900473ffffffffffffffffffffffffffffffffffffffff1694505b505b508080600101915050612660565b50819350505050919050565b6000808251845161280c91906130e0565b67ffffffffffffffff8111156128255761282461385b565b5b6040519080825280602002602001820160405280156128535781602001602082028036833780820191505090505b50905060005b84518160ff1610156128c057848160ff168151811061287b5761287a6135a9565b5b6020026020010151828260ff1681518110612899576128986135a9565b5b602002602001019060ff16908160ff168152505080806128b8906151a2565b915050612859565b5060005b83518160ff16101561293757838160ff16815181106128e6576128e56135a9565b5b6020026020010151828260ff1687516128ff91906130e0565b815181106129105761290f6135a9565b5b602002602001019060ff16908160ff1681525050808061292f906151a2565b9150506128c4565b506129418161294a565b91505092915050565b6000806000905060005b83518160ff1610156129bf578160ff16848260ff168151811061297a576129796135a9565b5b602002602001015160ff1611156129ac57838160ff16815181106129a1576129a06135a9565b5b602002602001015191505b80806129b7906151a2565b915050612954565b508060ff16915050919050565b82805482825590600052602060002090601f01602090048101928215612a625791602002820160005b83821115612a3357835183826101000a81548160ff021916908360ff16021790555092602001926001016020816000010492830192600103026129f5565b8015612a605782816101000a81549060ff0219169055600101602081600001049283019260010302612a33565b505b509050612a6f9190612a73565b5090565b5b80821115612a8c576000816000905550600101612a74565b5090565b600080fd5b6000819050919050565b612aa881612a95565b8114612ab357600080fd5b50565b600081359050612ac581612a9f565b92915050565b600060208284031215612ae157612ae0612a90565b5b6000612aef84828501612ab6565b91505092915050565b600081519050919050565b600082825260208201905092915050565b6000819050602082019050919050565b600060ff82169050919050565b612b3a81612b24565b82525050565b6000612b4c8383612b31565b60208301905092915050565b6000602082019050919050565b6000612b7082612af8565b612b7a8185612b03565b9350612b8583612b14565b8060005b83811015612bb6578151612b9d8882612b40565b9750612ba883612b58565b925050600181019050612b89565b5085935050505092915050565b60006020820190508181036000830152612bdd8184612b65565b905092915050565b612bee81612a95565b82525050565b600073ffffffffffffffffffffffffffffffffffffffff82169050919050565b6000612c1f82612bf4565b9050919050565b612c2f81612c14565b82525050565b60008115159050919050565b612c4a81612c35565b82525050565b7f4e487b7100000000000000000000000000000000000000000000000000000000600052602160045260246000fd5b60058110612c9057612c8f612c50565b5b50565b6000819050612ca182612c7f565b919050565b6000612cb182612c93565b9050919050565b612cc181612ca6565b82525050565b600061018082019050612cdd600083018f612be5565b612cea602083018e612c26565b612cf7604083018d612be5565b612d04606083018c612be5565b612d11608083018b612c41565b612d1e60a083018a612be5565b612d2b60c0830189612cb8565b612d3860e0830188612be5565b612d46610100830187612be5565b612d54610120830186612be5565b612d62610140830185612be5565b612d70610160830184612be5565b9d9c50505050505050505050505050565b6000602082019050612d966000830184612be5565b92915050565b60008060408385031215612db357612db2612a90565b5b6000612dc185828601612ab6565b9250506020612dd285828601612ab6565b9150509250929050565b612de581612c14565b8114612df057600080fd5b50565b600081359050612e0281612ddc565b92915050565b60008060408385031215612e1f57612e1e612a90565b5b6000612e2d85828601612ab6565b9250506020612e3e85828601612df3565b9150509250929050565b6000612e5382612bf4565b9050919050565b612e6381612e48565b82525050565b600060a082019050612e7e6000830188612e5a565b612e8b6020830187612c41565b612e986040830186612be5565b612ea56060830185612c41565b612eb26080830184612c41565b9695505050505050565b600082825260208201905092915050565b7f47616d65206973206e6f74206163746976650000000000000000000000000000600082015250565b6000612f03601283612ebc565b9150612f0e82612ecd565b602082019050919050565b60006020820190508181036000830152612f3281612ef6565b9050919050565b7f4e6f7420612070617274696369706174696e6720706c61796572000000000000600082015250565b6000612f6f601a83612ebc565b9150612f7a82612f39565b602082019050919050565b60006020820190508181036000830152612f9e81612f62565b9050919050565b7f526f756e642068617320656e6465640000000000000000000000000000000000600082015250565b6000612fdb600f83612ebc565b9150612fe682612fa5565b602082019050919050565b6000602082019050818103600083015261300a81612fce565b9050919050565b7f4e6f7420656e6f75676820636869707320746f2063616c6c0000000000000000600082015250565b6000613047601883612ebc565b915061305282613011565b602082019050919050565b600060208201905081810360008301526130768161303a565b9050919050565b7f4e487b7100000000000000000000000000000000000000000000000000000000600052601160045260246000fd5b60006130b782612a95565b91506130c283612a95565b92508282039050818111156130da576130d961307d565b5b92915050565b60006130eb82612a95565b91506130f683612a95565b925082820190508082111561310e5761310d61307d565b5b92915050565b7f43616c6c00000000000000000000000000000000000000000000000000000000600082015250565b600061314a600483612ebc565b915061315582613114565b602082019050919050565b600060408201905081810360008301526131798161313d565b90506131886020830184612be5565b92915050565b7f4275792d696e206d7573742062652067726561746572207468616e207a65726f600082015250565b60006131c4602083612ebc565b91506131cf8261318e565b602082019050919050565b600060208201905081810360008301526131f3816131b7565b9050919050565b7f5261697365206d75737420626520686967686572207468616e2063757272656e60008201527f7420626574000000000000000000000000000000000000000000000000000000602082015250565b6000613256602583612ebc565b9150613261826131fa565b604082019050919050565b6000602082019050818103600083015261328581613249565b9050919050565b7f4e6f7420656e6f75676820636869707320746f20726169736500000000000000600082015250565b60006132c2601983612ebc565b91506132cd8261328c565b602082019050919050565b600060208201905081810360008301526132f1816132b5565b9050919050565b7f5261697365000000000000000000000000000000000000000000000000000000600082015250565b600061332e600583612ebc565b9150613339826132f8565b602082019050919050565b6000604082019050818103600083015261335d81613321565b905061336c6020830184612be5565b92915050565b7f426574206d75737420626520686967686572207468616e2063757272656e742060008201527f6265740000000000000000000000000000000000000000000000000000000000602082015250565b60006133ce602383612ebc565b91506133d982613372565b604082019050919050565b600060208201905081810360008301526133fd816133c1565b9050919050565b7f4e6f7420656e6f75676820636869707300000000000000000000000000000000600082015250565b600061343a601083612ebc565b915061344582613404565b602082019050919050565b600060208201905081810360008301526134698161342d565b9050919050565b7f4265740000000000000000000000000000000000000000000000000000000000600082015250565b60006134a6600383612ebc565b91506134b182613470565b602082019050919050565b600060408201905081810360008301526134d581613499565b90506134e46020830184612be5565b92915050565b7f466f6c6400000000000000000000000000000000000000000000000000000000600082015250565b6000613520600483612ebc565b915061352b826134ea565b602082019050919050565b6000819050919050565b6000819050919050565b600061356561356061355b84613536565b613540565b612a95565b9050919050565b6135758161354a565b82525050565b6000604082019050818103600083015261359481613513565b90506135a3602083018461356c565b92915050565b7f4e487b7100000000000000000000000000000000000000000000000000000000600052603260045260246000fd5b7f506c61796572206973206e6f742070617274696369706174696e6720696e207460008201527f68652067616d6500000000000000000000000000000000000000000000000000602082015250565b6000613634602783612ebc565b915061363f826135d8565b604082019050919050565b6000602082019050818103600083015261366381613627565b9050919050565b7f506c61796572206e6f7420666f756e6420696e207468652067616d6500000000600082015250565b60006136a0601c83612ebc565b91506136ab8261366a565b602082019050919050565b600060208201905081810360008301526136cf81613693565b9050919050565b7f4e6f7420656e6f75676820706c617965727320746f207374617274207468652060008201527f67616d6500000000000000000000000000000000000000000000000000000000602082015250565b6000613732602483612ebc565b915061373d826136d6565b604082019050919050565b6000602082019050818103600083015261376181613725565b9050919050565b600060208201905061377d6000830184612cb8565b92915050565b7f496e636f7272656374206275792d696e20616d6f756e74000000000000000000600082015250565b60006137b9601783612ebc565b91506137c482613783565b602082019050919050565b600060208201905081810360008301526137e8816137ac565b9050919050565b7f47616d652069732066756c6c0000000000000000000000000000000000000000600082015250565b6000613825600c83612ebc565b9150613830826137ef565b602082019050919050565b6000602082019050818103600083015261385481613818565b9050919050565b7f4e487b7100000000000000000000000000000000000000000000000000000000600052604160045260246000fd5b7f506c61796572206e6f7420666f756e6400000000000000000000000000000000600082015250565b60006138c0601083612ebc565b91506138cb8261388a565b602082019050919050565b600060208201905081810360008301526138ef816138b3565b9050919050565b7f4e487b7100000000000000000000000000000000000000000000000000000000600052601260045260246000fd5b600061393082612a95565b915061393b83612a95565b92508261394b5761394a6138f6565b5b828206905092915050565b6000819050919050565b61397161396c82612a95565b613956565b82525050565b600081549050919050565b600081905092915050565b60008190508160005260206000209050919050565b6139ab81612b24565b82525050565b60008160001c9050919050565b600060ff82169050919050565b60006139de6139d9836139b1565b6139be565b9050919050565b60008160081c9050919050565b6000613a05613a00836139e5565b6139be565b9050919050565b60008160101c9050919050565b6000613a2c613a2783613a0c565b6139be565b9050919050565b60008160181c9050919050565b6000613a53613a4e83613a33565b6139be565b9050919050565b60008160201c9050919050565b6000613a7a613a7583613a5a565b6139be565b9050919050565b60008160281c9050919050565b6000613aa1613a9c83613a81565b6139be565b9050919050565b60008160301c9050919050565b6000613ac8613ac383613aa8565b6139be565b9050919050565b60008160381c9050919050565b6000613aef613aea83613acf565b6139be565b9050919050565b60008160401c9050919050565b6000613b16613b1183613af6565b6139be565b9050919050565b60008160481c9050919050565b6000613b3d613b3883613b1d565b6139be565b9050919050565b60008160501c9050919050565b6000613b64613b5f83613b44565b6139be565b9050919050565b60008160581c9050919050565b6000613b8b613b8683613b6b565b6139be565b9050919050565b60008160601c9050919050565b6000613bb2613bad83613b92565b6139be565b9050919050565b60008160681c9050919050565b6000613bd9613bd483613bb9565b6139be565b9050919050565b60008160701c9050919050565b6000613c00613bfb83613be0565b6139be565b9050919050565b60008160781c9050919050565b6000613c27613c2283613c07565b6139be565b9050919050565b60008160801c9050919050565b6000613c4e613c4983613c2e565b6139be565b9050919050565b60008160881c9050919050565b6000613c75613c7083613c55565b6139be565b9050919050565b60008160901c9050919050565b6000613c9c613c9783613c7c565b6139be565b9050919050565b60008160981c9050919050565b6000613cc3613cbe83613ca3565b6139be565b9050919050565b60008160a01c9050919050565b6000613cea613ce583613cca565b6139be565b9050919050565b60008160a81c9050919050565b6000613d11613d0c83613cf1565b6139be565b9050919050565b60008160b01c9050919050565b6000613d38613d3383613d18565b6139be565b9050919050565b60008160b81c9050919050565b6000613d5f613d5a83613d3f565b6139be565b9050919050565b60008160c01c9050919050565b6000613d86613d8183613d66565b6139be565b9050919050565b60008160c81c9050919050565b6000613dad613da883613d8d565b6139be565b9050919050565b60008160d01c9050919050565b6000613dd4613dcf83613db4565b6139be565b9050919050565b60008160d81c9050919050565b6000613dfb613df683613ddb565b6139be565b9050919050565b60008160e01c9050919050565b6000613e22613e1d83613e02565b6139be565b9050919050565b60008160e81c9050919050565b6000613e49613e4483613e29565b6139be565b9050919050565b60008160f01c9050919050565b6000613e70613e6b83613e50565b6139be565b9050919050565b60008160f81c9050919050565b6000613e97613e9283613e77565b6139be565b9050919050565b6000613ea982613977565b613eb38185613982565b935083613ebf8461398d565b60006001156141ec575b836001602003820110156141eb578154613eeb88613ee6836139cb565b6139a2565b602088019750613f0388613efe836139f2565b6139a2565b602088019750613f1b88613f1683613a19565b6139a2565b602088019750613f3388613f2e83613a40565b6139a2565b602088019750613f4b88613f4683613a67565b6139a2565b602088019750613f6388613f5e83613a8e565b6139a2565b602088019750613f7b88613f7683613ab5565b6139a2565b602088019750613f9388613f8e83613adc565b6139a2565b602088019750613fab88613fa683613b03565b6139a2565b602088019750613fc388613fbe83613b2a565b6139a2565b602088019750613fdb88613fd683613b51565b6139a2565b602088019750613ff388613fee83613b78565b6139a2565b60208801975061400b8861400683613b9f565b6139a2565b6020880197506140238861401e83613bc6565b6139a2565b60208801975061403b8861403683613bed565b6139a2565b6020880197506140538861404e83613c14565b6139a2565b60208801975061406b8861406683613c3b565b6139a2565b6020880197506140838861407e83613c62565b6139a2565b60208801975061409b8861409683613c89565b6139a2565b6020880197506140b3886140ae83613cb0565b6139a2565b6020880197506140cb886140c683613cd7565b6139a2565b6020880197506140e3886140de83613cfe565b6139a2565b6020880197506140fb886140f683613d25565b6139a2565b6020880197506141138861410e83613d4c565b6139a2565b60208801975061412b8861412683613d73565b6139a2565b6020880197506141438861413e83613d9a565b6139a2565b60208801975061415b8861415683613dc1565b6139a2565b6020880197506141738861416e83613de8565b6139a2565b60208801975061418b8861418683613e0f565b6139a2565b6020880197506141a38861419e83613e36565b6139a2565b6020880197506141bb886141b683613e5d565b6139a2565b6020880197506141d3886141ce83613e84565b6139a2565b60208801975060018301925050602081019050613ec9565b5b6001156146d75781548482101561421c5761420f8861420a836139cb565b6139a2565b6020880197506001820191505b848210156142435761423688614231836139f2565b6139a2565b6020880197506001820191505b8482101561426a5761425d8861425883613a19565b6139a2565b6020880197506001820191505b84821015614291576142848861427f83613a40565b6139a2565b6020880197506001820191505b848210156142b8576142ab886142a683613a67565b6139a2565b6020880197506001820191505b848210156142df576142d2886142cd83613a8e565b6139a2565b6020880197506001820191505b84821015614306576142f9886142f483613ab5565b6139a2565b6020880197506001820191505b8482101561432d576143208861431b83613adc565b6139a2565b6020880197506001820191505b84821015614354576143478861434283613b03565b6139a2565b6020880197506001820191505b8482101561437b5761436e8861436983613b2a565b6139a2565b6020880197506001820191505b848210156143a2576143958861439083613b51565b6139a2565b6020880197506001820191505b848210156143c9576143bc886143b783613b78565b6139a2565b6020880197506001820191505b848210156143f0576143e3886143de83613b9f565b6139a2565b6020880197506001820191505b848210156144175761440a8861440583613bc6565b6139a2565b6020880197506001820191505b8482101561443e576144318861442c83613bed565b6139a2565b6020880197506001820191505b84821015614465576144588861445383613c14565b6139a2565b6020880197506001820191505b8482101561448c5761447f8861447a83613c3b565b6139a2565b6020880197506001820191505b848210156144b3576144a6886144a183613c62565b6139a2565b6020880197506001820191505b848210156144da576144cd886144c883613c89565b6139a2565b6020880197506001820191505b84821015614501576144f4886144ef83613cb0565b6139a2565b6020880197506001820191505b848210156145285761451b8861451683613cd7565b6139a2565b6020880197506001820191505b8482101561454f576145428861453d83613cfe565b6139a2565b6020880197506001820191505b84821015614576576145698861456483613d25565b6139a2565b6020880197506001820191505b8482101561459d576145908861458b83613d4c565b6139a2565b6020880197506001820191505b848210156145c4576145b7886145b283613d73565b6139a2565b6020880197506001820191505b848210156145eb576145de886145d983613d9a565b6139a2565b6020880197506001820191505b84821015614612576146058861460083613dc1565b6139a2565b6020880197506001820191505b848210156146395761462c8861462783613de8565b6139a2565b6020880197506001820191505b84821015614660576146538861464e83613e0f565b6139a2565b6020880197506001820191505b848210156146875761467a8861467583613e36565b6139a2565b6020880197506001820191505b848210156146ae576146a18861469c83613e5d565b6139a2565b6020880197506001820191505b848210156146d5576146c8886146c383613e84565b6139a2565b6020880197506001820191505b505b8694505050505092915050565b60006146f08286613960565b6020820191506147008285613960565b6020820191506147108284613e9e565b9150819050949350505050565b600061472882612a95565b91506000820361473b5761473a61307d565b5b600182039050919050565b7f4e6f206361726473206c65667420746f206465616c0000000000000000000000600082015250565b600061477c601583612ebc565b915061478782614746565b602082019050919050565b600060208201905081810360008301526147ab8161476f565b9050919050565b7f4e487b7100000000000000000000000000000000000000000000000000000000600052603160045260246000fd5b7f4e6f7420656e6f75676820636f6d6d756e69747920636172647320746f20726560008201527f7665616c00000000000000000000000000000000000000000000000000000000602082015250565b600061483d602483612ebc565b9150614848826147e1565b604082019050919050565b6000602082019050818103600083015261486c81614830565b9050919050565b600081549050919050565b60008190508160005260206000209050919050565b600061489e82614873565b6148a88185612b03565b9350836148b48461487e565b6000600115614be1575b83600160200382011015614be05781546148e0886148db836139cb565b612b31565b6020880197506148f8886148f3836139f2565b612b31565b6020880197506149108861490b83613a19565b612b31565b6020880197506149288861492383613a40565b612b31565b6020880197506149408861493b83613a67565b612b31565b6020880197506149588861495383613a8e565b612b31565b6020880197506149708861496b83613ab5565b612b31565b6020880197506149888861498383613adc565b612b31565b6020880197506149a08861499b83613b03565b612b31565b6020880197506149b8886149b383613b2a565b612b31565b6020880197506149d0886149cb83613b51565b612b31565b6020880197506149e8886149e383613b78565b612b31565b602088019750614a00886149fb83613b9f565b612b31565b602088019750614a1888614a1383613bc6565b612b31565b602088019750614a3088614a2b83613bed565b612b31565b602088019750614a4888614a4383613c14565b612b31565b602088019750614a6088614a5b83613c3b565b612b31565b602088019750614a7888614a7383613c62565b612b31565b602088019750614a9088614a8b83613c89565b612b31565b602088019750614aa888614aa383613cb0565b612b31565b602088019750614ac088614abb83613cd7565b612b31565b602088019750614ad888614ad383613cfe565b612b31565b602088019750614af088614aeb83613d25565b612b31565b602088019750614b0888614b0383613d4c565b612b31565b602088019750614b2088614b1b83613d73565b612b31565b602088019750614b3888614b3383613d9a565b612b31565b602088019750614b5088614b4b83613dc1565b612b31565b602088019750614b6888614b6383613de8565b612b31565b602088019750614b8088614b7b83613e0f565b612b31565b602088019750614b9888614b9383613e36565b612b31565b602088019750614bb088614bab83613e5d565b612b31565b602088019750614bc888614bc383613e84565b612b31565b602088019750600183019250506020810190506148be565b5b6001156150cc57815484821015614c1157614c0488614bff836139cb565b612b31565b6020880197506001820191505b84821015614c3857614c2b88614c26836139f2565b612b31565b6020880197506001820191505b84821015614c5f57614c5288614c4d83613a19565b612b31565b6020880197506001820191505b84821015614c8657614c7988614c7483613a40565b612b31565b6020880197506001820191505b84821015614cad57614ca088614c9b83613a67565b612b31565b6020880197506001820191505b84821015614cd457614cc788614cc283613a8e565b612b31565b6020880197506001820191505b84821015614cfb57614cee88614ce983613ab5565b612b31565b6020880197506001820191505b84821015614d2257614d1588614d1083613adc565b612b31565b6020880197506001820191505b84821015614d4957614d3c88614d3783613b03565b612b31565b6020880197506001820191505b84821015614d7057614d6388614d5e83613b2a565b612b31565b6020880197506001820191505b84821015614d9757614d8a88614d8583613b51565b612b31565b6020880197506001820191505b84821015614dbe57614db188614dac83613b78565b612b31565b6020880197506001820191505b84821015614de557614dd888614dd383613b9f565b612b31565b6020880197506001820191505b84821015614e0c57614dff88614dfa83613bc6565b612b31565b6020880197506001820191505b84821015614e3357614e2688614e2183613bed565b612b31565b6020880197506001820191505b84821015614e5a57614e4d88614e4883613c14565b612b31565b6020880197506001820191505b84821015614e8157614e7488614e6f83613c3b565b612b31565b6020880197506001820191505b84821015614ea857614e9b88614e9683613c62565b612b31565b6020880197506001820191505b84821015614ecf57614ec288614ebd83613c89565b612b31565b6020880197506001820191505b84821015614ef657614ee988614ee483613cb0565b612b31565b6020880197506001820191505b84821015614f1d57614f1088614f0b83613cd7565b612b31565b6020880197506001820191505b84821015614f4457614f3788614f3283613cfe565b612b31565b6020880197506001820191505b84821015614f6b57614f5e88614f5983613d25565b612b31565b6020880197506001820191505b84821015614f9257614f8588614f8083613d4c565b612b31565b6020880197506001820191505b84821015614fb957614fac88614fa783613d73565b612b31565b6020880197506001820191505b84821015614fe057614fd388614fce83613d9a565b612b31565b6020880197506001820191505b8482101561500757614ffa88614ff583613dc1565b612b31565b6020880197506001820191505b8482101561502e576150218861501c83613de8565b612b31565b6020880197506001820191505b84821015615055576150488861504383613e0f565b612b31565b6020880197506001820191505b8482101561507c5761506f8861506a83613e36565b612b31565b6020880197506001820191505b848210156150a3576150968861509183613e5d565b612b31565b6020880197506001820191505b848210156150ca576150bd886150b883613e84565b612b31565b6020880197506001820191505b505b8694505050505092915050565b600060208201905081810360008301526150f38184614893565b905092915050565b600061511661511161510c84612bf4565b613540565b612bf4565b9050919050565b6000615128826150fb565b9050919050565b600061513a8261511d565b9050919050565b61514a8161512f565b82525050565b60006040820190506151656000830185615141565b6151726020830184612be5565b9392505050565b600060408201905061518e6000830185612c26565b61519b602083018461356c565b9392505050565b60006151ad82612b24565b915060ff82036151c0576151bf61307d565b5b60018201905091905056fea2646970667358221220af76782936141faa8481c5de73ba1ae302f4deec37c095be2547d762cfabd86164736f6c634300081b0033",
  "linkReferences": {},
  "deployedLinkReferences": {}
}