{
  "_format": "hh-sol-artifact-1",
  "contractName": "Poker",
  "sourceName": "contracts/PokerContract.sol",
  "abi": [
    {
      "inputs": [],
      "stateMutability": "nonpayable",
      "type": "constructor"
    },
    {
      "anonymous": false,
      "inputs": [
        {
          "indexed": true,
          "internalType": "uint256",
          "name": "gameId",
          "type": "uint256"
        }
      ],
      "name": "CardsDealt",
      "type": "event"
    },
    {
      "anonymous": false,
      "inputs": [
        {
          "indexed": true,
          "internalType": "uint256",
          "name": "gameId",
          "type": "uint256"
        },
        {
          "indexed": false,
          "internalType": "uint8[]",
          "name": "cards",
          "type": "uint8[]"
        }
      ],
      "name": "CommunityCardsRevealed",
      "type": "event"
    },
    {
      "anonymous": false,
      "inputs": [
        {
          "indexed": true,
          "internalType": "uint256",
          "name": "gameId",
          "type": "uint256"
        },
        {
          "indexed": true,
          "internalType": "address",
          "name": "dealer",
          "type": "address"
        },
        {
          "indexed": false,
          "internalType": "uint256",
          "name": "buyIn",
          "type": "uint256"
        }
      ],
      "name": "GameCreated",
      "type": "event"
    },
    {
      "anonymous": false,
      "inputs": [
        {
          "indexed": true,
          "internalType": "uint256",
          "name": "gameId",
          "type": "uint256"
        },
        {
          "indexed": false,
          "internalType": "address",
          "name": "winner",
          "type": "address"
        },
        {
          "indexed": false,
          "internalType": "uint256",
          "name": "winningAmount",
          "type": "uint256"
        }
      ],
      "name": "GameEnded",
      "type": "event"
    },
    {
      "anonymous": false,
      "inputs": [
        {
          "indexed": true,
          "internalType": "uint256",
          "name": "gameId",
          "type": "uint256"
        }
      ],
      "name": "GameStarted",
      "type": "event"
    },
    {
      "anonymous": false,
      "inputs": [
        {
          "indexed": true,
          "internalType": "uint256",
          "name": "gameId",
          "type": "uint256"
        },
        {
          "indexed": false,
          "internalType": "enum Poker.GameState",
          "name": "newState",
          "type": "uint8"
        }
      ],
      "name": "GameStateChanged",
      "type": "event"
    },
    {
      "anonymous": false,
      "inputs": [
        {
          "indexed": true,
          "internalType": "uint256",
          "name": "gameId",
          "type": "uint256"
        },
        {
          "indexed": true,
          "internalType": "address",
          "name": "player",
          "type": "address"
        },
        {
          "indexed": false,
          "internalType": "string",
          "name": "action",
          "type": "string"
        },
        {
          "indexed": false,
          "internalType": "uint256",
          "name": "amount",
          "type": "uint256"
        }
      ],
      "name": "PlayerAction",
      "type": "event"
    },
    {
      "anonymous": false,
      "inputs": [
        {
          "indexed": true,
          "internalType": "uint256",
          "name": "gameId",
          "type": "uint256"
        },
        {
          "indexed": true,
          "internalType": "address",
          "name": "player",
          "type": "address"
        },
        {
          "indexed": false,
          "internalType": "uint8[]",
          "name": "hand",
          "type": "uint8[]"
        }
      ],
      "name": "PlayerHandRevealed",
      "type": "event"
    },
    {
      "anonymous": false,
      "inputs": [
        {
          "indexed": true,
          "internalType": "uint256",
          "name": "gameId",
          "type": "uint256"
        },
        {
          "indexed": true,
          "internalType": "address",
          "name": "player",
          "type": "address"
        }
      ],
      "name": "PlayerJoined",
      "type": "event"
    },
    {
      "anonymous": false,
      "inputs": [
        {
          "indexed": true,
          "internalType": "uint256",
          "name": "gameId",
          "type": "uint256"
        },
        {
          "indexed": false,
          "internalType": "enum Poker.GameState",
          "name": "newState",
          "type": "uint8"
        }
      ],
      "name": "RoundEnded",
      "type": "event"
    },
    {
      "inputs": [
        {
          "internalType": "uint256",
          "name": "_gameId",
          "type": "uint256"
        },
        {
          "internalType": "uint256",
          "name": "_amount",
          "type": "uint256"
        }
      ],
      "name": "bet",
      "outputs": [],
      "stateMutability": "nonpayable",
      "type": "function"
    },
    {
      "inputs": [
        {
          "internalType": "uint256",
          "name": "_gameId",
          "type": "uint256"
        }
      ],
      "name": "call",
      "outputs": [],
      "stateMutability": "nonpayable",
      "type": "function"
    },
    {
      "inputs": [
        {
          "internalType": "uint256",
          "name": "_buyIn",
          "type": "uint256"
        }
      ],
      "name": "createGame",
      "outputs": [],
      "stateMutability": "nonpayable",
      "type": "function"
    },
    {
      "inputs": [
        {
          "internalType": "uint256",
          "name": "_gameId",
          "type": "uint256"
        }
      ],
      "name": "fold",
      "outputs": [],
      "stateMutability": "nonpayable",
      "type": "function"
    },
    {
      "inputs": [],
      "name": "gameCount",
      "outputs": [
        {
          "internalType": "uint256",
          "name": "",
          "type": "uint256"
        }
      ],
      "stateMutability": "view",
      "type": "function"
    },
    {
      "inputs": [
        {
          "internalType": "uint256",
          "name": "",
          "type": "uint256"
        }
      ],
      "name": "games",
      "outputs": [
        {
          "internalType": "uint256",
          "name": "gameId",
          "type": "uint256"
        },
        {
          "internalType": "address",
          "name": "dealer",
          "type": "address"
        },
        {
          "internalType": "uint256",
          "name": "pot",
          "type": "uint256"
        },
        {
          "internalType": "uint256",
          "name": "buyIn",
          "type": "uint256"
        },
        {
          "internalType": "bool",
          "name": "isActive",
          "type": "bool"
        },
        {
          "internalType": "uint256",
          "name": "currentBet",
          "type": "uint256"
        },
        {
          "internalType": "enum Poker.GameState",
          "name": "currentState",
          "type": "uint8"
        },
        {
          "internalType": "uint256",
          "name": "lastActionTimestamp",
          "type": "uint256"
        },
        {
          "internalType": "uint256",
          "name": "currentPlayerIndex",
          "type": "uint256"
        },
        {
          "internalType": "uint256",
          "name": "roundStartPlayerIndex",
          "type": "uint256"
        },
        {
          "internalType": "uint256",
          "name": "gameStartTime",
          "type": "uint256"
        },
        {
          "internalType": "uint256",
          "name": "roundEndTime",
          "type": "uint256"
        }
      ],
      "stateMutability": "view",
      "type": "function"
    },
    {
      "inputs": [
        {
          "internalType": "uint256",
          "name": "_gameId",
          "type": "uint256"
        }
      ],
      "name": "getCommunityCards",
      "outputs": [
        {
          "internalType": "uint8[]",
          "name": "",
          "type": "uint8[]"
        }
      ],
      "stateMutability": "view",
      "type": "function"
    },
    {
      "inputs": [
        {
          "internalType": "uint256",
          "name": "_gameId",
          "type": "uint256"
        },
        {
          "internalType": "address",
          "name": "_playerAddress",
          "type": "address"
        }
      ],
      "name": "getPlayerCards",
      "outputs": [
        {
          "internalType": "uint8[]",
          "name": "",
          "type": "uint8[]"
        }
      ],
      "stateMutability": "view",
      "type": "function"
    },
    {
      "inputs": [
        {
          "internalType": "uint256",
          "name": "_gameId",
          "type": "uint256"
        }
      ],
      "name": "joinGame",
      "outputs": [],
      "stateMutability": "payable",
      "type": "function"
    },
    {
      "inputs": [
        {
          "internalType": "uint256",
          "name": "",
          "type": "uint256"
        },
        {
          "internalType": "address",
          "name": "",
          "type": "address"
        }
      ],
      "name": "players",
      "outputs": [
        {
          "internalType": "address payable",
          "name": "playerAddress",
          "type": "address"
        },
        {
          "internalType": "bool",
          "name": "isParticipating",
          "type": "bool"
        },
        {
          "internalType": "uint256",
          "name": "chips",
          "type": "uint256"
        },
        {
          "internalType": "bool",
          "name": "hasActed",
          "type": "bool"
        },
        {
          "internalType": "bool",
          "name": "showCards",
          "type": "bool"
        }
      ],
      "stateMutability": "view",
      "type": "function"
    },
    {
      "inputs": [
        {
          "internalType": "uint256",
          "name": "_gameId",
          "type": "uint256"
        },
        {
          "internalType": "uint256",
          "name": "_amount",
          "type": "uint256"
        }
      ],
      "name": "raise_",
      "outputs": [],
      "stateMutability": "nonpayable",
      "type": "function"
    },
    {
      "inputs": [
        {
          "internalType": "uint256",
          "name": "_gameId",
          "type": "uint256"
        }
      ],
      "name": "startGame",
      "outputs": [],
      "stateMutability": "nonpayable",
      "type": "function"
    }
  ],
  "bytecode": "0x6080604052348015600f57600080fd5b5060006002819055506000600360006101000a81548160ff021916908315150217905550615f43806100426000396000f3fe6080604052600436106100a75760003560e01c80636ffcc719116100645780636ffcc719146101d7578063bff7a00b14610200578063c0f8092114610229578063c653c9a11461026a578063e5ed1d59146102a7578063efaa55a0146102d0576100a7565b8063100e0035146100ac578063117a5b90146100e95780632b0969261461013157806348e837b91461015a5780634d1975b4146101835780634ed66a01146101ae575b600080fd5b3480156100b857600080fd5b506100d360048036038101906100ce919061376c565b6102ec565b6040516100e09190613864565b60405180910390f35b3480156100f557600080fd5b50610110600480360381019061010b919061376c565b61037f565b6040516101289c9b9a99989796959493929190613968565b60405180910390f35b34801561013d57600080fd5b506101586004803603810190610153919061376c565b610419565b005b34801561016657600080fd5b50610181600480360381019061017c919061376c565b610640565b005b34801561018f57600080fd5b506101986107be565b6040516101a59190613a22565b60405180910390f35b3480156101ba57600080fd5b506101d560048036038101906101d09190613a3d565b6107c4565b005b3480156101e357600080fd5b506101fe60048036038101906101f99190613a3d565b610a2d565b005b34801561020c57600080fd5b506102276004803603810190610222919061376c565b610c96565b005b34801561023557600080fd5b50610250600480360381019061024b9190613aa9565b610e50565b604051610261959493929190613b0a565b60405180910390f35b34801561027657600080fd5b50610291600480360381019061028c9190613aa9565b610eda565b60405161029e9190613864565b60405180910390f35b3480156102b357600080fd5b506102ce60048036038101906102c9919061376c565b6110e6565b005b6102ea60048036038101906102e5919061376c565b611292565b005b606060008083815260200190815260200160002060080180548060200260200160405190810160405280929190818152602001828054801561037357602002820191906000526020600020906000905b82829054906101000a900460ff1660ff168152602001906001019060208260000104928301926001038202915080841161033c5790505b50505050509050919050565b60006020528060005260406000206000915090508060000154908060010160009054906101000a900473ffffffffffffffffffffffffffffffffffffffff16908060020154908060030154908060050160009054906101000a900460ff16908060060154908060090160009054906101000a900460ff169080600a01549080600b01549080600c01549080600d01549080600e015490508c565b8060008082815260200190815260200160002060050160009054906101000a900460ff1661047c576040517f08c379a000000000000000000000000000000000000000000000000000000000815260040161047390613bba565b60405180910390fd5b81610487813361152e565b6104c6576040517f08c379a00000000000000000000000000000000000000000000000000000000081526004016104bd90613c26565b60405180910390fd5b6000806000858152602001908152602001600020905080600e01544210610522576040517f08c379a000000000000000000000000000000000000000000000000000000000815260040161051990613c92565b60405180910390fd5b600061052e8533611634565b905081600601548160010154101561057b576040517f08c379a000000000000000000000000000000000000000000000000000000000815260040161057290613cfe565b60405180910390fd5b600082600601549050808260010160008282546105989190613d4d565b92505081905550808360020160008282546105b39190613d81565b925050819055504283600a018190555060018260030160006101000a81548160ff0219169083151502179055503373ffffffffffffffffffffffffffffffffffffffff16867ff3d4f57e05aae06b4017c0b2ed81f62aa6f19deef046d6a78ad2a4223858c4f0836040516106279190613e01565b60405180910390a361063886611753565b505050505050565b60008111610683576040517f08c379a000000000000000000000000000000000000000000000000000000000815260040161067a90613e7b565b60405180910390fd5b6001600260008282546106969190613d81565b925050819055506000806000600254815260200190815260200160002090506002548160000181905550338160010160006101000a81548173ffffffffffffffffffffffffffffffffffffffff021916908373ffffffffffffffffffffffffffffffffffffffff16021790555081816003018190555060018160050160006101000a81548160ff0219169083151502179055506000816006018190555060008160090160006101000a81548160ff0219169083600481111561075b5761075a6138f1565b5b02179055504281600a01819055503373ffffffffffffffffffffffffffffffffffffffff166002547f7dfb67e9ff596fca4da65c7eedb128cd1aac553af54b3c0cb733625a2480d8bd846040516107b29190613a22565b60405180910390a35050565b60025481565b8160008082815260200190815260200160002060050160009054906101000a900460ff16610827576040517f08c379a000000000000000000000000000000000000000000000000000000000815260040161081e90613bba565b60405180910390fd5b82610832813361152e565b610871576040517f08c379a000000000000000000000000000000000000000000000000000000000815260040161086890613c26565b60405180910390fd5b6000806000868152602001908152602001600020905080600e015442106108cd576040517f08c379a00000000000000000000000000000000000000000000000000000000081526004016108c490613c92565b60405180910390fd5b80600601548411610913576040517f08c379a000000000000000000000000000000000000000000000000000000000815260040161090a90613f0d565b60405180910390fd5b600061091f8633611634565b90508481600101541015610968576040517f08c379a000000000000000000000000000000000000000000000000000000000815260040161095f90613f79565b60405180910390fd5b8482600201600082825461097c9190613d81565b92505081905550848160010160008282546109979190613d4d565b925050819055508482600601819055504282600a018190555060018160030160006101000a81548160ff0219169083151502179055503373ffffffffffffffffffffffffffffffffffffffff16867ff3d4f57e05aae06b4017c0b2ed81f62aa6f19deef046d6a78ad2a4223858c4f087604051610a149190613fe5565b60405180910390a3610a2586611753565b505050505050565b8160008082815260200190815260200160002060050160009054906101000a900460ff16610a90576040517f08c379a0000000000000000000000000000000000000000000000000000000008152600401610a8790613bba565b60405180910390fd5b82610a9b813361152e565b610ada576040517f08c379a0000000000000000000000000000000000000000000000000000000008152600401610ad190613c26565b60405180910390fd5b6000806000868152602001908152602001600020905080600e01544210610b36576040517f08c379a0000000000000000000000000000000000000000000000000000000008152600401610b2d90613c92565b60405180910390fd5b80600601548411610b7c576040517f08c379a0000000000000000000000000000000000000000000000000000000008152600401610b7390614085565b60405180910390fd5b6000610b888633611634565b90508481600101541015610bd1576040517f08c379a0000000000000000000000000000000000000000000000000000000008152600401610bc8906140f1565b60405180910390fd5b84826002016000828254610be59190613d81565b9250508190555084816001016000828254610c009190613d4d565b925050819055508482600601819055504282600a018190555060018160030160006101000a81548160ff0219169083151502179055503373ffffffffffffffffffffffffffffffffffffffff16867ff3d4f57e05aae06b4017c0b2ed81f62aa6f19deef046d6a78ad2a4223858c4f087604051610c7d919061415d565b60405180910390a3610c8e86611753565b505050505050565b8060008082815260200190815260200160002060050160009054906101000a900460ff16610cf9576040517f08c379a0000000000000000000000000000000000000000000000000000000008152600401610cf090613bba565b60405180910390fd5b81610d04813361152e565b610d43576040517f08c379a0000000000000000000000000000000000000000000000000000000008152600401610d3a90613c26565b60405180910390fd5b6000806000858152602001908152602001600020905080600e01544210610d9f576040517f08c379a0000000000000000000000000000000000000000000000000000000008152600401610d9690613c92565b60405180910390fd5b6000610dab8533611634565b905060008160000160146101000a81548160ff0219169083151502179055504282600a018190555060018160030160006101000a81548160ff0219169083151502179055503373ffffffffffffffffffffffffffffffffffffffff16857ff3d4f57e05aae06b4017c0b2ed81f62aa6f19deef046d6a78ad2a4223858c4f06000604051610e38919061421c565b60405180910390a3610e4985611753565b5050505050565b6001602052816000526040600020602052806000526040600020600091509150508060000160009054906101000a900473ffffffffffffffffffffffffffffffffffffffff16908060000160149054906101000a900460ff16908060010154908060030160009054906101000a900460ff16908060030160019054906101000a900460ff16905085565b60606000806000858152602001908152602001600020905060005b81600401805490508110156110a4578373ffffffffffffffffffffffffffffffffffffffff16826004018281548110610f3157610f3061424a565b5b906000526020600020906004020160000160009054906101000a900473ffffffffffffffffffffffffffffffffffffffff1673ffffffffffffffffffffffffffffffffffffffff160361109757816004018181548110610f9457610f9361424a565b5b906000526020600020906004020160000160149054906101000a900460ff16610ff2576040517f08c379a0000000000000000000000000000000000000000000000000000000008152600401610fe9906142eb565b60405180910390fd5b8160040181815481106110085761100761424a565b5b906000526020600020906004020160020180548060200260200160405190810160405280929190818152602001828054801561108957602002820191906000526020600020906000905b82829054906101000a900460ff1660ff16815260200190600101906020826000010492830192600103820291508084116110525790505b5050505050925050506110e0565b8080600101915050610ef5565b506040517f08c379a00000000000000000000000000000000000000000000000000000000081526004016110d790614357565b60405180910390fd5b92915050565b8060008082815260200190815260200160002060010160009054906101000a900473ffffffffffffffffffffffffffffffffffffffff1673ffffffffffffffffffffffffffffffffffffffff163373ffffffffffffffffffffffffffffffffffffffff161461118a576040517f08c379a0000000000000000000000000000000000000000000000000000000008152600401611181906143c3565b60405180910390fd5b600080600084815260200190815260200160002090506002816004018054905010156111eb576040517f08c379a00000000000000000000000000000000000000000000000000000000081526004016111e290614455565b60405180910390fd5b6111f483611838565b600081600b0181905550600081600c01819055504281600d01819055506102584261121f9190613d81565b81600e0181905550827f50ad08f58a27f2851d7e3a1b3a6a46b290f2ce677e99642d30ff639721e7779060405160405180910390a2827fb92fff70f4ba958693033f3e4e0baea37ae26d410410dcb011bb2f0ee7ba5bd160006040516112859190614475565b60405180910390a2505050565b6000806000838152602001908152602001600020905080600301543410156112ef576040517f08c379a00000000000000000000000000000000000000000000000000000000081526004016112e6906144dc565b60405180910390fd5b6003816004018054905010611339576040517f08c379a000000000000000000000000000000000000000000000000000000000815260040161133090614548565b60405180910390fd5b806004016040518060c001604052803373ffffffffffffffffffffffffffffffffffffffff168152602001600115158152602001348152602001600067ffffffffffffffff81111561138e5761138d614568565b5b6040519080825280602002602001820160405280156113bc5781602001602082028036833780820191505090505b50815260200160001515815260200160001515815250908060018154018082558091505060019003906000526020600020906004020160009091909190915060008201518160000160006101000a81548173ffffffffffffffffffffffffffffffffffffffff021916908373ffffffffffffffffffffffffffffffffffffffff16021790555060208201518160000160146101000a81548160ff02191690831515021790555060408201518160010155606082015181600201908051906020019061148892919061366d565b5060808201518160030160006101000a81548160ff02191690831515021790555060a08201518160030160016101000a81548160ff0219169083151502179055505050348160020160008282546114df9190613d81565b925050819055503373ffffffffffffffffffffffffffffffffffffffff16827f87969bc7faf902221a147b95ceba76e011c5efb0339a0a8ee7a2bb82d9cfbbd660405160405180910390a35050565b600080600080858152602001908152602001600020905060005b8160040180549050811015611627578373ffffffffffffffffffffffffffffffffffffffff168260040182815481106115845761158361424a565b5b906000526020600020906004020160000160009054906101000a900473ffffffffffffffffffffffffffffffffffffffff1673ffffffffffffffffffffffffffffffffffffffff1614801561160a57508160040181815481106115ea576115e961424a565b5b906000526020600020906004020160000160149054906101000a900460ff165b1561161a5760019250505061162e565b8080600101915050611548565b5060009150505b92915050565b600080600080858152602001908152602001600020905060005b8160040180549050811015611711578373ffffffffffffffffffffffffffffffffffffffff1682600401828154811061168a5761168961424a565b5b906000526020600020906004020160000160009054906101000a900473ffffffffffffffffffffffffffffffffffffffff1673ffffffffffffffffffffffffffffffffffffffff1603611704578160040181815481106116ed576116ec61424a565b5b90600052602060002090600402019250505061174d565b808060010191505061164e565b506040517f08c379a0000000000000000000000000000000000000000000000000000000008152600401611744906145e3565b60405180910390fd5b92915050565b6000806000838152602001908152602001600020905060008160040180549050600183600b01546117849190613d81565b61178e9190614632565b90505b8160040181815481106117a7576117a661424a565b5b906000526020600020906004020160000160149054906101000a900460ff166117f05781600401805490506001826117df9190613d81565b6117e99190614632565b9050611791565b81600c0154811480611807575061180683611a65565b5b80611816575081600e01544210155b156118295761182483611b2a565b611833565b8082600b01819055505b505050565b60008060008381526020019081526020016000209050611856611df4565b81600701908051906020019061186d92919061366d565b5061187a81600701611e93565b60005b8160040180549050811015611a33578160040181815481106118a2576118a161424a565b5b906000526020600020906004020160000160149054906101000a900460ff1615611a2657600267ffffffffffffffff8111156118e1576118e0614568565b5b60405190808252806020026020018201604052801561190f5781602001602082028036833780820191505090505b508260040182815481106119265761192561424a565b5b9060005260206000209060040201600201908051906020019061194a92919061366d565b5061195482612001565b82600401828154811061196a5761196961424a565b5b906000526020600020906004020160020160008154811061198e5761198d61424a565b5b90600052602060002090602091828204019190066101000a81548160ff021916908360ff1602179055506119c182612001565b8260040182815481106119d7576119d661424a565b5b90600052602060002090600402016002016001815481106119fb576119fa61424a565b5b90600052602060002090602091828204019190066101000a81548160ff021916908360ff1602179055505b808060010191505061187d565b50817f3b54117fc881ff244eef1480d834bc0a1cc974076b145521c0c86e0c7851f7b860405160405180910390a25050565b600080600080848152602001908152602001600020905060005b8160040180549050811015611b1e57816004018181548110611aa457611aa361424a565b5b906000526020600020906004020160000160149054906101000a900460ff168015611b015750816004018181548110611ae057611adf61424a565b5b906000526020600020906004020160030160009054906101000a900460ff16155b15611b1157600092505050611b25565b8080600101915050611a7f565b5060019150505b919050565b6000806000838152602001908152602001600020905060006004811115611b5457611b536138f1565b5b8160090160009054906101000a900460ff166004811115611b7857611b776138f1565b5b03611bc55760018160090160006101000a81548160ff02191690836004811115611ba557611ba46138f1565b5b0217905550611bb58160036120e0565b611bc0826003612152565b611d54565b60016004811115611bd957611bd86138f1565b5b8160090160009054906101000a900460ff166004811115611bfd57611bfc6138f1565b5b03611c4a5760028160090160006101000a81548160ff02191690836004811115611c2a57611c296138f1565b5b0217905550611c3a8160016120e0565b611c45826004612152565b611d53565b60026004811115611c5e57611c5d6138f1565b5b8160090160009054906101000a900460ff166004811115611c8257611c816138f1565b5b03611ccf5760038160090160006101000a81548160ff02191690836004811115611caf57611cae6138f1565b5b0217905550611cbf8160016120e0565b611cca826005612152565b611d52565b60036004811115611ce357611ce26138f1565b5b8160090160009054906101000a900460ff166004811115611d0757611d066138f1565b5b03611d515760048160090160006101000a81548160ff02191690836004811115611d3457611d336138f1565b5b0217905550611d42826122c5565b611d4b826123d3565b50611df1565b5b5b5b817fb92fff70f4ba958693033f3e4e0baea37ae26d410410dcb011bb2f0ee7ba5bd18260090160009054906101000a900460ff16604051611d959190614475565b60405180910390a2817f3502d30ceab9ef8edf9d697a529b00029efc90f8f0e5876067615e91f30a655c8260090160009054906101000a900460ff16604051611dde9190614475565b60405180910390a2611def82612573565b505b50565b60606000603467ffffffffffffffff811115611e1357611e12614568565b5b604051908082528060200260200182016040528015611e415781602001602082028036833780820191505090505b50905060005b60348160ff161015611e8b5780828260ff1681518110611e6a57611e6961424a565b5b602002602001019060ff16908160ff16815250508080600101915050611e47565b508091505090565b6000818054905090506000600182611eab9190613d4d565b90505b6000811115611ffc576000600182611ec69190613d81565b444286604051602001611edb939291906153f1565b6040516020818303038152906040528051906020012060001c611efe9190614632565b9050838181548110611f1357611f1261424a565b5b90600052602060002090602091828204019190069054906101000a900460ff16848381548110611f4657611f4561424a565b5b90600052602060002090602091828204019190069054906101000a900460ff16858481548110611f7957611f7861424a565b5b9060005260206000209060209182820401919006878581548110611fa057611f9f61424a565b5b90600052602060002090602091828204019190068491906101000a81548160ff021916908360ff1602179055508391906101000a81548160ff021916908360ff1602179055505050508080611ff49061542a565b915050611eae565b505050565b60008082600701805490501161204c576040517f08c379a00000000000000000000000000000000000000000000000000000000081526004016120439061549f565b60405180910390fd5b600082600701600184600701805490506120669190613d4d565b815481106120775761207661424a565b5b90600052602060002090602091828204019190069054906101000a900460ff169050826007018054806120ad576120ac6154bf565b5b60019003818190600052602060002090602091828204019190066101000a81549060ff0219169055905580915050919050565b60005b8160ff168160ff16101561214d57826008016120fe84612001565b90806001815401808255809150506001900390600052602060002090602091828204019190069091909190916101000a81548160ff021916908360ff16021790555080806001019150506120e3565b505050565b6000806000848152602001908152602001600020905080600801805490508260ff1611156121b5576040517f08c379a00000000000000000000000000000000000000000000000000000000081526004016121ac90615560565b60405180910390fd5b60008260ff1667ffffffffffffffff8111156121d4576121d3614568565b5b6040519080825280602002602001820160405280156122025781602001602082028036833780820191505090505b50905060005b8360ff168160ff16101561228657826008018160ff168154811061222f5761222e61424a565b5b90600052602060002090602091828204019190069054906101000a900460ff16828260ff16815181106122655761226461424a565b5b602002602001019060ff16908160ff16815250508080600101915050612208565b50837f0a2b20519fcbbefa5c61f08c1e4ce977e58f4a76fb58bdf792c7932b52f4c6ef826040516122b79190613864565b60405180910390a250505050565b6000806000838152602001908152602001600020905060005b81600401805490508110156123ce5760008260040182815481106123055761230461424a565b5b906000526020600020906004020190508060000160149054906101000a900460ff16156123c05760018160030160016101000a81548160ff0219169083151502179055508060000160009054906101000a900473ffffffffffffffffffffffffffffffffffffffff1673ffffffffffffffffffffffffffffffffffffffff16847ff86b89950822a93362fe357442a81cc48eacaff3abb2292da3e0ac3a6b6233a6836002016040516123b79190615de6565b60405180910390a35b5080806001019150506122de565b505050565b600080600083815260200190815260200160002090508060050160009054906101000a900460ff1661243a576040517f08c379a000000000000000000000000000000000000000000000000000000000815260040161243190613bba565b60405180910390fd5b60008160050160006101000a81548160ff021916908315150217905550600061246283612680565b9050600073ffffffffffffffffffffffffffffffffffffffff168173ffffffffffffffffffffffffffffffffffffffff161461253257600082600201549050600083600201819055508173ffffffffffffffffffffffffffffffffffffffff166108fc829081150290604051600060405180830381858888f193505050501580156124f1573d6000803e3d6000fd5b50837ff1898de79c348962fab7695532341027e5bceb0ea2a8785790fa7d7efeeee1298383604051612524929190615e5d565b60405180910390a25061256e565b827ff1898de79c348962fab7695532341027e5bceb0ea2a8785790fa7d7efeeee129600080604051612565929190615e86565b60405180910390a25b505050565b60008060008381526020019081526020016000209050600081600601819055508060040180549050600182600c01546125ac9190613d81565b6125b69190614632565b81600c018190555080600c015481600b0181905550610258426125d99190613d81565b81600e018190555060005b816004018054905081101561267b578160040181815481106126095761260861424a565b5b906000526020600020906004020160000160149054906101000a900460ff161561266e5760008260040182815481106126455761264461424a565b5b906000526020600020906004020160030160006101000a81548160ff0219169083151502179055505b80806001019150506125e4565b505050565b60008060008084815260200190815260200160002090506000806000905060005b83600401805490508110156128305760008460040182815481106126c8576126c761424a565b5b906000526020600020906004020190508060000160149054906101000a900460ff16156128225760006127eb8260020180548060200260200160405190810160405280929190818152602001828054801561276857602002820191906000526020600020906000905b82829054906101000a900460ff1660ff16815260200190600101906020826000010492830192600103820291508084116127315790505b5050505050876008018054806020026020016040519081016040528092919081815260200182805480156127e157602002820191906000526020600020906000905b82829054906101000a900460ff1660ff16815260200190600101906020826000010492830192600103820291508084116127aa5790505b505050505061283c565b905083811115612820578093508160000160009054906101000a900473ffffffffffffffffffffffffffffffffffffffff1694505b505b5080806001019150506126a1565b50819350505050919050565b6000808251845161284d9190613d81565b67ffffffffffffffff81111561286657612865614568565b5b6040519080825280602002602001820160405280156128945781602001602082028036833780820191505090505b50905060005b84518160ff16101561290157848160ff16815181106128bc576128bb61424a565b5b6020026020010151828260ff16815181106128da576128d961424a565b5b602002602001019060ff16908160ff168152505080806128f990615eaf565b91505061289a565b5060005b83518160ff16101561297857838160ff16815181106129275761292661424a565b5b6020026020010151828260ff1687516129409190613d81565b815181106129515761295061424a565b5b602002602001019060ff16908160ff1681525050808061297090615eaf565b915050612905565b506129828161298b565b91505092915050565b600080600090505b600183516129a19190613d4d565b811015612ad35760005b60018285516129ba9190613d4d565b6129c49190613d4d565b811015612ac557600f846001836129db9190613d81565b815181106129ec576129eb61424a565b5b60200260200101511660ff16600f858381518110612a0d57612a0c61424a565b5b60200260200101511660ff161115612ab85783600182612a2d9190613d81565b81518110612a3e57612a3d61424a565b5b6020026020010151848281518110612a5957612a5861424a565b5b6020026020010151858381518110612a7457612a7361424a565b5b6020026020010186600185612a899190613d81565b81518110612a9a57612a9961424a565b5b602002602001018260ff1660ff168152508260ff1660ff1681525050505b80806001019150506129ab565b508080600101915050612993565b506000612adf83612ffb565b90506000612aec8461307d565b9050818015612af85750805b15612b6857600e600f85600481518110612b1557612b1461424a565b5b60200260200101511660ff1603612b335762a0000092505050612ff6565b600f84600481518110612b4957612b4861424a565b5b60200260200101511660ff16629000001762ffffff1692505050612ff6565b612b7184613166565b15612bd557600f84600481518110612b8c57612b8b61424a565b5b60200260200101511660ff166004600f86600281518110612bb057612baf61424a565b5b60200260200101511660ff16901b60ff1662800000171762ffffff1692505050612ff6565b612bde84613200565b15612c4257600f84600481518110612bf957612bf861424a565b5b60200260200101511660ff166004600f86600281518110612c1d57612c1c61424a565b5b60200260200101511660ff16901b60ff1662700000171762ffffff1692505050612ff6565b8115612c7d57600f84600481518110612c5e57612c5d61424a565b5b60200260200101511660ff16626000001762ffffff1692505050612ff6565b8015612cb857600f84600481518110612c9957612c9861424a565b5b60200260200101511660ff16625000001762ffffff1692505050612ff6565b612cc184613334565b15612d4f57600f84600381518110612cdc57612cdb61424a565b5b60200260200101511660ff166004600f86600481518110612d0057612cff61424a565b5b60200260200101511660ff16901b60ff166008600f87600281518110612d2957612d2861424a565b5b60200260200101511660ff16901b60ff166240000017171762ffffff1692505050612ff6565b612d588461341a565b15612de657600f84600481518110612d7357612d7261424a565b5b60200260200101511660ff166004600f86600181518110612d9757612d9661424a565b5b60200260200101511660ff16901b60ff166008600f87600381518110612dc057612dbf61424a565b5b60200260200101511660ff16901b60ff166230000017171762ffffff1692505050612ff6565b612def846135e7565b15612f1d576000805b6004811015612e8657600f86600183612e119190613d81565b81518110612e2257612e2161424a565b5b60200260200101511660ff16600f878381518110612e4357612e4261424a565b5b60200260200101511660ff1603612e7957600f868281518110612e6957612e6861424a565b5b6020026020010151169150612e86565b8080600101915050612df8565b50600f85600281518110612e9d57612e9c61424a565b5b60200260200101511660ff166004600f87600381518110612ec157612ec061424a565b5b60200260200101511660ff16901b60ff166008600f88600481518110612eea57612ee961424a565b5b60200260200101511660ff16901b60ff1660108460ff16901b60ff16622000001717171762ffffff169350505050612ff6565b600f84600081518110612f3357612f3261424a565b5b60200260200101511660ff166004600f86600181518110612f5757612f5661424a565b5b60200260200101511660ff16901b60ff166008600f87600281518110612f8057612f7f61424a565b5b60200260200101511660ff16901b60ff16600c600f88600381518110612fa957612fa861424a565b5b60200260200101511660ff16901b60ff166010600f89600481518110612fd257612fd161424a565b5b60200260200101511660ff16901b60ff1662100000171717171762ffffff16925050505b919050565b60008060f0836000815181106130145761301361424a565b5b60200260200101511690506000600190505b6005811015613071578160ff1660f08583815181106130485761304761424a565b5b60200260200101511660ff161461306457600092505050613078565b8080600101915050613026565b5060019150505b919050565b600080600f836000815181106130965761309561424a565b5b60200260200101511690506000600190505b600581101561315a576000600f8583815181106130c8576130c761424a565b5b60200260200101511690506001836130e09190615ed8565b60ff168160ff1614613149576004821480156130ff575060058360ff16145b801561312c5750600e600f8660008151811061311e5761311d61424a565b5b60200260200101511660ff16145b1561313d5760019350505050613161565b60009350505050613161565b8092505080806001019150506130a8565b5060019150505b919050565b6000600f8260038151811061317e5761317d61424a565b5b60200260200101511660ff16600f836000815181106131a05761319f61424a565b5b60200260200101511660ff1614806131f95750600f826004815181106131c9576131c861424a565b5b60200260200101511660ff16600f836001815181106131eb576131ea61424a565b5b60200260200101511660ff16145b9050919050565b6000600f826002815181106132185761321761424a565b5b60200260200101511660ff16600f8360008151811061323a5761323961424a565b5b60200260200101511660ff161480156132945750600f826004815181106132645761326361424a565b5b60200260200101511660ff16600f836003815181106132865761328561424a565b5b60200260200101511660ff16145b8061332d5750600f826001815181106132b0576132af61424a565b5b60200260200101511660ff16600f836000815181106132d2576132d161424a565b5b60200260200101511660ff1614801561332c5750600f826004815181106132fc576132fb61424a565b5b60200260200101511660ff16600f8360028151811061331e5761331d61424a565b5b60200260200101511660ff16145b5b9050919050565b6000600f8260028151811061334c5761334b61424a565b5b60200260200101511660ff16600f8360008151811061336e5761336d61424a565b5b60200260200101511660ff1614806133c75750600f826003815181106133975761339661424a565b5b60200260200101511660ff16600f836001815181106133b9576133b861424a565b5b60200260200101511660ff16145b806134135750600f826004815181106133e3576133e261424a565b5b60200260200101511660ff16600f836002815181106134055761340461424a565b5b60200260200101511660ff16145b9050919050565b6000600f826001815181106134325761343161424a565b5b60200260200101511660ff16600f836000815181106134545761345361424a565b5b60200260200101511660ff161480156134ae5750600f8260038151811061347e5761347d61424a565b5b60200260200101511660ff16600f836002815181106134a05761349f61424a565b5b60200260200101511660ff16145b806135475750600f826001815181106134ca576134c961424a565b5b60200260200101511660ff16600f836000815181106134ec576134eb61424a565b5b60200260200101511660ff161480156135465750600f826004815181106135165761351561424a565b5b60200260200101511660ff16600f836003815181106135385761353761424a565b5b60200260200101511660ff16145b5b806135e05750600f826002815181106135635761356261424a565b5b60200260200101511660ff16600f836001815181106135855761358461424a565b5b60200260200101511660ff161480156135df5750600f826004815181106135af576135ae61424a565b5b60200260200101511660ff16600f836003815181106135d1576135d061424a565b5b60200260200101511660ff16145b5b9050919050565b600080600090505b600481101561366257600f836001836136089190613d81565b815181106136195761361861424a565b5b60200260200101511660ff16600f84838151811061363a5761363961424a565b5b60200260200101511660ff1603613655576001915050613668565b80806001019150506135ef565b50600090505b919050565b82805482825590600052602060002090601f016020900481019282156137035791602002820160005b838211156136d457835183826101000a81548160ff021916908360ff1602179055509260200192600101602081600001049283019260010302613696565b80156137015782816101000a81549060ff02191690556001016020816000010492830192600103026136d4565b505b5090506137109190613714565b5090565b5b8082111561372d576000816000905550600101613715565b5090565b600080fd5b6000819050919050565b61374981613736565b811461375457600080fd5b50565b60008135905061376681613740565b92915050565b60006020828403121561378257613781613731565b5b600061379084828501613757565b91505092915050565b600081519050919050565b600082825260208201905092915050565b6000819050602082019050919050565b600060ff82169050919050565b6137db816137c5565b82525050565b60006137ed83836137d2565b60208301905092915050565b6000602082019050919050565b600061381182613799565b61381b81856137a4565b9350613826836137b5565b8060005b8381101561385757815161383e88826137e1565b9750613849836137f9565b92505060018101905061382a565b5085935050505092915050565b6000602082019050818103600083015261387e8184613806565b905092915050565b61388f81613736565b82525050565b600073ffffffffffffffffffffffffffffffffffffffff82169050919050565b60006138c082613895565b9050919050565b6138d0816138b5565b82525050565b60008115159050919050565b6138eb816138d6565b82525050565b7f4e487b7100000000000000000000000000000000000000000000000000000000600052602160045260246000fd5b60058110613931576139306138f1565b5b50565b600081905061394282613920565b919050565b600061395282613934565b9050919050565b61396281613947565b82525050565b60006101808201905061397e600083018f613886565b61398b602083018e6138c7565b613998604083018d613886565b6139a5606083018c613886565b6139b2608083018b6138e2565b6139bf60a083018a613886565b6139cc60c0830189613959565b6139d960e0830188613886565b6139e7610100830187613886565b6139f5610120830186613886565b613a03610140830185613886565b613a11610160830184613886565b9d9c50505050505050505050505050565b6000602082019050613a376000830184613886565b92915050565b60008060408385031215613a5457613a53613731565b5b6000613a6285828601613757565b9250506020613a7385828601613757565b9150509250929050565b613a86816138b5565b8114613a9157600080fd5b50565b600081359050613aa381613a7d565b92915050565b60008060408385031215613ac057613abf613731565b5b6000613ace85828601613757565b9250506020613adf85828601613a94565b9150509250929050565b6000613af482613895565b9050919050565b613b0481613ae9565b82525050565b600060a082019050613b1f6000830188613afb565b613b2c60208301876138e2565b613b396040830186613886565b613b4660608301856138e2565b613b5360808301846138e2565b9695505050505050565b600082825260208201905092915050565b7f47616d65206973206e6f74206163746976650000000000000000000000000000600082015250565b6000613ba4601283613b5d565b9150613baf82613b6e565b602082019050919050565b60006020820190508181036000830152613bd381613b97565b9050919050565b7f4e6f7420612070617274696369706174696e6720706c61796572000000000000600082015250565b6000613c10601a83613b5d565b9150613c1b82613bda565b602082019050919050565b60006020820190508181036000830152613c3f81613c03565b9050919050565b7f526f756e642068617320656e6465640000000000000000000000000000000000600082015250565b6000613c7c600f83613b5d565b9150613c8782613c46565b602082019050919050565b60006020820190508181036000830152613cab81613c6f565b9050919050565b7f4e6f7420656e6f75676820636869707320746f2063616c6c0000000000000000600082015250565b6000613ce8601883613b5d565b9150613cf382613cb2565b602082019050919050565b60006020820190508181036000830152613d1781613cdb565b9050919050565b7f4e487b7100000000000000000000000000000000000000000000000000000000600052601160045260246000fd5b6000613d5882613736565b9150613d6383613736565b9250828203905081811115613d7b57613d7a613d1e565b5b92915050565b6000613d8c82613736565b9150613d9783613736565b9250828201905080821115613daf57613dae613d1e565b5b92915050565b7f43616c6c00000000000000000000000000000000000000000000000000000000600082015250565b6000613deb600483613b5d565b9150613df682613db5565b602082019050919050565b60006040820190508181036000830152613e1a81613dde565b9050613e296020830184613886565b92915050565b7f4275792d696e206d7573742062652067726561746572207468616e207a65726f600082015250565b6000613e65602083613b5d565b9150613e7082613e2f565b602082019050919050565b60006020820190508181036000830152613e9481613e58565b9050919050565b7f5261697365206d75737420626520686967686572207468616e2063757272656e60008201527f7420626574000000000000000000000000000000000000000000000000000000602082015250565b6000613ef7602583613b5d565b9150613f0282613e9b565b604082019050919050565b60006020820190508181036000830152613f2681613eea565b9050919050565b7f4e6f7420656e6f75676820636869707320746f20726169736500000000000000600082015250565b6000613f63601983613b5d565b9150613f6e82613f2d565b602082019050919050565b60006020820190508181036000830152613f9281613f56565b9050919050565b7f5261697365000000000000000000000000000000000000000000000000000000600082015250565b6000613fcf600583613b5d565b9150613fda82613f99565b602082019050919050565b60006040820190508181036000830152613ffe81613fc2565b905061400d6020830184613886565b92915050565b7f426574206d75737420626520686967686572207468616e2063757272656e742060008201527f6265740000000000000000000000000000000000000000000000000000000000602082015250565b600061406f602383613b5d565b915061407a82614013565b604082019050919050565b6000602082019050818103600083015261409e81614062565b9050919050565b7f4e6f7420656e6f75676820636869707300000000000000000000000000000000600082015250565b60006140db601083613b5d565b91506140e6826140a5565b602082019050919050565b6000602082019050818103600083015261410a816140ce565b9050919050565b7f4265740000000000000000000000000000000000000000000000000000000000600082015250565b6000614147600383613b5d565b915061415282614111565b602082019050919050565b600060408201905081810360008301526141768161413a565b90506141856020830184613886565b92915050565b7f466f6c6400000000000000000000000000000000000000000000000000000000600082015250565b60006141c1600483613b5d565b91506141cc8261418b565b602082019050919050565b6000819050919050565b6000819050919050565b60006142066142016141fc846141d7565b6141e1565b613736565b9050919050565b614216816141eb565b82525050565b60006040820190508181036000830152614235816141b4565b9050614244602083018461420d565b92915050565b7f4e487b7100000000000000000000000000000000000000000000000000000000600052603260045260246000fd5b7f506c61796572206973206e6f742070617274696369706174696e6720696e207460008201527f68652067616d6500000000000000000000000000000000000000000000000000602082015250565b60006142d5602783613b5d565b91506142e082614279565b604082019050919050565b60006020820190508181036000830152614304816142c8565b9050919050565b7f506c61796572206e6f7420666f756e6420696e207468652067616d6500000000600082015250565b6000614341601c83613b5d565b915061434c8261430b565b602082019050919050565b6000602082019050818103600083015261437081614334565b9050919050565b7f4e6f7420746865206465616c6572000000000000000000000000000000000000600082015250565b60006143ad600e83613b5d565b91506143b882614377565b602082019050919050565b600060208201905081810360008301526143dc816143a0565b9050919050565b7f4e6f7420656e6f75676820706c617965727320746f207374617274207468652060008201527f67616d6500000000000000000000000000000000000000000000000000000000602082015250565b600061443f602483613b5d565b915061444a826143e3565b604082019050919050565b6000602082019050818103600083015261446e81614432565b9050919050565b600060208201905061448a6000830184613959565b92915050565b7f496e636f7272656374206275792d696e20616d6f756e74000000000000000000600082015250565b60006144c6601783613b5d565b91506144d182614490565b602082019050919050565b600060208201905081810360008301526144f5816144b9565b9050919050565b7f47616d652069732066756c6c0000000000000000000000000000000000000000600082015250565b6000614532600c83613b5d565b915061453d826144fc565b602082019050919050565b6000602082019050818103600083015261456181614525565b9050919050565b7f4e487b7100000000000000000000000000000000000000000000000000000000600052604160045260246000fd5b7f506c61796572206e6f7420666f756e6400000000000000000000000000000000600082015250565b60006145cd601083613b5d565b91506145d882614597565b602082019050919050565b600060208201905081810360008301526145fc816145c0565b9050919050565b7f4e487b7100000000000000000000000000000000000000000000000000000000600052601260045260246000fd5b600061463d82613736565b915061464883613736565b92508261465857614657614603565b5b828206905092915050565b6000819050919050565b61467e61467982613736565b614663565b82525050565b600081549050919050565b600081905092915050565b60008190508160005260206000209050919050565b6146b8816137c5565b82525050565b60008160001c9050919050565b600060ff82169050919050565b60006146eb6146e6836146be565b6146cb565b9050919050565b60008160081c9050919050565b600061471261470d836146f2565b6146cb565b9050919050565b60008160101c9050919050565b600061473961473483614719565b6146cb565b9050919050565b60008160181c9050919050565b600061476061475b83614740565b6146cb565b9050919050565b60008160201c9050919050565b600061478761478283614767565b6146cb565b9050919050565b60008160281c9050919050565b60006147ae6147a98361478e565b6146cb565b9050919050565b60008160301c9050919050565b60006147d56147d0836147b5565b6146cb565b9050919050565b60008160381c9050919050565b60006147fc6147f7836147dc565b6146cb565b9050919050565b60008160401c9050919050565b600061482361481e83614803565b6146cb565b9050919050565b60008160481c9050919050565b600061484a6148458361482a565b6146cb565b9050919050565b60008160501c9050919050565b600061487161486c83614851565b6146cb565b9050919050565b60008160581c9050919050565b600061489861489383614878565b6146cb565b9050919050565b60008160601c9050919050565b60006148bf6148ba8361489f565b6146cb565b9050919050565b60008160681c9050919050565b60006148e66148e1836148c6565b6146cb565b9050919050565b60008160701c9050919050565b600061490d614908836148ed565b6146cb565b9050919050565b60008160781c9050919050565b600061493461492f83614914565b6146cb565b9050919050565b60008160801c9050919050565b600061495b6149568361493b565b6146cb565b9050919050565b60008160881c9050919050565b600061498261497d83614962565b6146cb565b9050919050565b60008160901c9050919050565b60006149a96149a483614989565b6146cb565b9050919050565b60008160981c9050919050565b60006149d06149cb836149b0565b6146cb565b9050919050565b60008160a01c9050919050565b60006149f76149f2836149d7565b6146cb565b9050919050565b60008160a81c9050919050565b6000614a1e614a19836149fe565b6146cb565b9050919050565b60008160b01c9050919050565b6000614a45614a4083614a25565b6146cb565b9050919050565b60008160b81c9050919050565b6000614a6c614a6783614a4c565b6146cb565b9050919050565b60008160c01c9050919050565b6000614a93614a8e83614a73565b6146cb565b9050919050565b60008160c81c9050919050565b6000614aba614ab583614a9a565b6146cb565b9050919050565b60008160d01c9050919050565b6000614ae1614adc83614ac1565b6146cb565b9050919050565b60008160d81c9050919050565b6000614b08614b0383614ae8565b6146cb565b9050919050565b60008160e01c9050919050565b6000614b2f614b2a83614b0f565b6146cb565b9050919050565b60008160e81c9050919050565b6000614b56614b5183614b36565b6146cb565b9050919050565b60008160f01c9050919050565b6000614b7d614b7883614b5d565b6146cb565b9050919050565b60008160f81c9050919050565b6000614ba4614b9f83614b84565b6146cb565b9050919050565b6000614bb682614684565b614bc0818561468f565b935083614bcc8461469a565b6000600115614ef9575b83600160200382011015614ef8578154614bf888614bf3836146d8565b6146af565b602088019750614c1088614c0b836146ff565b6146af565b602088019750614c2888614c2383614726565b6146af565b602088019750614c4088614c3b8361474d565b6146af565b602088019750614c5888614c5383614774565b6146af565b602088019750614c7088614c6b8361479b565b6146af565b602088019750614c8888614c83836147c2565b6146af565b602088019750614ca088614c9b836147e9565b6146af565b602088019750614cb888614cb383614810565b6146af565b602088019750614cd088614ccb83614837565b6146af565b602088019750614ce888614ce38361485e565b6146af565b602088019750614d0088614cfb83614885565b6146af565b602088019750614d1888614d13836148ac565b6146af565b602088019750614d3088614d2b836148d3565b6146af565b602088019750614d4888614d43836148fa565b6146af565b602088019750614d6088614d5b83614921565b6146af565b602088019750614d7888614d7383614948565b6146af565b602088019750614d9088614d8b8361496f565b6146af565b602088019750614da888614da383614996565b6146af565b602088019750614dc088614dbb836149bd565b6146af565b602088019750614dd888614dd3836149e4565b6146af565b602088019750614df088614deb83614a0b565b6146af565b602088019750614e0888614e0383614a32565b6146af565b602088019750614e2088614e1b83614a59565b6146af565b602088019750614e3888614e3383614a80565b6146af565b602088019750614e5088614e4b83614aa7565b6146af565b602088019750614e6888614e6383614ace565b6146af565b602088019750614e8088614e7b83614af5565b6146af565b602088019750614e9888614e9383614b1c565b6146af565b602088019750614eb088614eab83614b43565b6146af565b602088019750614ec888614ec383614b6a565b6146af565b602088019750614ee088614edb83614b91565b6146af565b60208801975060018301925050602081019050614bd6565b5b6001156153e457815484821015614f2957614f1c88614f17836146d8565b6146af565b6020880197506001820191505b84821015614f5057614f4388614f3e836146ff565b6146af565b6020880197506001820191505b84821015614f7757614f6a88614f6583614726565b6146af565b6020880197506001820191505b84821015614f9e57614f9188614f8c8361474d565b6146af565b6020880197506001820191505b84821015614fc557614fb888614fb383614774565b6146af565b6020880197506001820191505b84821015614fec57614fdf88614fda8361479b565b6146af565b6020880197506001820191505b848210156150135761500688615001836147c2565b6146af565b6020880197506001820191505b8482101561503a5761502d88615028836147e9565b6146af565b6020880197506001820191505b84821015615061576150548861504f83614810565b6146af565b6020880197506001820191505b848210156150885761507b8861507683614837565b6146af565b6020880197506001820191505b848210156150af576150a28861509d8361485e565b6146af565b6020880197506001820191505b848210156150d6576150c9886150c483614885565b6146af565b6020880197506001820191505b848210156150fd576150f0886150eb836148ac565b6146af565b6020880197506001820191505b848210156151245761511788615112836148d3565b6146af565b6020880197506001820191505b8482101561514b5761513e88615139836148fa565b6146af565b6020880197506001820191505b84821015615172576151658861516083614921565b6146af565b6020880197506001820191505b848210156151995761518c8861518783614948565b6146af565b6020880197506001820191505b848210156151c0576151b3886151ae8361496f565b6146af565b6020880197506001820191505b848210156151e7576151da886151d583614996565b6146af565b6020880197506001820191505b8482101561520e57615201886151fc836149bd565b6146af565b6020880197506001820191505b848210156152355761522888615223836149e4565b6146af565b6020880197506001820191505b8482101561525c5761524f8861524a83614a0b565b6146af565b6020880197506001820191505b84821015615283576152768861527183614a32565b6146af565b6020880197506001820191505b848210156152aa5761529d8861529883614a59565b6146af565b6020880197506001820191505b848210156152d1576152c4886152bf83614a80565b6146af565b6020880197506001820191505b848210156152f8576152eb886152e683614aa7565b6146af565b6020880197506001820191505b8482101561531f576153128861530d83614ace565b6146af565b6020880197506001820191505b84821015615346576153398861533483614af5565b6146af565b6020880197506001820191505b8482101561536d576153608861535b83614b1c565b6146af565b6020880197506001820191505b84821015615394576153878861538283614b43565b6146af565b6020880197506001820191505b848210156153bb576153ae886153a983614b6a565b6146af565b6020880197506001820191505b848210156153e2576153d5886153d083614b91565b6146af565b6020880197506001820191505b505b8694505050505092915050565b60006153fd828661466d565b60208201915061540d828561466d565b60208201915061541d8284614bab565b9150819050949350505050565b600061543582613736565b91506000820361544857615447613d1e565b5b600182039050919050565b7f4e6f206361726473206c65667420746f206465616c0000000000000000000000600082015250565b6000615489601583613b5d565b915061549482615453565b602082019050919050565b600060208201905081810360008301526154b88161547c565b9050919050565b7f4e487b7100000000000000000000000000000000000000000000000000000000600052603160045260246000fd5b7f4e6f7420656e6f75676820636f6d6d756e69747920636172647320746f20726560008201527f7665616c00000000000000000000000000000000000000000000000000000000602082015250565b600061554a602483613b5d565b9150615555826154ee565b604082019050919050565b600060208201905081810360008301526155798161553d565b9050919050565b600081549050919050565b60008190508160005260206000209050919050565b60006155ab82615580565b6155b581856137a4565b9350836155c18461558b565b60006001156158ee575b836001602003820110156158ed5781546155ed886155e8836146d8565b6137d2565b60208801975061560588615600836146ff565b6137d2565b60208801975061561d8861561883614726565b6137d2565b602088019750615635886156308361474d565b6137d2565b60208801975061564d8861564883614774565b6137d2565b602088019750615665886156608361479b565b6137d2565b60208801975061567d88615678836147c2565b6137d2565b60208801975061569588615690836147e9565b6137d2565b6020880197506156ad886156a883614810565b6137d2565b6020880197506156c5886156c083614837565b6137d2565b6020880197506156dd886156d88361485e565b6137d2565b6020880197506156f5886156f083614885565b6137d2565b60208801975061570d88615708836148ac565b6137d2565b60208801975061572588615720836148d3565b6137d2565b60208801975061573d88615738836148fa565b6137d2565b6020880197506157558861575083614921565b6137d2565b60208801975061576d8861576883614948565b6137d2565b602088019750615785886157808361496f565b6137d2565b60208801975061579d8861579883614996565b6137d2565b6020880197506157b5886157b0836149bd565b6137d2565b6020880197506157cd886157c8836149e4565b6137d2565b6020880197506157e5886157e083614a0b565b6137d2565b6020880197506157fd886157f883614a32565b6137d2565b6020880197506158158861581083614a59565b6137d2565b60208801975061582d8861582883614a80565b6137d2565b6020880197506158458861584083614aa7565b6137d2565b60208801975061585d8861585883614ace565b6137d2565b6020880197506158758861587083614af5565b6137d2565b60208801975061588d8861588883614b1c565b6137d2565b6020880197506158a5886158a083614b43565b6137d2565b6020880197506158bd886158b883614b6a565b6137d2565b6020880197506158d5886158d083614b91565b6137d2565b602088019750600183019250506020810190506155cb565b5b600115615dd95781548482101561591e576159118861590c836146d8565b6137d2565b6020880197506001820191505b848210156159455761593888615933836146ff565b6137d2565b6020880197506001820191505b8482101561596c5761595f8861595a83614726565b6137d2565b6020880197506001820191505b8482101561599357615986886159818361474d565b6137d2565b6020880197506001820191505b848210156159ba576159ad886159a883614774565b6137d2565b6020880197506001820191505b848210156159e1576159d4886159cf8361479b565b6137d2565b6020880197506001820191505b84821015615a08576159fb886159f6836147c2565b6137d2565b6020880197506001820191505b84821015615a2f57615a2288615a1d836147e9565b6137d2565b6020880197506001820191505b84821015615a5657615a4988615a4483614810565b6137d2565b6020880197506001820191505b84821015615a7d57615a7088615a6b83614837565b6137d2565b6020880197506001820191505b84821015615aa457615a9788615a928361485e565b6137d2565b6020880197506001820191505b84821015615acb57615abe88615ab983614885565b6137d2565b6020880197506001820191505b84821015615af257615ae588615ae0836148ac565b6137d2565b6020880197506001820191505b84821015615b1957615b0c88615b07836148d3565b6137d2565b6020880197506001820191505b84821015615b4057615b3388615b2e836148fa565b6137d2565b6020880197506001820191505b84821015615b6757615b5a88615b5583614921565b6137d2565b6020880197506001820191505b84821015615b8e57615b8188615b7c83614948565b6137d2565b6020880197506001820191505b84821015615bb557615ba888615ba38361496f565b6137d2565b6020880197506001820191505b84821015615bdc57615bcf88615bca83614996565b6137d2565b6020880197506001820191505b84821015615c0357615bf688615bf1836149bd565b6137d2565b6020880197506001820191505b84821015615c2a57615c1d88615c18836149e4565b6137d2565b6020880197506001820191505b84821015615c5157615c4488615c3f83614a0b565b6137d2565b6020880197506001820191505b84821015615c7857615c6b88615c6683614a32565b6137d2565b6020880197506001820191505b84821015615c9f57615c9288615c8d83614a59565b6137d2565b6020880197506001820191505b84821015615cc657615cb988615cb483614a80565b6137d2565b6020880197506001820191505b84821015615ced57615ce088615cdb83614aa7565b6137d2565b6020880197506001820191505b84821015615d1457615d0788615d0283614ace565b6137d2565b6020880197506001820191505b84821015615d3b57615d2e88615d2983614af5565b6137d2565b6020880197506001820191505b84821015615d6257615d5588615d5083614b1c565b6137d2565b6020880197506001820191505b84821015615d8957615d7c88615d7783614b43565b6137d2565b6020880197506001820191505b84821015615db057615da388615d9e83614b6a565b6137d2565b6020880197506001820191505b84821015615dd757615dca88615dc583614b91565b6137d2565b6020880197506001820191505b505b8694505050505092915050565b60006020820190508181036000830152615e0081846155a0565b905092915050565b6000615e23615e1e615e1984613895565b6141e1565b613895565b9050919050565b6000615e3582615e08565b9050919050565b6000615e4782615e2a565b9050919050565b615e5781615e3c565b82525050565b6000604082019050615e726000830185615e4e565b615e7f6020830184613886565b9392505050565b6000604082019050615e9b60008301856138c7565b615ea8602083018461420d565b9392505050565b6000615eba826137c5565b915060ff8203615ecd57615ecc613d1e565b5b600182019050919050565b6000615ee3826137c5565b9150615eee836137c5565b9250828201905060ff811115615f0757615f06613d1e565b5b9291505056fea2646970667358221220976d35f557cf10a48c90e3f382607eda6c25d3fa2a10c04682cd8875eb927abf64736f6c634300081b0033",
  "linkReferences": {},
  "deployedLinkReferences": {}
}