{
  "_format": "hh-sol-artifact-1",
  "contractName": "Poker",
  "sourceName": "contracts/PokerContract.sol",
  "abi": [
    {
      "anonymous": false,
      "inputs": [
        {
          "indexed": true,
          "internalType": "uint256",
          "name": "gameId",
          "type": "uint256"
        },
        {
          "indexed": false,
          "internalType": "uint8[]",
          "name": "communityCards",
          "type": "uint8[]"
        }
      ],
      "name": "CardsDealt",
      "type": "event"
    },
    {
      "anonymous": false,
      "inputs": [
        {
          "indexed": true,
          "internalType": "uint256",
          "name": "gameId",
          "type": "uint256"
        },
        {
          "indexed": true,
          "internalType": "address",
          "name": "dealer",
          "type": "address"
        },
        {
          "indexed": false,
          "internalType": "uint256",
          "name": "buyIn",
          "type": "uint256"
        }
      ],
      "name": "GameCreated",
      "type": "event"
    },
    {
      "anonymous": false,
      "inputs": [
        {
          "indexed": true,
          "internalType": "uint256",
          "name": "gameId",
          "type": "uint256"
        },
        {
          "indexed": false,
          "internalType": "address",
          "name": "winner",
          "type": "address"
        }
      ],
      "name": "GameEnded",
      "type": "event"
    },
    {
      "anonymous": false,
      "inputs": [
        {
          "indexed": true,
          "internalType": "uint256",
          "name": "gameId",
          "type": "uint256"
        }
      ],
      "name": "GameStarted",
      "type": "event"
    },
    {
      "anonymous": false,
      "inputs": [
        {
          "indexed": true,
          "internalType": "uint256",
          "name": "gameId",
          "type": "uint256"
        },
        {
          "indexed": true,
          "internalType": "address",
          "name": "player",
          "type": "address"
        },
        {
          "indexed": false,
          "internalType": "string",
          "name": "action",
          "type": "string"
        },
        {
          "indexed": false,
          "internalType": "uint256",
          "name": "amount",
          "type": "uint256"
        }
      ],
      "name": "PlayerAction",
      "type": "event"
    },
    {
      "anonymous": false,
      "inputs": [
        {
          "indexed": true,
          "internalType": "uint256",
          "name": "gameId",
          "type": "uint256"
        },
        {
          "indexed": true,
          "internalType": "address",
          "name": "player",
          "type": "address"
        }
      ],
      "name": "PlayerJoined",
      "type": "event"
    },
    {
      "inputs": [
        {
          "internalType": "uint256",
          "name": "_gameId",
          "type": "uint256"
        },
        {
          "internalType": "uint256",
          "name": "_amount",
          "type": "uint256"
        }
      ],
      "name": "Raise",
      "outputs": [],
      "stateMutability": "nonpayable",
      "type": "function"
    },
    {
      "inputs": [
        {
          "internalType": "uint256",
          "name": "_gameId",
          "type": "uint256"
        },
        {
          "internalType": "uint256",
          "name": "_amount",
          "type": "uint256"
        }
      ],
      "name": "bet",
      "outputs": [],
      "stateMutability": "nonpayable",
      "type": "function"
    },
    {
      "inputs": [
        {
          "internalType": "uint256",
          "name": "_gameId",
          "type": "uint256"
        }
      ],
      "name": "call",
      "outputs": [],
      "stateMutability": "nonpayable",
      "type": "function"
    },
    {
      "inputs": [
        {
          "internalType": "uint256",
          "name": "_buyIn",
          "type": "uint256"
        }
      ],
      "name": "createGame",
      "outputs": [],
      "stateMutability": "nonpayable",
      "type": "function"
    },
    {
      "inputs": [
        {
          "internalType": "uint256",
          "name": "_gameId",
          "type": "uint256"
        },
        {
          "internalType": "address payable",
          "name": "_winner",
          "type": "address"
        }
      ],
      "name": "endGame",
      "outputs": [],
      "stateMutability": "nonpayable",
      "type": "function"
    },
    {
      "inputs": [
        {
          "internalType": "uint256",
          "name": "_gameId",
          "type": "uint256"
        }
      ],
      "name": "fold",
      "outputs": [],
      "stateMutability": "nonpayable",
      "type": "function"
    },
    {
      "inputs": [],
      "name": "gameCount",
      "outputs": [
        {
          "internalType": "uint256",
          "name": "",
          "type": "uint256"
        }
      ],
      "stateMutability": "view",
      "type": "function"
    },
    {
      "inputs": [
        {
          "internalType": "uint256",
          "name": "",
          "type": "uint256"
        }
      ],
      "name": "games",
      "outputs": [
        {
          "internalType": "uint256",
          "name": "gameId",
          "type": "uint256"
        },
        {
          "internalType": "address",
          "name": "dealer",
          "type": "address"
        },
        {
          "internalType": "uint256",
          "name": "pot",
          "type": "uint256"
        },
        {
          "internalType": "uint256",
          "name": "buyIn",
          "type": "uint256"
        },
        {
          "internalType": "bool",
          "name": "isActive",
          "type": "bool"
        },
        {
          "internalType": "uint256",
          "name": "currentBet",
          "type": "uint256"
        },
        {
          "internalType": "enum Poker.GameState",
          "name": "currentState",
          "type": "uint8"
        }
      ],
      "stateMutability": "view",
      "type": "function"
    },
    {
      "inputs": [
        {
          "internalType": "uint256",
          "name": "_gameId",
          "type": "uint256"
        }
      ],
      "name": "joinGame",
      "outputs": [],
      "stateMutability": "payable",
      "type": "function"
    },
    {
      "inputs": [
        {
          "internalType": "uint256",
          "name": "_gameId",
          "type": "uint256"
        }
      ],
      "name": "startGame",
      "outputs": [],
      "stateMutability": "nonpayable",
      "type": "function"
    }
  ],
  "bytecode": "0x6080604052348015600f57600080fd5b506125b48061001f6000396000f3fe6080604052600436106100915760003560e01c80638651413111610059578063865141311461017f578063bff7a00b146101a8578063e5ed1d59146101d1578063efaa55a0146101fa578063f1b7598a1461021657610091565b8063117a5b90146100965780632b096926146100d957806348e837b9146101025780634d1975b41461012b5780636ffcc71914610156575b600080fd5b3480156100a257600080fd5b506100bd60048036038101906100b89190610f66565b61023f565b6040516100d09796959493929190611075565b60405180910390f35b3480156100e557600080fd5b5061010060048036038101906100fb9190610f66565b6102bb565b005b34801561010e57600080fd5b5061012960048036038101906101249190610f66565b61038c565b005b34801561013757600080fd5b506101406104bc565b60405161014d91906110e4565b60405180910390f35b34801561016257600080fd5b5061017d600480360381019061017891906110ff565b6104c2565b005b34801561018b57600080fd5b506101a660048036038101906101a1919061117d565b6105df565b005b3480156101b457600080fd5b506101cf60048036038101906101ca9190610f66565b6107a3565b005b3480156101dd57600080fd5b506101f860048036038101906101f39190610f66565b610871565b005b610214600480360381019061020f9190610f66565b6109b3565b005b34801561022257600080fd5b5061023d600480360381019061023891906110ff565b610c16565b005b60006020528060005260406000206000915090508060000154908060010160009054906101000a900473ffffffffffffffffffffffffffffffffffffffff16908060020154908060030154908060050160009054906101000a900460ff16908060060154908060090160009054906101000a900460ff16905087565b8060008082815260200190815260200160002060050160009054906101000a900460ff1661031e576040517f08c379a00000000000000000000000000000000000000000000000000000000081526004016103159061121a565b60405180910390fd5b600080600084815260200190815260200160002090503373ffffffffffffffffffffffffffffffffffffffff16837ff3d4f57e05aae06b4017c0b2ed81f62aa6f19deef046d6a78ad2a4223858c4f0836006015460405161037f9190611286565b60405180910390a3505050565b6001600081548092919061039f906112e3565b91905055506000806000600154815260200190815260200160002090506001548160000181905550338160010160006101000a81548173ffffffffffffffffffffffffffffffffffffffff021916908373ffffffffffffffffffffffffffffffffffffffff16021790555081816003018190555060018160050160006101000a81548160ff0219169083151502179055506000816006018190555060008160090160006101000a81548160ff0219169083600481111561046257610461610ffe565b5b02179055503373ffffffffffffffffffffffffffffffffffffffff166001547f7dfb67e9ff596fca4da65c7eedb128cd1aac553af54b3c0cb733625a2480d8bd846040516104b091906110e4565b60405180910390a35050565b60015481565b8160008082815260200190815260200160002060050160009054906101000a900460ff16610525576040517f08c379a000000000000000000000000000000000000000000000000000000000815260040161051c9061121a565b60405180910390fd5b6000806000858152602001908152602001600020905080600601548311610581576040517f08c379a00000000000000000000000000000000000000000000000000000000081526004016105789061139d565b60405180910390fd5b8281600601819055503373ffffffffffffffffffffffffffffffffffffffff16847ff3d4f57e05aae06b4017c0b2ed81f62aa6f19deef046d6a78ad2a4223858c4f0856040516105d19190611409565b60405180910390a350505050565b8160008082815260200190815260200160002060010160009054906101000a900473ffffffffffffffffffffffffffffffffffffffff1673ffffffffffffffffffffffffffffffffffffffff163373ffffffffffffffffffffffffffffffffffffffff1614610683576040517f08c379a000000000000000000000000000000000000000000000000000000000815260040161067a90611483565b60405180910390fd5b8260008082815260200190815260200160002060050160009054906101000a900460ff166106e6576040517f08c379a00000000000000000000000000000000000000000000000000000000081526004016106dd9061121a565b60405180910390fd5b6000806000868152602001908152602001600020905060008160050160006101000a81548160ff0219169083151502179055508373ffffffffffffffffffffffffffffffffffffffff166108fc82600201549081150290604051600060405180830381858888f19350505050158015610763573d6000803e3d6000fd5b50847f3d5fcd8fa3235aeb3897f25c8ea49989174981afcb01b9d03189d1056a16775b856040516107949190611502565b60405180910390a25050505050565b8060008082815260200190815260200160002060050160009054906101000a900460ff16610806576040517f08c379a00000000000000000000000000000000000000000000000000000000081526004016107fd9061121a565b60405180910390fd5b600080600084815260200190815260200160002090503373ffffffffffffffffffffffffffffffffffffffff16837ff3d4f57e05aae06b4017c0b2ed81f62aa6f19deef046d6a78ad2a4223858c4f0600060405161086491906115a4565b60405180910390a3505050565b8060008082815260200190815260200160002060010160009054906101000a900473ffffffffffffffffffffffffffffffffffffffff1673ffffffffffffffffffffffffffffffffffffffff163373ffffffffffffffffffffffffffffffffffffffff1614610915576040517f08c379a000000000000000000000000000000000000000000000000000000000815260040161090c90611483565b60405180910390fd5b8160008082815260200190815260200160002060050160009054906101000a900460ff16610978576040517f08c379a000000000000000000000000000000000000000000000000000000000815260040161096f9061121a565b60405180910390fd5b61098183610d33565b827f50ad08f58a27f2851d7e3a1b3a6a46b290f2ce677e99642d30ff639721e7779060405160405180910390a2505050565b8060008082815260200190815260200160002060050160009054906101000a900460ff16610a16576040517f08c379a0000000000000000000000000000000000000000000000000000000008152600401610a0d9061121a565b60405180910390fd5b6000806000848152602001908152602001600020905080600301543414610a72576040517f08c379a0000000000000000000000000000000000000000000000000000000008152600401610a699061161e565b60405180910390fd5b8060040160405180608001604052803373ffffffffffffffffffffffffffffffffffffffff168152602001600115158152602001348152602001600067ffffffffffffffff811115610ac757610ac661163e565b5b604051908082528060200260200182016040528015610af55781602001602082028036833780820191505090505b50815250908060018154018082558091505060019003906000526020600020906003020160009091909190915060008201518160000160006101000a81548173ffffffffffffffffffffffffffffffffffffffff021916908373ffffffffffffffffffffffffffffffffffffffff16021790555060208201518160000160146101000a81548160ff021916908315150217905550604082015181600101556060820151816002019080519060200190610baf929190610e67565b50505034816002016000828254610bc6919061166d565b925050819055503373ffffffffffffffffffffffffffffffffffffffff16837f87969bc7faf902221a147b95ceba76e011c5efb0339a0a8ee7a2bb82d9cfbbd660405160405180910390a3505050565b8160008082815260200190815260200160002060050160009054906101000a900460ff16610c79576040517f08c379a0000000000000000000000000000000000000000000000000000000008152600401610c709061121a565b60405180910390fd5b6000806000858152602001908152602001600020905080600601548311610cd5576040517f08c379a0000000000000000000000000000000000000000000000000000000008152600401610ccc90611713565b60405180910390fd5b8281600601819055503373ffffffffffffffffffffffffffffffffffffffff16847ff3d4f57e05aae06b4017c0b2ed81f62aa6f19deef046d6a78ad2a4223858c4f085604051610d25919061177f565b60405180910390a350505050565b60008060008381526020019081526020016000209050610d51610dc8565b816007019080519060200190610d68929190610e67565b5060005b8160040180549050811015610d88578080600101915050610d6c565b50817f6d088af88f5bd95b117fcdedfe0fc68e15c1c0d9f44dd8b930135653bccf019c82600801604051610dbc919061252d565b60405180910390a25050565b60606000603467ffffffffffffffff811115610de757610de661163e565b5b604051908082528060200260200182016040528015610e155781602001602082028036833780820191505090505b50905060005b60348160ff161015610e5f5780828260ff1681518110610e3e57610e3d61254f565b5b602002602001019060ff16908160ff16815250508080600101915050610e1b565b508091505090565b82805482825590600052602060002090601f01602090048101928215610efd5791602002820160005b83821115610ece57835183826101000a81548160ff021916908360ff1602179055509260200192600101602081600001049283019260010302610e90565b8015610efb5782816101000a81549060ff0219169055600101602081600001049283019260010302610ece565b505b509050610f0a9190610f0e565b5090565b5b80821115610f27576000816000905550600101610f0f565b5090565b600080fd5b6000819050919050565b610f4381610f30565b8114610f4e57600080fd5b50565b600081359050610f6081610f3a565b92915050565b600060208284031215610f7c57610f7b610f2b565b5b6000610f8a84828501610f51565b91505092915050565b610f9c81610f30565b82525050565b600073ffffffffffffffffffffffffffffffffffffffff82169050919050565b6000610fcd82610fa2565b9050919050565b610fdd81610fc2565b82525050565b60008115159050919050565b610ff881610fe3565b82525050565b7f4e487b7100000000000000000000000000000000000000000000000000000000600052602160045260246000fd5b6005811061103e5761103d610ffe565b5b50565b600081905061104f8261102d565b919050565b600061105f82611041565b9050919050565b61106f81611054565b82525050565b600060e08201905061108a600083018a610f93565b6110976020830189610fd4565b6110a46040830188610f93565b6110b16060830187610f93565b6110be6080830186610fef565b6110cb60a0830185610f93565b6110d860c0830184611066565b98975050505050505050565b60006020820190506110f96000830184610f93565b92915050565b6000806040838503121561111657611115610f2b565b5b600061112485828601610f51565b925050602061113585828601610f51565b9150509250929050565b600061114a82610fa2565b9050919050565b61115a8161113f565b811461116557600080fd5b50565b60008135905061117781611151565b92915050565b6000806040838503121561119457611193610f2b565b5b60006111a285828601610f51565b92505060206111b385828601611168565b9150509250929050565b600082825260208201905092915050565b7f47616d65206973206e6f74206163746976650000000000000000000000000000600082015250565b60006112046012836111bd565b915061120f826111ce565b602082019050919050565b60006020820190508181036000830152611233816111f7565b9050919050565b7f43616c6c00000000000000000000000000000000000000000000000000000000600082015250565b60006112706004836111bd565b915061127b8261123a565b602082019050919050565b6000604082019050818103600083015261129f81611263565b90506112ae6020830184610f93565b92915050565b7f4e487b7100000000000000000000000000000000000000000000000000000000600052601160045260246000fd5b60006112ee82610f30565b91507fffffffffffffffffffffffffffffffffffffffffffffffffffffffffffffffff82036113205761131f6112b4565b5b600182019050919050565b7f426574206d75737420626520686967686572207468616e2063757272656e742060008201527f6265740000000000000000000000000000000000000000000000000000000000602082015250565b60006113876023836111bd565b91506113928261132b565b604082019050919050565b600060208201905081810360008301526113b68161137a565b9050919050565b7f4265740000000000000000000000000000000000000000000000000000000000600082015250565b60006113f36003836111bd565b91506113fe826113bd565b602082019050919050565b60006040820190508181036000830152611422816113e6565b90506114316020830184610f93565b92915050565b7f4e6f7420746865206465616c6572000000000000000000000000000000000000600082015250565b600061146d600e836111bd565b915061147882611437565b602082019050919050565b6000602082019050818103600083015261149c81611460565b9050919050565b6000819050919050565b60006114c86114c36114be84610fa2565b6114a3565b610fa2565b9050919050565b60006114da826114ad565b9050919050565b60006114ec826114cf565b9050919050565b6114fc816114e1565b82525050565b600060208201905061151760008301846114f3565b92915050565b7f466f6c6400000000000000000000000000000000000000000000000000000000600082015250565b60006115536004836111bd565b915061155e8261151d565b602082019050919050565b6000819050919050565b600061158e61158961158484611569565b6114a3565b610f30565b9050919050565b61159e81611573565b82525050565b600060408201905081810360008301526115bd81611546565b90506115cc6020830184611595565b92915050565b7f496e636f7272656374206275792d696e20616d6f756e74000000000000000000600082015250565b60006116086017836111bd565b9150611613826115d2565b602082019050919050565b60006020820190508181036000830152611637816115fb565b9050919050565b7f4e487b7100000000000000000000000000000000000000000000000000000000600052604160045260246000fd5b600061167882610f30565b915061168383610f30565b925082820190508082111561169b5761169a6112b4565b5b92915050565b7f5261697365206d75737420626520686967686572207468616e2063757272656e60008201527f7420626574000000000000000000000000000000000000000000000000000000602082015250565b60006116fd6025836111bd565b9150611708826116a1565b604082019050919050565b6000602082019050818103600083015261172c816116f0565b9050919050565b7f5261697365000000000000000000000000000000000000000000000000000000600082015250565b60006117696005836111bd565b915061177482611733565b602082019050919050565b600060408201905081810360008301526117988161175c565b90506117a76020830184610f93565b92915050565b600081549050919050565b600082825260208201905092915050565b60008190508160005260206000209050919050565b600060ff82169050919050565b6117f4816117de565b82525050565b60008160001c9050919050565b600060ff82169050919050565b6000611827611822836117fa565b611807565b9050919050565b60008160081c9050919050565b600061184e6118498361182e565b611807565b9050919050565b60008160101c9050919050565b600061187561187083611855565b611807565b9050919050565b60008160181c9050919050565b600061189c6118978361187c565b611807565b9050919050565b60008160201c9050919050565b60006118c36118be836118a3565b611807565b9050919050565b60008160281c9050919050565b60006118ea6118e5836118ca565b611807565b9050919050565b60008160301c9050919050565b600061191161190c836118f1565b611807565b9050919050565b60008160381c9050919050565b600061193861193383611918565b611807565b9050919050565b60008160401c9050919050565b600061195f61195a8361193f565b611807565b9050919050565b60008160481c9050919050565b600061198661198183611966565b611807565b9050919050565b60008160501c9050919050565b60006119ad6119a88361198d565b611807565b9050919050565b60008160581c9050919050565b60006119d46119cf836119b4565b611807565b9050919050565b60008160601c9050919050565b60006119fb6119f6836119db565b611807565b9050919050565b60008160681c9050919050565b6000611a22611a1d83611a02565b611807565b9050919050565b60008160701c9050919050565b6000611a49611a4483611a29565b611807565b9050919050565b60008160781c9050919050565b6000611a70611a6b83611a50565b611807565b9050919050565b60008160801c9050919050565b6000611a97611a9283611a77565b611807565b9050919050565b60008160881c9050919050565b6000611abe611ab983611a9e565b611807565b9050919050565b60008160901c9050919050565b6000611ae5611ae083611ac5565b611807565b9050919050565b60008160981c9050919050565b6000611b0c611b0783611aec565b611807565b9050919050565b60008160a01c9050919050565b6000611b33611b2e83611b13565b611807565b9050919050565b60008160a81c9050919050565b6000611b5a611b5583611b3a565b611807565b9050919050565b60008160b01c9050919050565b6000611b81611b7c83611b61565b611807565b9050919050565b60008160b81c9050919050565b6000611ba8611ba383611b88565b611807565b9050919050565b60008160c01c9050919050565b6000611bcf611bca83611baf565b611807565b9050919050565b60008160c81c9050919050565b6000611bf6611bf183611bd6565b611807565b9050919050565b60008160d01c9050919050565b6000611c1d611c1883611bfd565b611807565b9050919050565b60008160d81c9050919050565b6000611c44611c3f83611c24565b611807565b9050919050565b60008160e01c9050919050565b6000611c6b611c6683611c4b565b611807565b9050919050565b60008160e81c9050919050565b6000611c92611c8d83611c72565b611807565b9050919050565b60008160f01c9050919050565b6000611cb9611cb483611c99565b611807565b9050919050565b60008160f81c9050919050565b6000611ce0611cdb83611cc0565b611807565b9050919050565b6000611cf2826117ad565b611cfc81856117b8565b935083611d08846117c9565b6000600115612035575b83600160200382011015612034578154611d3488611d2f83611814565b6117eb565b602088019750611d4c88611d478361183b565b6117eb565b602088019750611d6488611d5f83611862565b6117eb565b602088019750611d7c88611d7783611889565b6117eb565b602088019750611d9488611d8f836118b0565b6117eb565b602088019750611dac88611da7836118d7565b6117eb565b602088019750611dc488611dbf836118fe565b6117eb565b602088019750611ddc88611dd783611925565b6117eb565b602088019750611df488611def8361194c565b6117eb565b602088019750611e0c88611e0783611973565b6117eb565b602088019750611e2488611e1f8361199a565b6117eb565b602088019750611e3c88611e37836119c1565b6117eb565b602088019750611e5488611e4f836119e8565b6117eb565b602088019750611e6c88611e6783611a0f565b6117eb565b602088019750611e8488611e7f83611a36565b6117eb565b602088019750611e9c88611e9783611a5d565b6117eb565b602088019750611eb488611eaf83611a84565b6117eb565b602088019750611ecc88611ec783611aab565b6117eb565b602088019750611ee488611edf83611ad2565b6117eb565b602088019750611efc88611ef783611af9565b6117eb565b602088019750611f1488611f0f83611b20565b6117eb565b602088019750611f2c88611f2783611b47565b6117eb565b602088019750611f4488611f3f83611b6e565b6117eb565b602088019750611f5c88611f5783611b95565b6117eb565b602088019750611f7488611f6f83611bbc565b6117eb565b602088019750611f8c88611f8783611be3565b6117eb565b602088019750611fa488611f9f83611c0a565b6117eb565b602088019750611fbc88611fb783611c31565b6117eb565b602088019750611fd488611fcf83611c58565b6117eb565b602088019750611fec88611fe783611c7f565b6117eb565b60208801975061200488611fff83611ca6565b6117eb565b60208801975061201c8861201783611ccd565b6117eb565b60208801975060018301925050602081019050611d12565b5b60011561252057815484821015612065576120588861205383611814565b6117eb565b6020880197506001820191505b8482101561208c5761207f8861207a8361183b565b6117eb565b6020880197506001820191505b848210156120b3576120a6886120a183611862565b6117eb565b6020880197506001820191505b848210156120da576120cd886120c883611889565b6117eb565b6020880197506001820191505b84821015612101576120f4886120ef836118b0565b6117eb565b6020880197506001820191505b848210156121285761211b88612116836118d7565b6117eb565b6020880197506001820191505b8482101561214f576121428861213d836118fe565b6117eb565b6020880197506001820191505b84821015612176576121698861216483611925565b6117eb565b6020880197506001820191505b8482101561219d576121908861218b8361194c565b6117eb565b6020880197506001820191505b848210156121c4576121b7886121b283611973565b6117eb565b6020880197506001820191505b848210156121eb576121de886121d98361199a565b6117eb565b6020880197506001820191505b848210156122125761220588612200836119c1565b6117eb565b6020880197506001820191505b848210156122395761222c88612227836119e8565b6117eb565b6020880197506001820191505b84821015612260576122538861224e83611a0f565b6117eb565b6020880197506001820191505b848210156122875761227a8861227583611a36565b6117eb565b6020880197506001820191505b848210156122ae576122a18861229c83611a5d565b6117eb565b6020880197506001820191505b848210156122d5576122c8886122c383611a84565b6117eb565b6020880197506001820191505b848210156122fc576122ef886122ea83611aab565b6117eb565b6020880197506001820191505b84821015612323576123168861231183611ad2565b6117eb565b6020880197506001820191505b8482101561234a5761233d8861233883611af9565b6117eb565b6020880197506001820191505b84821015612371576123648861235f83611b20565b6117eb565b6020880197506001820191505b848210156123985761238b8861238683611b47565b6117eb565b6020880197506001820191505b848210156123bf576123b2886123ad83611b6e565b6117eb565b6020880197506001820191505b848210156123e6576123d9886123d483611b95565b6117eb565b6020880197506001820191505b8482101561240d57612400886123fb83611bbc565b6117eb565b6020880197506001820191505b84821015612434576124278861242283611be3565b6117eb565b6020880197506001820191505b8482101561245b5761244e8861244983611c0a565b6117eb565b6020880197506001820191505b84821015612482576124758861247083611c31565b6117eb565b6020880197506001820191505b848210156124a95761249c8861249783611c58565b6117eb565b6020880197506001820191505b848210156124d0576124c3886124be83611c7f565b6117eb565b6020880197506001820191505b848210156124f7576124ea886124e583611ca6565b6117eb565b6020880197506001820191505b8482101561251e576125118861250c83611ccd565b6117eb565b6020880197506001820191505b505b8694505050505092915050565b600060208201905081810360008301526125478184611ce7565b905092915050565b7f4e487b7100000000000000000000000000000000000000000000000000000000600052603260045260246000fdfea26469706673582212200e03a58b4d80a7cb549e5fc55c1aed9d147d00c6c6072e76eff73d038afa332964736f6c634300081b0033",
  "linkReferences": {},
  "deployedLinkReferences": {}
}